{
  "_format": "hh-sol-artifact-1",
  "contractName": "DToken",
  "sourceName": "contracts/protocol/tokenization/DToken.sol",
  "abi": [
    {
      "anonymous": false,
      "inputs": [
        {
          "indexed": true,
          "internalType": "address",
          "name": "owner",
          "type": "address"
        },
        {
          "indexed": true,
          "internalType": "address",
          "name": "spender",
          "type": "address"
        },
        {
          "indexed": false,
          "internalType": "uint256",
          "name": "value",
          "type": "uint256"
        }
      ],
      "name": "Approval",
      "type": "event"
    },
    {
      "anonymous": false,
      "inputs": [
        {
          "indexed": true,
          "internalType": "address",
          "name": "user",
          "type": "address"
        },
        {
          "indexed": false,
          "internalType": "uint256",
          "name": "currentBalance",
          "type": "uint256"
        },
        {
          "indexed": false,
          "internalType": "uint256",
          "name": "balanceIncrease",
          "type": "uint256"
        },
        {
          "indexed": false,
          "internalType": "uint256",
          "name": "amount",
          "type": "uint256"
        }
      ],
      "name": "Burn",
      "type": "event"
    },
    {
      "anonymous": false,
      "inputs": [
        {
          "indexed": false,
          "internalType": "uint8",
          "name": "version",
          "type": "uint8"
        }
      ],
      "name": "Initialized",
      "type": "event"
    },
    {
      "anonymous": false,
      "inputs": [
        {
          "indexed": true,
          "internalType": "address",
          "name": "user",
          "type": "address"
        },
        {
          "indexed": false,
          "internalType": "uint256",
          "name": "currentBalance",
          "type": "uint256"
        },
        {
          "indexed": false,
          "internalType": "uint256",
          "name": "balanceIncrease",
          "type": "uint256"
        },
        {
          "indexed": false,
          "internalType": "uint256",
          "name": "amount",
          "type": "uint256"
        }
      ],
      "name": "Mint",
      "type": "event"
    },
    {
      "anonymous": false,
      "inputs": [
        {
          "indexed": true,
          "internalType": "address",
          "name": "from",
          "type": "address"
        },
        {
          "indexed": true,
          "internalType": "address",
          "name": "to",
          "type": "address"
        },
        {
          "indexed": false,
          "internalType": "uint256",
          "name": "value",
          "type": "uint256"
        }
      ],
      "name": "Transfer",
      "type": "event"
    },
    {
      "inputs": [],
      "name": "POLEMARCH",
      "outputs": [
        {
          "internalType": "contract IPolemarch",
          "name": "",
          "type": "address"
        }
      ],
      "stateMutability": "view",
      "type": "function"
    },
    {
      "inputs": [
        {
          "internalType": "address",
          "name": "",
          "type": "address"
        },
        {
          "internalType": "address",
          "name": "",
          "type": "address"
        }
      ],
      "name": "allowance",
      "outputs": [
        {
          "internalType": "uint256",
          "name": "",
          "type": "uint256"
        }
      ],
      "stateMutability": "view",
      "type": "function"
    },
    {
      "inputs": [
        {
          "internalType": "address",
          "name": "",
          "type": "address"
        },
        {
          "internalType": "uint256",
          "name": "",
          "type": "uint256"
        }
      ],
      "name": "approve",
      "outputs": [
        {
          "internalType": "bool",
          "name": "",
          "type": "bool"
        }
      ],
      "stateMutability": "nonpayable",
      "type": "function"
    },
    {
      "inputs": [
        {
          "internalType": "address",
          "name": "user",
          "type": "address"
        }
      ],
      "name": "balanceOf",
      "outputs": [
        {
          "internalType": "uint256",
          "name": "",
          "type": "uint256"
        }
      ],
      "stateMutability": "view",
      "type": "function"
    },
    {
      "inputs": [
        {
          "internalType": "address",
          "name": "user",
          "type": "address"
        },
        {
          "internalType": "uint256",
          "name": "amount",
          "type": "uint256"
        }
      ],
      "name": "burn",
      "outputs": [],
      "stateMutability": "nonpayable",
      "type": "function"
    },
    {
      "inputs": [],
      "name": "decimals",
      "outputs": [
        {
          "internalType": "uint8",
          "name": "",
          "type": "uint8"
        }
      ],
      "stateMutability": "view",
      "type": "function"
    },
    {
      "inputs": [
        {
          "internalType": "address",
          "name": "",
          "type": "address"
        },
        {
          "internalType": "uint256",
          "name": "",
          "type": "uint256"
        }
      ],
      "name": "decreaseAllowance",
      "outputs": [
        {
          "internalType": "bool",
          "name": "",
          "type": "bool"
        }
      ],
      "stateMutability": "nonpayable",
      "type": "function"
    },
    {
      "inputs": [],
      "name": "getAverageRate",
      "outputs": [
        {
          "internalType": "uint256",
          "name": "",
          "type": "uint256"
        }
      ],
      "stateMutability": "view",
      "type": "function"
    },
    {
      "inputs": [
        {
          "internalType": "address",
          "name": "",
          "type": "address"
        },
        {
          "internalType": "uint256",
          "name": "",
          "type": "uint256"
        }
      ],
      "name": "increaseAllowance",
      "outputs": [
        {
          "internalType": "bool",
          "name": "",
          "type": "bool"
        }
      ],
      "stateMutability": "nonpayable",
      "type": "function"
    },
    {
      "inputs": [
        {
          "internalType": "contract IPolemarch",
          "name": "polemarch",
          "type": "address"
        },
        {
          "internalType": "string",
          "name": "name",
          "type": "string"
        },
        {
          "internalType": "string",
          "name": "symbol",
          "type": "string"
        },
        {
          "internalType": "uint8",
          "name": "decimals",
          "type": "uint8"
        },
        {
          "internalType": "address",
          "name": "exchequerSafe",
          "type": "address"
        },
        {
          "internalType": "address",
          "name": "underlyingAsset",
          "type": "address"
        }
      ],
      "name": "initialize",
      "outputs": [],
      "stateMutability": "nonpayable",
      "type": "function"
    },
    {
      "inputs": [
        {
          "internalType": "address",
          "name": "user",
          "type": "address"
        },
        {
          "internalType": "uint256",
          "name": "amount",
          "type": "uint256"
        }
      ],
      "name": "mint",
      "outputs": [],
      "stateMutability": "nonpayable",
      "type": "function"
    },
    {
      "inputs": [],
      "name": "name",
      "outputs": [
        {
          "internalType": "string",
          "name": "",
          "type": "string"
        }
      ],
      "stateMutability": "view",
      "type": "function"
    },
    {
      "inputs": [],
      "name": "symbol",
      "outputs": [
        {
          "internalType": "string",
          "name": "",
          "type": "string"
        }
      ],
      "stateMutability": "view",
      "type": "function"
    },
    {
      "inputs": [],
      "name": "totalSupply",
      "outputs": [
        {
          "internalType": "uint256",
          "name": "",
          "type": "uint256"
        }
      ],
      "stateMutability": "view",
      "type": "function"
    },
    {
      "inputs": [
        {
          "internalType": "address",
          "name": "",
          "type": "address"
        },
        {
          "internalType": "uint256",
          "name": "",
          "type": "uint256"
        }
      ],
      "name": "transfer",
      "outputs": [
        {
          "internalType": "bool",
          "name": "",
          "type": "bool"
        }
      ],
      "stateMutability": "nonpayable",
      "type": "function"
    },
    {
      "inputs": [
        {
          "internalType": "address",
          "name": "",
          "type": "address"
        },
        {
          "internalType": "address",
          "name": "",
          "type": "address"
        },
        {
          "internalType": "uint256",
          "name": "",
          "type": "uint256"
        }
      ],
      "name": "transferFrom",
      "outputs": [
        {
          "internalType": "bool",
          "name": "",
          "type": "bool"
        }
      ],
      "stateMutability": "nonpayable",
      "type": "function"
    },
    {
      "inputs": [
        {
          "internalType": "address",
          "name": "user",
          "type": "address"
        },
        {
          "internalType": "uint128",
          "name": "rate",
          "type": "uint128"
        }
      ],
      "name": "updateRate",
      "outputs": [],
      "stateMutability": "nonpayable",
      "type": "function"
    },
    {
      "inputs": [
        {
          "internalType": "address",
          "name": "user",
          "type": "address"
        }
      ],
      "name": "userRate",
      "outputs": [
        {
          "internalType": "uint128",
          "name": "",
          "type": "uint128"
        }
      ],
      "stateMutability": "view",
      "type": "function"
    }
  ],
  "bytecode": "0x608060405234801561001057600080fd5b5061157f806100206000396000f3fe608060405234801561001057600080fd5b50600436106101365760003560e01c80638c602391116100b2578063a9059cbb11610081578063d49608df11610066578063d49608df14610268578063dbab5d8514610298578063dd62ed3e146102a957600080fd5b8063a9059cbb14610159578063bd84d6b71461025557600080fd5b80638c602391146101f057806395d89b411461023a5780639dc29fac14610242578063a457c2d71461015957600080fd5b8063313ce5671161010957806340c10f19116100ee57806340c10f19146101b557806370a08231146101ca5780637550cc05146101dd57600080fd5b8063313ce567146101a0578063395093511461015957600080fd5b806306fdde031461013b578063095ea7b31461015957806318160ddd1461017c57806323b872dd14610192575b600080fd5b6101436102b7565b60405161015091906111e1565b60405180910390f35b61016c61016736600461124e565b610349565b6040519015158152602001610150565b610184610399565b604051908152602001610150565b61016c61016736600461127a565b60675460405160ff9091168152602001610150565b6101c86101c336600461124e565b6103b6565b005b6101846101d83660046112bb565b6105c7565b6101c86101eb366004611382565b610643565b6102226101fe3660046112bb565b6001600160a01b03166000908152606560205260409020546001600160801b031690565b6040516001600160801b039091168152602001610150565b6101436107b5565b6101c861025036600461124e565b6107c4565b6101c8610263366004611437565b610aa0565b6067546102809061010090046001600160a01b031681565b6040516001600160a01b039091168152602001610150565b606b546001600160801b0316610184565b61018461016736600461147c565b6060603680546102c6906114aa565b80601f01602080910402602001604051908101604052809291908181526020018280546102f2906114aa565b801561033f5780601f106103145761010080835404028352916020019161033f565b820191906000526020600020905b81548152906001019060200180831161032257829003601f168201915b5050505050905090565b60405162461bcd60e51b815260206004820152601760248201527f4f5045524154494f4e5f4e4f545f535550504f5254454400000000000000000060448201526000906064015b60405180910390fd5b606b546000906103b1906001600160801b0316610b61565b905090565b60675461010090046001600160a01b0316336001600160a01b03161461041e5760405162461bcd60e51b815260206004820152601860248201527f43414c4c45525f4d5553545f42455f504f4c454d4152434800000000000000006044820152606401610390565b60008061042a84610bb0565b915091506000610438610399565b606b549091506001600160801b0316600061045386846114fb565b60668190559050600061046587610c0a565b6001600160a01b0389166000908152606560205260409020549091506001600160801b03166104cb6104c661049985610c0a565b6104a38486610c25565b6104b66104af8a610c0a565b8990610c25565b6104c091906114fb565b90610c69565b610ca8565b606b80546fffffffffffffffffffffffffffffffff19166001600160801b039290921691821781556001600160a01b038b166000908152606a60205260408120805464ffffffffff19164264ffffffffff16908117909155825474ffffffffff00000000000000000000000000000000191670010000000000000000000000000000000090910217909155909450610563878a6114fb565b905061056f8a82610d2b565b60408051898152602081018990529081018a90526001600160a01b038b16907fb4c03061fb5b7fed76389d5af8f2e0ddb09f8c70d1333abbb62582835e10accb9060600160405180910390a250505050505050505050565b6001600160a01b03811660009081526033602090815260408083205460659092528220546001600160801b031681610603575060009392505050565b6001600160a01b0384166000908152606a602052604081205461062e90839064ffffffffff16610ded565b905061063a8382610c25565b95945050505050565b600054610100900460ff16158080156106635750600054600160ff909116105b8061067d5750303b15801561067d575060005460ff166001145b6106ef5760405162461bcd60e51b815260206004820152602e60248201527f496e697469616c697a61626c653a20636f6e747261637420697320616c72656160448201527f647920696e697469616c697a65640000000000000000000000000000000000006064820152608401610390565b6000805460ff191660011790558015610712576000805461ff0019166101001790555b61071e87878787610e2a565b606880546001600160a01b038086167fffffffffffffffffffffffff000000000000000000000000000000000000000092831617909255606980549285169290911691909117905580156107ac576000805461ff0019169055604051600181527f7f26b83ff96e1f2b6a682f133852f6798a09c465da95921460cefb38474024989060200160405180910390a15b50505050505050565b6060603780546102c6906114aa565b60675461010090046001600160a01b0316336001600160a01b03161461082c5760405162461bcd60e51b815260206004820152601860248201527f43414c4c45525f4d5553545f42455f504f4c454d4152434800000000000000006044820152606401610390565b60008061083884610bb0565b915091506000610846610399565b6001600160a01b0386166000908152606560205260408120549192509081906001600160801b031686841161089857606b80546fffffffffffffffffffffffffffffffff191690556000606655610957565b6108a287856114fb565b6066819055915060006108c96108b786610c0a565b606b546001600160801b031690610c25565b905060006108e06108d98a610c0a565b8490610c25565b905081811061091057606b80546fffffffffffffffffffffffffffffffff19169055600060668190559350610954565b6109296104c661091f86610c0a565b6104c08486611513565b606b80546fffffffffffffffffffffffffffffffff19166001600160801b0392909216918217905594505b50505b6001600160a01b0388166000908152606a60205260409020805464ffffffffff19164264ffffffffff16908117909155606b805474ffffffffff00000000000000000000000000000000191670010000000000000000000000000000000090920291909117905586851115610a305760006109d28887611513565b90506109de8982610d2b565b60408051888152602081018890529081018290526001600160a01b038a16907fb4c03061fb5b7fed76389d5af8f2e0ddb09f8c70d1333abbb62582835e10accb9060600160405180910390a250610a96565b6000610a3c8689611513565b9050610a488982610ee7565b60408051888152602081018890529081018290526001600160a01b038a16907f743033787f4738ff4d6a7225ce2bd0977ee5f86b91a902a58f5e4d0b297b46449060600160405180910390a2505b5050505050505050565b60675461010090046001600160a01b0316336001600160a01b031614610b085760405162461bcd60e51b815260206004820152601860248201527f43414c4c45525f4d5553545f42455f504f4c454d4152434800000000000000006044820152606401610390565b6000610b1c826001600160801b0316610c0a565b6001600160a01b0393909316600090815260656020526040902080546fffffffffffffffffffffffffffffffff19166001600160801b03909416939093179092555050565b600080610b6d60355490565b905080610b7d5750600092915050565b6000610b9c84606b60109054906101000a900464ffffffffff16610ded565b9050610ba88282610c25565b949350505050565b6000806000610bd4846001600160a01b031660009081526033602052604090205490565b905080610be75750600093849350915050565b6000610bf2856105c7565b905081610bff8183611513565b935093505050915091565b633b9aca008181029081048214610c2057600080fd5b919050565b600081156b019d971e4fe8401e740000001983900484111517610c4757600080fd5b506b033b2e3c9fd0803ce800000091026b019d971e4fe8401e74000000010490565b600081156b033b2e3c9fd0803ce800000060028404190484111715610c8d57600080fd5b506b033b2e3c9fd0803ce80000009190910260028204010490565b60006001600160801b03821115610d275760405162461bcd60e51b815260206004820152602760248201527f53616665436173743a2076616c756520646f65736e27742066697420696e203160448201527f32382062697473000000000000000000000000000000000000000000000000006064820152608401610390565b5090565b6001600160a01b038216610d815760405162461bcd60e51b815260206004820152601f60248201527f45524332303a206d696e7420746f20746865207a65726f2061646472657373006044820152606401610390565b8060356000828254610d9391906114fb565b90915550506001600160a01b0382166000818152603360209081526040808320805486019055518481527fddf252ad1be2c89b69c2b068fc378daa952ba7f163c4a11628f55a4df523b3ef910160405180910390a35b5050565b600080610e0164ffffffffff841642611513565b610e0b908561152a565b6301e1338090049050610ba8816b033b2e3c9fd0803ce80000006114fb565b600054610100900460ff16610e955760405162461bcd60e51b815260206004820152602b60248201527f496e697469616c697a61626c653a20636f6e7472616374206973206e6f74206960448201526a6e697469616c697a696e6760a81b6064820152608401610390565b610e9f8383611053565b6067805460ff196101006001600160a01b03881602167fffffffffffffffffffffff0000000000000000000000000000000000000000009091161760ff831617905550505050565b6001600160a01b038216610f635760405162461bcd60e51b815260206004820152602160248201527f45524332303a206275726e2066726f6d20746865207a65726f2061646472657360448201527f73000000000000000000000000000000000000000000000000000000000000006064820152608401610390565b6001600160a01b03821660009081526033602052604090205481811015610ff25760405162461bcd60e51b815260206004820152602260248201527f45524332303a206275726e20616d6f756e7420657863656564732062616c616e60448201527f63650000000000000000000000000000000000000000000000000000000000006064820152608401610390565b6001600160a01b03831660008181526033602090815260408083208686039055603580548790039055518581529192917fddf252ad1be2c89b69c2b068fc378daa952ba7f163c4a11628f55a4df523b3ef910160405180910390a35b505050565b600054610100900460ff166110be5760405162461bcd60e51b815260206004820152602b60248201527f496e697469616c697a61626c653a20636f6e7472616374206973206e6f74206960448201526a6e697469616c697a696e6760a81b6064820152608401610390565b610de98282600054610100900460ff1661112e5760405162461bcd60e51b815260206004820152602b60248201527f496e697469616c697a61626c653a20636f6e7472616374206973206e6f74206960448201526a6e697469616c697a696e6760a81b6064820152608401610390565b8151611141906036906020850190611151565b50805161104e9060379060208401905b82805461115d906114aa565b90600052602060002090601f01602090048101928261117f57600085556111c5565b82601f1061119857805160ff19168380011785556111c5565b828001600101855582156111c5579182015b828111156111c55782518255916020019190600101906111aa565b50610d279291505b80821115610d2757600081556001016111cd565b600060208083528351808285015260005b8181101561120e578581018301518582016040015282016111f2565b81811115611220576000604083870101525b50601f01601f1916929092016040019392505050565b6001600160a01b038116811461124b57600080fd5b50565b6000806040838503121561126157600080fd5b823561126c81611236565b946020939093013593505050565b60008060006060848603121561128f57600080fd5b833561129a81611236565b925060208401356112aa81611236565b929592945050506040919091013590565b6000602082840312156112cd57600080fd5b81356112d881611236565b9392505050565b634e487b7160e01b600052604160045260246000fd5b600082601f83011261130657600080fd5b813567ffffffffffffffff80821115611321576113216112df565b604051601f8301601f19908116603f01168101908282118183101715611349576113496112df565b8160405283815286602085880101111561136257600080fd5b836020870160208301376000602085830101528094505050505092915050565b60008060008060008060c0878903121561139b57600080fd5b86356113a681611236565b9550602087013567ffffffffffffffff808211156113c357600080fd5b6113cf8a838b016112f5565b965060408901359150808211156113e557600080fd5b506113f289828a016112f5565b945050606087013560ff8116811461140957600080fd5b9250608087013561141981611236565b915060a087013561142981611236565b809150509295509295509295565b6000806040838503121561144a57600080fd5b823561145581611236565b915060208301356001600160801b038116811461147157600080fd5b809150509250929050565b6000806040838503121561148f57600080fd5b823561149a81611236565b9150602083013561147181611236565b600181811c908216806114be57607f821691505b602082108114156114df57634e487b7160e01b600052602260045260246000fd5b50919050565b634e487b7160e01b600052601160045260246000fd5b6000821982111561150e5761150e6114e5565b500190565b600082821015611525576115256114e5565b500390565b6000816000190483118215151615611544576115446114e5565b50029056fea264697066735822122085783445f76b39a0abab0900c63fd6f06812ab0734b3b14d9d87a5048003979c64736f6c63430008080033",
  "linkReferences": {},
  "deployedLinkReferences": {}
}