{
  "_format": "hh-sol-artifact-1",
  "contractName": "GToken",
  "sourceName": "contracts/protocol/tokenization/GToken.sol",
  "abi": [
    {
      "anonymous": false,
      "inputs": [
        {
          "indexed": true,
          "internalType": "address",
          "name": "owner",
          "type": "address"
        },
        {
          "indexed": true,
          "internalType": "address",
          "name": "spender",
          "type": "address"
        },
        {
          "indexed": false,
          "internalType": "uint256",
          "name": "value",
          "type": "uint256"
        }
      ],
      "name": "Approval",
      "type": "event"
    },
    {
      "anonymous": false,
      "inputs": [
        {
          "indexed": false,
          "internalType": "uint8",
          "name": "version",
          "type": "uint8"
        }
      ],
      "name": "Initialized",
      "type": "event"
    },
    {
      "anonymous": false,
      "inputs": [
        {
          "indexed": true,
          "internalType": "address",
          "name": "previousOwner",
          "type": "address"
        },
        {
          "indexed": true,
          "internalType": "address",
          "name": "newOwner",
          "type": "address"
        }
      ],
      "name": "OwnershipTransferred",
      "type": "event"
    },
    {
      "anonymous": false,
      "inputs": [
        {
          "indexed": true,
          "internalType": "address",
          "name": "from",
          "type": "address"
        },
        {
          "indexed": true,
          "internalType": "address",
          "name": "to",
          "type": "address"
        },
        {
          "indexed": false,
          "internalType": "uint256",
          "name": "value",
          "type": "uint256"
        }
      ],
      "name": "Transfer",
      "type": "event"
    },
    {
      "inputs": [],
      "name": "POLEMARCH",
      "outputs": [
        {
          "internalType": "contract IPolemarch",
          "name": "",
          "type": "address"
        }
      ],
      "stateMutability": "view",
      "type": "function"
    },
    {
      "inputs": [
        {
          "internalType": "address",
          "name": "owner",
          "type": "address"
        },
        {
          "internalType": "address",
          "name": "spender",
          "type": "address"
        }
      ],
      "name": "allowance",
      "outputs": [
        {
          "internalType": "uint256",
          "name": "",
          "type": "uint256"
        }
      ],
      "stateMutability": "view",
      "type": "function"
    },
    {
      "inputs": [
        {
          "internalType": "address",
          "name": "spender",
          "type": "address"
        },
        {
          "internalType": "uint256",
          "name": "amount",
          "type": "uint256"
        }
      ],
      "name": "approve",
      "outputs": [
        {
          "internalType": "bool",
          "name": "",
          "type": "bool"
        }
      ],
      "stateMutability": "nonpayable",
      "type": "function"
    },
    {
      "inputs": [
        {
          "internalType": "uint256",
          "name": "amount",
          "type": "uint256"
        }
      ],
      "name": "approvePolemarch",
      "outputs": [],
      "stateMutability": "nonpayable",
      "type": "function"
    },
    {
      "inputs": [
        {
          "internalType": "address",
          "name": "account",
          "type": "address"
        }
      ],
      "name": "balanceOf",
      "outputs": [
        {
          "internalType": "uint256",
          "name": "",
          "type": "uint256"
        }
      ],
      "stateMutability": "view",
      "type": "function"
    },
    {
      "inputs": [],
      "name": "decimals",
      "outputs": [
        {
          "internalType": "uint8",
          "name": "",
          "type": "uint8"
        }
      ],
      "stateMutability": "view",
      "type": "function"
    },
    {
      "inputs": [
        {
          "internalType": "address",
          "name": "spender",
          "type": "address"
        },
        {
          "internalType": "uint256",
          "name": "subtractedValue",
          "type": "uint256"
        }
      ],
      "name": "decreaseAllowance",
      "outputs": [
        {
          "internalType": "bool",
          "name": "",
          "type": "bool"
        }
      ],
      "stateMutability": "nonpayable",
      "type": "function"
    },
    {
      "inputs": [
        {
          "internalType": "address",
          "name": "spender",
          "type": "address"
        },
        {
          "internalType": "uint256",
          "name": "addedValue",
          "type": "uint256"
        }
      ],
      "name": "increaseAllowance",
      "outputs": [
        {
          "internalType": "bool",
          "name": "",
          "type": "bool"
        }
      ],
      "stateMutability": "nonpayable",
      "type": "function"
    },
    {
      "inputs": [
        {
          "internalType": "contract IPolemarch",
          "name": "polemarch",
          "type": "address"
        },
        {
          "internalType": "string",
          "name": "name",
          "type": "string"
        },
        {
          "internalType": "string",
          "name": "symbol",
          "type": "string"
        },
        {
          "internalType": "uint8",
          "name": "decimals",
          "type": "uint8"
        },
        {
          "internalType": "address",
          "name": "exchequerSafe",
          "type": "address"
        },
        {
          "internalType": "address",
          "name": "underlyingAsset",
          "type": "address"
        }
      ],
      "name": "initialize",
      "outputs": [],
      "stateMutability": "nonpayable",
      "type": "function"
    },
    {
      "inputs": [
        {
          "internalType": "address",
          "name": "caller",
          "type": "address"
        },
        {
          "internalType": "uint256",
          "name": "amount",
          "type": "uint256"
        }
      ],
      "name": "mint",
      "outputs": [],
      "stateMutability": "nonpayable",
      "type": "function"
    },
    {
      "inputs": [],
      "name": "name",
      "outputs": [
        {
          "internalType": "string",
          "name": "",
          "type": "string"
        }
      ],
      "stateMutability": "view",
      "type": "function"
    },
    {
      "inputs": [],
      "name": "owner",
      "outputs": [
        {
          "internalType": "address",
          "name": "",
          "type": "address"
        }
      ],
      "stateMutability": "view",
      "type": "function"
    },
    {
      "inputs": [],
      "name": "renounceOwnership",
      "outputs": [],
      "stateMutability": "nonpayable",
      "type": "function"
    },
    {
      "inputs": [],
      "name": "symbol",
      "outputs": [
        {
          "internalType": "string",
          "name": "",
          "type": "string"
        }
      ],
      "stateMutability": "view",
      "type": "function"
    },
    {
      "inputs": [],
      "name": "totalSupply",
      "outputs": [
        {
          "internalType": "uint256",
          "name": "",
          "type": "uint256"
        }
      ],
      "stateMutability": "view",
      "type": "function"
    },
    {
      "inputs": [
        {
          "internalType": "address",
          "name": "to",
          "type": "address"
        },
        {
          "internalType": "uint256",
          "name": "amount",
          "type": "uint256"
        }
      ],
      "name": "transfer",
      "outputs": [
        {
          "internalType": "bool",
          "name": "",
          "type": "bool"
        }
      ],
      "stateMutability": "nonpayable",
      "type": "function"
    },
    {
      "inputs": [
        {
          "internalType": "address",
          "name": "from",
          "type": "address"
        },
        {
          "internalType": "address",
          "name": "to",
          "type": "address"
        },
        {
          "internalType": "uint256",
          "name": "amount",
          "type": "uint256"
        }
      ],
      "name": "transferFrom",
      "outputs": [
        {
          "internalType": "bool",
          "name": "",
          "type": "bool"
        }
      ],
      "stateMutability": "nonpayable",
      "type": "function"
    },
    {
      "inputs": [
        {
          "internalType": "address",
          "name": "newOwner",
          "type": "address"
        }
      ],
      "name": "transferOwnership",
      "outputs": [],
      "stateMutability": "nonpayable",
      "type": "function"
    },
    {
      "inputs": [
        {
          "internalType": "uint256",
          "name": "amount",
          "type": "uint256"
        }
      ],
      "name": "transferUnderlyingToExchequerSafe",
      "outputs": [],
      "stateMutability": "nonpayable",
      "type": "function"
    }
  ],
  "bytecode": "0x608060405234801561001057600080fd5b506114dc806100206000396000f3fe608060405234801561001057600080fd5b50600436106101515760003560e01c806370a08231116100cd578063a457c2d711610081578063d49608df11610066578063d49608df146102b6578063dd62ed3e146102ce578063f2fde38b1461030757600080fd5b8063a457c2d714610290578063a9059cbb146102a357600080fd5b80637550cc05116100b25780637550cc05146102505780638da5cb5b1461026357806395d89b411461028857600080fd5b806370a082311461021f578063715018a61461024857600080fd5b80632ad2775811610124578063395093511161010957806339509351146101e657806340c10f19146101f9578063504863cd1461020c57600080fd5b80632ad27758146101bc578063313ce567146101d157600080fd5b806306fdde0314610156578063095ea7b31461017457806318160ddd1461019757806323b872dd146101a9575b600080fd5b61015e61031a565b60405161016b919061117e565b60405180910390f35b6101876101823660046111e8565b6103ac565b604051901515815260200161016b565b6035545b60405190815260200161016b565b6101876101b7366004611214565b6103c4565b6101cf6101ca366004611255565b6103e8565b005b60675460405160ff909116815260200161016b565b6101876101f43660046111e8565b61049b565b6101cf6102073660046111e8565b6104da565b6101cf61021a366004611255565b610551565b61019b61022d36600461126e565b6001600160a01b031660009081526033602052604090205490565b6101cf61060d565b6101cf61025e366004611335565b610621565b6068546001600160a01b03165b6040516001600160a01b03909116815260200161016b565b61015e610790565b61018761029e3660046111e8565b61079f565b6101876102b13660046111e8565b610849565b6067546102709061010090046001600160a01b031681565b61019b6102dc3660046113ea565b6001600160a01b03918216600090815260346020908152604080832093909416825291909152205490565b6101cf61031536600461126e565b610857565b60606036805461032990611423565b80601f016020809104026020016040519081016040528092919081815260200182805461035590611423565b80156103a25780601f10610377576101008083540402835291602001916103a2565b820191906000526020600020905b81548152906001019060200180831161038557829003601f168201915b5050505050905090565b6000336103ba8185856108e7565b5060019392505050565b6000336103d2858285610a3f565b6103dd858585610ad1565b506001949350505050565b6103f0610cc5565b609b546067546040517f095ea7b30000000000000000000000000000000000000000000000000000000081526001600160a01b03610100909204821660048201526024810184905291169063095ea7b3906044015b602060405180830381600087803b15801561045f57600080fd5b505af1158015610473573d6000803e3d6000fd5b505050506040513d601f19601f82011682018060405250810190610497919061145e565b5050565b3360008181526034602090815260408083206001600160a01b03871684529091528120549091906103ba90829086906104d5908790611480565b6108e7565b60675461010090046001600160a01b0316336001600160a01b0316146105475760405162461bcd60e51b815260206004820152601860248201527f43414c4c45525f4d5553545f42455f504f4c454d41524348000000000000000060448201526064015b60405180910390fd5b6104978282610d1f565b60675461010090046001600160a01b0316336001600160a01b0316146105b95760405162461bcd60e51b815260206004820152601860248201527f43414c4c45525f4d5553545f42455f504f4c454d415243480000000000000000604482015260640161053e565b609b54609a546040517fa9059cbb0000000000000000000000000000000000000000000000000000000081526001600160a01b0391821660048201526024810184905291169063a9059cbb90604401610445565b610615610cc5565b61061f6000610de0565b565b600054610100900460ff16158080156106415750600054600160ff909116105b8061065b5750303b15801561065b575060005460ff166001145b6106cd5760405162461bcd60e51b815260206004820152602e60248201527f496e697469616c697a61626c653a20636f6e747261637420697320616c72656160448201527f647920696e697469616c697a6564000000000000000000000000000000000000606482015260840161053e565b6000805460ff1916600117905580156106f0576000805461ff0019166101001790555b6106f8610e3f565b61070487878787610eb2565b609a80546001600160a01b0380861673ffffffffffffffffffffffffffffffffffffffff1992831617909255609b8054928516929091169190911790558015610787576000805461ff0019169055604051600181527f7f26b83ff96e1f2b6a682f133852f6798a09c465da95921460cefb38474024989060200160405180910390a15b50505050505050565b60606037805461032990611423565b3360008181526034602090815260408083206001600160a01b03871684529091528120549091908381101561083c5760405162461bcd60e51b815260206004820152602560248201527f45524332303a2064656372656173656420616c6c6f77616e63652062656c6f7760448201527f207a65726f000000000000000000000000000000000000000000000000000000606482015260840161053e565b6103dd82868684036108e7565b6000336103ba818585610ad1565b61085f610cc5565b6001600160a01b0381166108db5760405162461bcd60e51b815260206004820152602660248201527f4f776e61626c653a206e6577206f776e657220697320746865207a65726f206160448201527f6464726573730000000000000000000000000000000000000000000000000000606482015260840161053e565b6108e481610de0565b50565b6001600160a01b0383166109625760405162461bcd60e51b8152602060048201526024808201527f45524332303a20617070726f76652066726f6d20746865207a65726f2061646460448201527f7265737300000000000000000000000000000000000000000000000000000000606482015260840161053e565b6001600160a01b0382166109de5760405162461bcd60e51b815260206004820152602260248201527f45524332303a20617070726f766520746f20746865207a65726f20616464726560448201527f7373000000000000000000000000000000000000000000000000000000000000606482015260840161053e565b6001600160a01b0383811660008181526034602090815260408083209487168084529482529182902085905590518481527f8c5be1e5ebec7d5bd14f71427d1e84f3dd0314c0f7b2291e5b200ac8c7c3b925910160405180910390a3505050565b6001600160a01b038381166000908152603460209081526040808320938616835292905220546000198114610acb5781811015610abe5760405162461bcd60e51b815260206004820152601d60248201527f45524332303a20696e73756666696369656e7420616c6c6f77616e6365000000604482015260640161053e565b610acb84848484036108e7565b50505050565b6001600160a01b038316610b4d5760405162461bcd60e51b815260206004820152602560248201527f45524332303a207472616e736665722066726f6d20746865207a65726f20616460448201527f6472657373000000000000000000000000000000000000000000000000000000606482015260840161053e565b6001600160a01b038216610bc95760405162461bcd60e51b815260206004820152602360248201527f45524332303a207472616e7366657220746f20746865207a65726f206164647260448201527f6573730000000000000000000000000000000000000000000000000000000000606482015260840161053e565b6001600160a01b03831660009081526033602052604090205481811015610c585760405162461bcd60e51b815260206004820152602660248201527f45524332303a207472616e7366657220616d6f756e742065786365656473206260448201527f616c616e63650000000000000000000000000000000000000000000000000000606482015260840161053e565b6001600160a01b0380851660008181526033602052604080822086860390559286168082529083902080548601905591517fddf252ad1be2c89b69c2b068fc378daa952ba7f163c4a11628f55a4df523b3ef90610cb89086815260200190565b60405180910390a3610acb565b6068546001600160a01b0316331461061f5760405162461bcd60e51b815260206004820181905260248201527f4f776e61626c653a2063616c6c6572206973206e6f7420746865206f776e6572604482015260640161053e565b6001600160a01b038216610d755760405162461bcd60e51b815260206004820152601f60248201527f45524332303a206d696e7420746f20746865207a65726f206164647265737300604482015260640161053e565b8060356000828254610d879190611480565b90915550506001600160a01b0382166000818152603360209081526040808320805486019055518481527fddf252ad1be2c89b69c2b068fc378daa952ba7f163c4a11628f55a4df523b3ef910160405180910390a35050565b606880546001600160a01b0383811673ffffffffffffffffffffffffffffffffffffffff19831681179093556040519116919082907f8be0079c531659141344cd1fd0a4f28419497f9722a3daafe3b4186f6b6457e090600090a35050565b600054610100900460ff16610eaa5760405162461bcd60e51b815260206004820152602b60248201527f496e697469616c697a61626c653a20636f6e7472616374206973206e6f74206960448201526a6e697469616c697a696e6760a81b606482015260840161053e565b61061f610f73565b600054610100900460ff16610f1d5760405162461bcd60e51b815260206004820152602b60248201527f496e697469616c697a61626c653a20636f6e7472616374206973206e6f74206960448201526a6e697469616c697a696e6760a81b606482015260840161053e565b610f278383610fe7565b6067805460ff196101006001600160a01b03881602167fffffffffffffffffffffff0000000000000000000000000000000000000000009091161760ff8316179055610acb565b505050565b600054610100900460ff16610fde5760405162461bcd60e51b815260206004820152602b60248201527f496e697469616c697a61626c653a20636f6e7472616374206973206e6f74206960448201526a6e697469616c697a696e6760a81b606482015260840161053e565b61061f33610de0565b600054610100900460ff166110525760405162461bcd60e51b815260206004820152602b60248201527f496e697469616c697a61626c653a20636f6e7472616374206973206e6f74206960448201526a6e697469616c697a696e6760a81b606482015260840161053e565b6104978282600054610100900460ff166110c25760405162461bcd60e51b815260206004820152602b60248201527f496e697469616c697a61626c653a20636f6e7472616374206973206e6f74206960448201526a6e697469616c697a696e6760a81b606482015260840161053e565b81516110d59060369060208501906110e5565b508051610f6e9060379060208401905b8280546110f190611423565b90600052602060002090601f0160209004810192826111135760008555611159565b82601f1061112c57805160ff1916838001178555611159565b82800160010185558215611159579182015b8281111561115957825182559160200191906001019061113e565b50611165929150611169565b5090565b5b80821115611165576000815560010161116a565b600060208083528351808285015260005b818110156111ab5785810183015185820160400152820161118f565b818111156111bd576000604083870101525b50601f01601f1916929092016040019392505050565b6001600160a01b03811681146108e457600080fd5b600080604083850312156111fb57600080fd5b8235611206816111d3565b946020939093013593505050565b60008060006060848603121561122957600080fd5b8335611234816111d3565b92506020840135611244816111d3565b929592945050506040919091013590565b60006020828403121561126757600080fd5b5035919050565b60006020828403121561128057600080fd5b813561128b816111d3565b9392505050565b634e487b7160e01b600052604160045260246000fd5b600082601f8301126112b957600080fd5b813567ffffffffffffffff808211156112d4576112d4611292565b604051601f8301601f19908116603f011681019082821181831017156112fc576112fc611292565b8160405283815286602085880101111561131557600080fd5b836020870160208301376000602085830101528094505050505092915050565b60008060008060008060c0878903121561134e57600080fd5b8635611359816111d3565b9550602087013567ffffffffffffffff8082111561137657600080fd5b6113828a838b016112a8565b9650604089013591508082111561139857600080fd5b506113a589828a016112a8565b945050606087013560ff811681146113bc57600080fd5b925060808701356113cc816111d3565b915060a08701356113dc816111d3565b809150509295509295509295565b600080604083850312156113fd57600080fd5b8235611408816111d3565b91506020830135611418816111d3565b809150509250929050565b600181811c9082168061143757607f821691505b6020821081141561145857634e487b7160e01b600052602260045260246000fd5b50919050565b60006020828403121561147057600080fd5b8151801515811461128b57600080fd5b600082198211156114a157634e487b7160e01b600052601160045260246000fd5b50019056fea26469706673582212201142ed519801b81d4bce671c4ab72aa523c1eff37a8f8573fdac66efde0c151a64736f6c63430008080033",
  "linkReferences": {},
  "deployedLinkReferences": {}
}