{
  "_format": "hh-sol-artifact-1",
  "contractName": "Polemarch",
  "sourceName": "contracts/protocol/polemarch/Polemarch.sol",
  "abi": [
    {
      "anonymous": false,
      "inputs": [
        {
          "indexed": true,
          "internalType": "uint128",
          "name": "lineOfCreditId",
          "type": "uint128"
        },
        {
          "indexed": false,
          "internalType": "uint128",
          "name": "rate",
          "type": "uint128"
        },
        {
          "indexed": true,
          "internalType": "address",
          "name": "borrower",
          "type": "address"
        },
        {
          "indexed": true,
          "internalType": "address",
          "name": "exchequer",
          "type": "address"
        },
        {
          "indexed": false,
          "internalType": "uint256",
          "name": "amount",
          "type": "uint256"
        }
      ],
      "name": "Borrow",
      "type": "event"
    },
    {
      "anonymous": false,
      "inputs": [
        {
          "indexed": true,
          "internalType": "uint128",
          "name": "lineOfCreditId",
          "type": "uint128"
        },
        {
          "indexed": true,
          "internalType": "address",
          "name": "borrower",
          "type": "address"
        },
        {
          "indexed": true,
          "internalType": "address",
          "name": "exchequer",
          "type": "address"
        },
        {
          "indexed": false,
          "internalType": "uint40",
          "name": "expirationTimestamp",
          "type": "uint40"
        }
      ],
      "name": "CloseLineOfCredit",
      "type": "event"
    },
    {
      "anonymous": false,
      "inputs": [
        {
          "indexed": true,
          "internalType": "uint128",
          "name": "id",
          "type": "uint128"
        },
        {
          "indexed": false,
          "internalType": "uint128",
          "name": "rate",
          "type": "uint128"
        },
        {
          "indexed": true,
          "internalType": "address",
          "name": "borrower",
          "type": "address"
        },
        {
          "indexed": true,
          "internalType": "address",
          "name": "exchequer",
          "type": "address"
        },
        {
          "indexed": false,
          "internalType": "uint256",
          "name": "borrowMax",
          "type": "uint256"
        },
        {
          "indexed": false,
          "internalType": "uint40",
          "name": "expirationTimestamp",
          "type": "uint40"
        }
      ],
      "name": "CreateLineOfCredit",
      "type": "event"
    },
    {
      "anonymous": false,
      "inputs": [
        {
          "indexed": true,
          "internalType": "uint128",
          "name": "lineOfCreditId",
          "type": "uint128"
        },
        {
          "indexed": true,
          "internalType": "address",
          "name": "borrower",
          "type": "address"
        },
        {
          "indexed": true,
          "internalType": "address",
          "name": "exchequer",
          "type": "address"
        },
        {
          "indexed": false,
          "internalType": "uint256",
          "name": "remainingBalance",
          "type": "uint256"
        },
        {
          "indexed": false,
          "internalType": "uint40",
          "name": "expirationTimestamp",
          "type": "uint40"
        }
      ],
      "name": "Delinquent",
      "type": "event"
    },
    {
      "anonymous": false,
      "inputs": [
        {
          "indexed": false,
          "internalType": "uint8",
          "name": "version",
          "type": "uint8"
        }
      ],
      "name": "Initialized",
      "type": "event"
    },
    {
      "anonymous": false,
      "inputs": [
        {
          "indexed": true,
          "internalType": "address",
          "name": "previousOwner",
          "type": "address"
        },
        {
          "indexed": true,
          "internalType": "address",
          "name": "newOwner",
          "type": "address"
        }
      ],
      "name": "OwnershipTransferred",
      "type": "event"
    },
    {
      "anonymous": false,
      "inputs": [
        {
          "indexed": true,
          "internalType": "uint128",
          "name": "lineOfCreditId",
          "type": "uint128"
        },
        {
          "indexed": true,
          "internalType": "address",
          "name": "borrower",
          "type": "address"
        },
        {
          "indexed": true,
          "internalType": "address",
          "name": "exchequer",
          "type": "address"
        },
        {
          "indexed": false,
          "internalType": "uint256",
          "name": "amount",
          "type": "uint256"
        }
      ],
      "name": "Repay",
      "type": "event"
    },
    {
      "anonymous": false,
      "inputs": [
        {
          "indexed": true,
          "internalType": "address",
          "name": "exchequer",
          "type": "address"
        },
        {
          "indexed": true,
          "internalType": "address",
          "name": "user",
          "type": "address"
        },
        {
          "indexed": false,
          "internalType": "uint256",
          "name": "amount",
          "type": "uint256"
        }
      ],
      "name": "Supply",
      "type": "event"
    },
    {
      "anonymous": false,
      "inputs": [
        {
          "indexed": true,
          "internalType": "address",
          "name": "exchequer",
          "type": "address"
        },
        {
          "indexed": true,
          "internalType": "address",
          "name": "user",
          "type": "address"
        },
        {
          "indexed": false,
          "internalType": "uint256",
          "name": "amount",
          "type": "uint256"
        }
      ],
      "name": "Withdraw",
      "type": "event"
    },
    {
      "inputs": [
        {
          "internalType": "address",
          "name": "underlyingAsset",
          "type": "address"
        },
        {
          "internalType": "address",
          "name": "sTokenAddress",
          "type": "address"
        },
        {
          "internalType": "address",
          "name": "dTokenAddress",
          "type": "address"
        },
        {
          "internalType": "uint8",
          "name": "decimals",
          "type": "uint8"
        }
      ],
      "name": "addExchequer",
      "outputs": [],
      "stateMutability": "nonpayable",
      "type": "function"
    },
    {
      "inputs": [
        {
          "internalType": "address",
          "name": "underlyingAsset",
          "type": "address"
        },
        {
          "internalType": "uint256",
          "name": "amount",
          "type": "uint256"
        }
      ],
      "name": "borrow",
      "outputs": [],
      "stateMutability": "nonpayable",
      "type": "function"
    },
    {
      "inputs": [
        {
          "internalType": "address",
          "name": "underlyingAsset",
          "type": "address"
        },
        {
          "internalType": "address",
          "name": "borrower",
          "type": "address"
        }
      ],
      "name": "closeLineOfCredit",
      "outputs": [],
      "stateMutability": "nonpayable",
      "type": "function"
    },
    {
      "inputs": [
        {
          "internalType": "address",
          "name": "borrower",
          "type": "address"
        },
        {
          "internalType": "address",
          "name": "underlyingAsset",
          "type": "address"
        },
        {
          "internalType": "uint256",
          "name": "borrowMax",
          "type": "uint256"
        },
        {
          "internalType": "uint128",
          "name": "rate",
          "type": "uint128"
        },
        {
          "internalType": "uint40",
          "name": "termDays",
          "type": "uint40"
        }
      ],
      "name": "createLineOfCredit",
      "outputs": [],
      "stateMutability": "nonpayable",
      "type": "function"
    },
    {
      "inputs": [
        {
          "internalType": "address",
          "name": "underlyingAsset",
          "type": "address"
        }
      ],
      "name": "deleteExchequer",
      "outputs": [],
      "stateMutability": "nonpayable",
      "type": "function"
    },
    {
      "inputs": [
        {
          "internalType": "address",
          "name": "underlyingAsset",
          "type": "address"
        }
      ],
      "name": "getExchequer",
      "outputs": [
        {
          "components": [
            {
              "internalType": "uint128",
              "name": "supplyIndex",
              "type": "uint128"
            },
            {
              "internalType": "uint128",
              "name": "supplyRate",
              "type": "uint128"
            },
            {
              "internalType": "uint40",
              "name": "lastUpdateTimestamp",
              "type": "uint40"
            },
            {
              "internalType": "uint16",
              "name": "id",
              "type": "uint16"
            },
            {
              "internalType": "uint8",
              "name": "decimals",
              "type": "uint8"
            },
            {
              "internalType": "bool",
              "name": "active",
              "type": "bool"
            },
            {
              "internalType": "bool",
              "name": "borrowingEnabled",
              "type": "bool"
            },
            {
              "internalType": "uint16",
              "name": "protocolBorrowFee",
              "type": "uint16"
            },
            {
              "internalType": "uint256",
              "name": "totalDebt",
              "type": "uint256"
            },
            {
              "internalType": "uint256",
              "name": "borrowCap",
              "type": "uint256"
            },
            {
              "internalType": "uint256",
              "name": "supplyCap",
              "type": "uint256"
            },
            {
              "internalType": "address",
              "name": "sTokenAddress",
              "type": "address"
            },
            {
              "internalType": "address",
              "name": "dTokenAddress",
              "type": "address"
            },
            {
              "internalType": "uint128",
              "name": "accruedToExchequerSafe",
              "type": "uint128"
            }
          ],
          "internalType": "struct Types.Exchequer",
          "name": "",
          "type": "tuple"
        }
      ],
      "stateMutability": "view",
      "type": "function"
    },
    {
      "inputs": [
        {
          "internalType": "address",
          "name": "borrower",
          "type": "address"
        }
      ],
      "name": "getLineOfCredit",
      "outputs": [
        {
          "components": [
            {
              "internalType": "uint256",
              "name": "borrowMax",
              "type": "uint256"
            },
            {
              "internalType": "address",
              "name": "underlyingAsset",
              "type": "address"
            },
            {
              "internalType": "uint40",
              "name": "lastRepaymentTimestamp",
              "type": "uint40"
            },
            {
              "internalType": "uint40",
              "name": "creationTimestamp",
              "type": "uint40"
            },
            {
              "internalType": "uint40",
              "name": "expirationTimestamp",
              "type": "uint40"
            },
            {
              "internalType": "uint128",
              "name": "id",
              "type": "uint128"
            },
            {
              "internalType": "bool",
              "name": "deliquent",
              "type": "bool"
            }
          ],
          "internalType": "struct Types.LineOfCredit",
          "name": "",
          "type": "tuple"
        }
      ],
      "stateMutability": "view",
      "type": "function"
    },
    {
      "inputs": [
        {
          "internalType": "address",
          "name": "underlyingAsset",
          "type": "address"
        }
      ],
      "name": "getNormalizedReturn",
      "outputs": [
        {
          "internalType": "uint256",
          "name": "",
          "type": "uint256"
        }
      ],
      "stateMutability": "view",
      "type": "function"
    },
    {
      "inputs": [],
      "name": "initialize",
      "outputs": [],
      "stateMutability": "nonpayable",
      "type": "function"
    },
    {
      "inputs": [
        {
          "internalType": "address",
          "name": "underlyingAsset",
          "type": "address"
        },
        {
          "internalType": "address",
          "name": "borrower",
          "type": "address"
        }
      ],
      "name": "markDelinquent",
      "outputs": [],
      "stateMutability": "nonpayable",
      "type": "function"
    },
    {
      "inputs": [],
      "name": "owner",
      "outputs": [
        {
          "internalType": "address",
          "name": "",
          "type": "address"
        }
      ],
      "stateMutability": "view",
      "type": "function"
    },
    {
      "inputs": [],
      "name": "renounceOwnership",
      "outputs": [],
      "stateMutability": "nonpayable",
      "type": "function"
    },
    {
      "inputs": [
        {
          "internalType": "address",
          "name": "underlyingAsset",
          "type": "address"
        },
        {
          "internalType": "uint256",
          "name": "amount",
          "type": "uint256"
        }
      ],
      "name": "repay",
      "outputs": [],
      "stateMutability": "nonpayable",
      "type": "function"
    },
    {
      "inputs": [
        {
          "internalType": "address",
          "name": "underlyingAsset",
          "type": "address"
        },
        {
          "internalType": "uint256",
          "name": "borrowCap",
          "type": "uint256"
        }
      ],
      "name": "setBorrowCap",
      "outputs": [],
      "stateMutability": "nonpayable",
      "type": "function"
    },
    {
      "inputs": [
        {
          "internalType": "address",
          "name": "underlyingAsset",
          "type": "address"
        },
        {
          "internalType": "bool",
          "name": "active",
          "type": "bool"
        }
      ],
      "name": "setExchequerActive",
      "outputs": [],
      "stateMutability": "nonpayable",
      "type": "function"
    },
    {
      "inputs": [
        {
          "internalType": "address",
          "name": "underlyingAsset",
          "type": "address"
        },
        {
          "internalType": "bool",
          "name": "enabled",
          "type": "bool"
        }
      ],
      "name": "setExchequerBorrowing",
      "outputs": [],
      "stateMutability": "nonpayable",
      "type": "function"
    },
    {
      "inputs": [
        {
          "internalType": "address",
          "name": "underlyingAsset",
          "type": "address"
        },
        {
          "internalType": "uint256",
          "name": "supplyCap",
          "type": "uint256"
        }
      ],
      "name": "setSupplyCap",
      "outputs": [],
      "stateMutability": "nonpayable",
      "type": "function"
    },
    {
      "inputs": [
        {
          "internalType": "address",
          "name": "underlyingAsset",
          "type": "address"
        },
        {
          "internalType": "uint256",
          "name": "amount",
          "type": "uint256"
        }
      ],
      "name": "supply",
      "outputs": [],
      "stateMutability": "nonpayable",
      "type": "function"
    },
    {
      "inputs": [
        {
          "internalType": "address",
          "name": "newOwner",
          "type": "address"
        }
      ],
      "name": "transferOwnership",
      "outputs": [],
      "stateMutability": "nonpayable",
      "type": "function"
    },
    {
      "inputs": [
        {
          "internalType": "address",
          "name": "underlyingAsset",
          "type": "address"
        },
        {
          "internalType": "uint256",
          "name": "amount",
          "type": "uint256"
        }
      ],
      "name": "withdraw",
      "outputs": [],
      "stateMutability": "nonpayable",
      "type": "function"
    }
  ],
  "bytecode": "0x608060405234801561001057600080fd5b50613491806100206000396000f3fe608060405234801561001057600080fd5b506004361061016c5760003560e01c8063a26f60dc116100cd578063f2abeeb211610081578063f2fde38b11610066578063f2fde38b14610589578063f3fef3a31461059c578063f5dcc2e5146105af57600080fd5b8063f2abeeb2146103de578063f2b9fdb81461057657600080fd5b8063b87d4853116100b2578063b87d4853146103a5578063d14a0983146103b8578063ef255262146103cb57600080fd5b8063a26f60dc14610371578063acaef6791461038457600080fd5b8063571f03e5116101245780638129fc1c116101095780638129fc1c1461033b57806381c2de84146103435780638da5cb5b1461035657600080fd5b8063571f03e514610320578063715018a61461033357600080fd5b8063317e6f2e11610155578063317e6f2e146102e75780634b8a3529146102fa578063516180361461030d57600080fd5b8063101d77e81461017157806322867d78146102d2575b600080fd5b61025061017f366004613073565b6040805160e081018252600080825260208201819052918101829052606081018290526080810182905260a0810182905260c0810191909152506001600160a01b03908116600090815260676020908152604091829020825160e0810184528154815260018201549485169281019290925264ffffffffff600160a01b8504811693830193909352600160c81b9093048216606082015260029092015490811660808301526001600160801b036501000000000082041660a083015260ff600160a81b90910416151560c082015290565b6040516102c99190600060e082019050825182526001600160a01b036020840151166020830152604083015164ffffffffff808216604085015280606086015116606085015280608086015116608085015250506001600160801b0360a08401511660a083015260c0830151151560c083015292915050565b60405180910390f35b6102e56102e036600461308e565b6105c2565b005b6102e56102f53660046130b8565b6105d4565b6102e561030836600461308e565b61063f565b6102e561031b366004613114565b61064d565b6102e561032e36600461308e565b61065b565b6102e5610683565b6102e5610697565b6102e5610351366004613073565b6107ce565b6033546040516001600160a01b0390911681526020016102c9565b6102e561037f366004613155565b6107e3565b610397610392366004613073565b61082b565b6040519081526020016102c9565b6102e56103b33660046131a1565b610852565b6102e56103c636600461308e565b61088a565b6102e56103d9366004613114565b6108b2565b6105696103ec366004613073565b604080516101c081018252600080825260208201819052918101829052606081018290526080810182905260a0810182905260c0810182905260e08101829052610100810182905261012081018290526101408101829052610160810182905261018081018290526101a0810191909152506001600160a01b0390811660009081526065602090815260409182902082516101c08101845281546001600160801b038082168352600160801b909104811693820193909352600182015464ffffffffff81169482019490945261ffff6501000000000085048116606083015260ff670100000000000000860481166080840152600160401b86048116151560a08401526901000000000000000000860416151560c08301526a010000000000000000000090940490931660e08401526002810154610100840152600381015461012084015260048101546101408401526005810154841661016084015260068101549093166101808301526007909201549091166101a082015290565b6040516102c9919061320f565b6102e561058436600461308e565b6108c0565b6102e5610597366004613073565b6108cc565b6102e56105aa36600461308e565b610959565b6102e56105bd366004613155565b610965565b6105d06065606784846109a6565b5050565b6105dc610b8e565b60695461060490606590606690879087908790879061ffff8082169162010000900416610be8565b15610639576069805461ffff1690600061061d83613350565b91906101000a81548161ffff021916908361ffff160217905550505b50505050565b6105d0606560678484610f41565b6105d0606560678385611181565b610663610b8e565b6001600160a01b0391909116600090815260656020526040902060040155565b61068b610b8e565b61069560006112b0565b565b600054610100900460ff16158080156106b75750600054600160ff909116105b806106d15750303b1580156106d1575060005460ff166001145b6107485760405162461bcd60e51b815260206004820152602e60248201527f496e697469616c697a61626c653a20636f6e747261637420697320616c72656160448201527f647920696e697469616c697a656400000000000000000000000000000000000060648201526084015b60405180910390fd5b6000805460ff19166001179055801561076b576000805461ff0019166101001790555b610773611302565b6069805463ffff00001916620a000017905580156107cb576000805461ff0019169055604051600181527f7f26b83ff96e1f2b6a682f133852f6798a09c465da95921460cefb38474024989060200160405180910390a15b50565b6107d6610b8e565b6107cb6065606683611375565b6107eb610b8e565b6001600160a01b0382166000908152606560205260409020600101805469ff00000000000000000019166901000000000000000000831515021790555050565b6001600160a01b038116600090815260656020526040812061084c90611441565b92915050565b61085a610b8e565b61086e606560676068548888888888611499565b6068805490600061087e83613372565b91905055505050505050565b610892610b8e565b6001600160a01b0391909116600090815260656020526040902060030155565b6105d06065606783856117b1565b6105d0606583836118d7565b6108d4610b8e565b6001600160a01b0381166109505760405162461bcd60e51b815260206004820152602660248201527f4f776e61626c653a206e6577206f776e657220697320746865207a65726f206160448201527f6464726573730000000000000000000000000000000000000000000000000000606482015260840161073f565b6107cb816112b0565b6105d060658383611a71565b61096d610b8e565b6001600160a01b0382166000908152606560205260409020600101805468ff00000000000000001916600160401b831515021790555050565b6001600160a01b03821660009081526020859052604090206109c781611cd8565b6109d381853385611ce1565b60068101546040517f9dc29fac000000000000000000000000000000000000000000000000000000008152336004820152602481018490526001600160a01b0390911690639dc29fac90604401600060405180830381600087803b158015610a3a57600080fd5b505af1158015610a4e573d6000803e3d6000fd5b5050505060058101546040516323b872dd60e01b81523360048201526001600160a01b03918216602482015260448101849052908416906323b872dd90606401602060405180830381600087803b158015610aa857600080fd5b505af1158015610abc573d6000803e3d6000fd5b505050506040513d601f19601f82011682018060405250810190610ae0919061338d565b50610aea81611ec2565b33600081815260208681526040918290206001810180547fffffffffffffff0000000000ffffffffffffffffffffffffffffffffffffffff16600160a01b4264ffffffffff16021790556002015491518581526001600160a01b03871693926501000000000090046001600160801b0316917fee5fff05934069948fef32c35eccf028cdd06b6bca60b916e41fae115bfcfb90910160405180910390a45050505050565b6033546001600160a01b031633146106955760405162461bcd60e51b815260206004820181905260248201527f4f776e61626c653a2063616c6c6572206973206e6f7420746865206f776e6572604482015260640161073f565b60006001600160a01b0387163b610c415760405162461bcd60e51b815260206004820152600c60248201527f4e4f545f434f4e54524143540000000000000000000000000000000000000000604482015260640161073f565b6001600160a01b03878116600090815260208b905260409020600501541615610cac5760405162461bcd60e51b815260206004820152601d60248201527f4558434845515545525f414c52454144595f494e495449414c495a4544000000604482015260640161073f565b6001600160a01b03878116600090815260208b90526040812080546b033b2e3c9fd0803ce80000006fffffffffffffffffffffffffffffffff199091161781556005810180546001600160a01b03199081168b861617909155600682018054909116938916939093179092556001909101805467ff00000000000000191667010000000000000060ff881602179081905565010000000000900461ffff16151580610d705750600080805260208a905260409020546001600160a01b038981169116145b90508015610dc05760405162461bcd60e51b815260206004820152601760248201527f4558434845515545525f414c52454144595f4144444544000000000000000000604482015260640161073f565b60005b8461ffff168161ffff161015610e655761ffff8116600090815260208b905260409020546001600160a01b0316610e53576001600160a01b038916600081815260208d81526040808320600101805466ffff000000000019166501000000000061ffff979097169687021790559382528c905291822080546001600160a01b03191690911790559150610f359050565b80610e5d81613350565b915050610dc3565b508261ffff168461ffff1610610ebd5760405162461bcd60e51b815260206004820152601860248201527f4e4f5f4d4f52455f52455345525645535f414c4c4f5745440000000000000000604482015260640161073f565b50506001600160a01b038616600081815260208a815260408083206001908101805461ffff891665010000000000810266ffff00000000001990921691909117825585528c845291842080546001600160a01b03191686179055939092528a9052805468ff00000000000000001916600160401b1790555b98975050505050505050565b6001600160a01b03828116600090815260208690526040808220600681015491517f8c60239100000000000000000000000000000000000000000000000000000000815233600482015290939190911690638c60239190602401602060405180830381600087803b158015610fb557600080fd5b505af1158015610fc9573d6000803e3d6000fd5b505050506040513d601f19601f82011682018060405250810190610fed91906133aa565b9050610ff882611cd8565b6110048286338661209f565b60068201546040517f40c10f19000000000000000000000000000000000000000000000000000000008152336004820152602481018590526001600160a01b03909116906340c10f1990604401600060405180830381600087803b15801561106b57600080fd5b505af115801561107f573d6000803e3d6000fd5b5050505061108c82611ec2565b60058201546040517f336d2692000000000000000000000000000000000000000000000000000000008152336004820152602481018590526001600160a01b039091169063336d269290604401600060405180830381600087803b1580156110f357600080fd5b505af1158015611107573d6000803e3d6000fd5b505033600081815260208981526040918290206002015482516001600160801b0388811682529281018a90526001600160a01b038b16965093945065010000000000900416917feccbe104d192be289b50bffe64dcefd75cc3c6d2555630c0beb9b9752f8fc4fa91015b60405180910390a4505050505050565b6001600160a01b03811660009081526020859052604090206111a4818585612366565b60068101546040516370a0823160e01b81526001600160a01b03858116600483015260009216906370a082319060240160206040518083038186803b1580156111ec57600080fd5b505afa158015611200573d6000803e3d6000fd5b505050506040513d601f19601f8201168201806040525081019061122491906133c7565b6001600160a01b03858116600081815260208981526040918290206002018054600160a81b60ff60a81b1982161791829055835187815264ffffffffff90911692810192909252949550928716939192650100000000009092046001600160801b0316917f5c65ce72cc4d9275989f57ed264da72270a1786b784922f1cc425682ac5e3a3d9101611171565b603380546001600160a01b038381166001600160a01b0319831681179093556040519116919082907f8be0079c531659141344cd1fd0a4f28419497f9722a3daafe3b4186f6b6457e090600090a35050565b600054610100900460ff1661136d5760405162461bcd60e51b815260206004820152602b60248201527f496e697469616c697a61626c653a20636f6e7472616374206973206e6f74206960448201526a6e697469616c697a696e6760a81b606482015260840161073f565b6106956124a9565b6001600160a01b038116600090815260208490526040902061139883828461251d565b506001600160a01b031660008181526020848152604080832060018101805465010000000000900461ffff16855295835290832080546001600160a01b031990811690915593835294905280845582546bffffffffffffffffffffffff19169092556002830182905560038301829055600483019190915560058201805482169055600682018054909116905560070180546fffffffffffffffffffffffffffffffff19169055565b600181015460009064ffffffffff1642811415611467575050546001600160801b031690565b8254611492906001600160801b038082169161148c91600160801b90910416846126cc565b90612711565b9392505050565b6001600160a01b03841660009081526020899052604090206114be8189878988612755565b6001600160a01b03868116600081815260208b90526040908190206001810180546001600160a01b0319168a8616179055879055600684015490517fbd84d6b700000000000000000000000000000000000000000000000000000000815260048101929092526001600160801b03861660248301529091169063bd84d6b790604401600060405180830381600087803b15801561155a57600080fd5b505af115801561156e573d6000803e3d6000fd5b505050506001600160a01b038616600090815260208990526040902060010180547fffff0000000000ffffffffffffffffffffffffffffffffffffffffffffffffff16600160c81b4264ffffffffff16021790556115cf82620151806133e0565b6115e09064ffffffffff164261340d565b6001600160a01b038716600090815260208a905260409020600201805464ffffffffff191664ffffffffff9290921691909117905561162087600161340d565b6001600160a01b038716600090815260208a905260408120600290810180547fffffffffffffffffffff0000000000000000000000000000000000ffffffffff16650100000000006001600160801b03959095169490940260ff60a81b191693909317909255908201805486929061169990849061340d565b90915550600090506116ac828685612ac1565b60058301546040517f504863cd000000000000000000000000000000000000000000000000000000008152600481018390529192506001600160a01b03169063504863cd90602401600060405180830381600087803b15801561170e57600080fd5b505af1158015611722573d6000803e3d6000fd5b505050506001600160a01b03878116600081815260208c81526040918290206002015482516001600160801b038a811682529281018b905264ffffffffff821693810193909352938a169365010000000000900416907fa762d316e8f4c815288e5add048146a78a05a11536b0c3730a39042e05b0b4e99060600160405180910390a450505050505050505050565b6001600160a01b03811660009081526020859052604090206117d4818585612b16565b6001600160a01b03831660009081526020859052604081205460028301805491929091611802908490613425565b90915550506001600160a01b03838116600081815260208781526040808320600281018054948255600190910180547fffff0000000000000000000000000000000000000000000000000000000000001690557fffffffffffffffffffff00000000000000000000000000000000000000000000841690555164ffffffffff8316808252650100000000009093046001600160801b0316949293928716929185917f3a407f7ee0659d425dd8697d41f9e51f4156bf3b45a5dffbc14d54249fcb45a9910160405180910390a450505050505050565b6001600160a01b03821660009081526020849052604090206118f881611cd8565b6119028183612cc6565b60058101546040516323b872dd60e01b81523360048201526001600160a01b03918216602482015260448101849052908416906323b872dd90606401602060405180830381600087803b15801561195857600080fd5b505af115801561196c573d6000803e3d6000fd5b505050506040513d601f19601f82011682018060405250810190611990919061338d565b50600581015481546040517f156e29f6000000000000000000000000000000000000000000000000000000008152336004820152602481018590526001600160801b0390911660448201526001600160a01b039091169063156e29f690606401600060405180830381600087803b158015611a0a57600080fd5b505af1158015611a1e573d6000803e3d6000fd5b50505050611a2b81611ec2565b60405182815233906001600160a01b038516907fd1cf3d156d5f8f0d50f6c122ed609cec09d35c9b9fb3fff6ea0959134dae424e9060200160405180910390a350505050565b6001600160a01b0382166000908152602084905260409020611a9281611cd8565b805460058201546040517f1da24f3e000000000000000000000000000000000000000000000000000000008152336004820152600092611b3d926001600160801b03909116916001600160a01b0390911690631da24f3e9060240160206040518083038186803b158015611b0557600080fd5b505afa158015611b19573d6000803e3d6000fd5b505050506040513d601f19601f8201168201806040525081019061148c91906133c7565b600583015460028401546040517f2ece993600000000000000000000000000000000000000000000000000000000815233600482015260248101919091529192506000916001600160a01b0390911690632ece993690604401602060405180830381600087803b158015611bb057600080fd5b505af1158015611bc4573d6000803e3d6000fd5b505050506040513d601f19601f82011682018060405250810190611be891906133c7565b9050611bf683838387612e32565b600583015483546040517ff5298aca000000000000000000000000000000000000000000000000000000008152336004820152602481018790526001600160801b0390911660448201526001600160a01b039091169063f5298aca90606401600060405180830381600087803b158015611c6f57600080fd5b505af1158015611c83573d6000803e3d6000fd5b50505050611c9083611ec2565b60405184815233906001600160a01b038716907f9b1bfa7fa9ee420a16e124f794c35ac9f90472acc99140eb2f6447c714cad8eb9060200160405180910390a3505050505050565b6107cb81612f60565b80611d1f5760405162461bcd60e51b815260206004820152600e60248201526d1253959053125117d05353d5539560921b604482015260640161073f565b6001840154600160401b900460ff16611d6f5760405162461bcd60e51b81526020600482015260126024820152714558434845515545525f494e41435449564560701b604482015260640161073f565b6001600160a01b038216600090815260208490526040902054611dde5760405162461bcd60e51b815260206004820152602160248201527f555345525f444f45535f4e4f545f484156455f4c494e455f4f465f43524544496044820152601560fa1b606482015260840161073f565b6001600160a01b038216600090815260208490526040902060020154600160a81b900460ff1615611e515760405162461bcd60e51b815260206004820152601660248201527f555345525f444542545f49535f44454c495155454e5400000000000000000000604482015260640161073f565b6001600160a01b03821660009081526020849052604090206002015464ffffffffff1642106106395760405162461bcd60e51b815260206004820152601660248201527f4c494e455f4f465f4352454449545f4558504952454400000000000000000000604482015260640161073f565b6006810154604080517f18160ddd00000000000000000000000000000000000000000000000000000000815290516000926001600160a01b0316916318160ddd916004808301926020929190829003018186803b158015611f2257600080fd5b505afa158015611f36573d6000803e3d6000fd5b505050506040513d601f19601f82011682018060405250810190611f5a91906133c7565b905060008260050160009054906101000a90046001600160a01b03166001600160a01b03166318160ddd6040518163ffffffff1660e01b815260040160206040518083038186803b158015611fae57600080fd5b505afa158015611fc2573d6000803e3d6000fd5b505050506040513d601f19601f82011682018060405250810190611fe691906133c7565b905060008360060160009054906101000a90046001600160a01b03166001600160a01b031663dbab5d856040518163ffffffff1660e01b8152600401602060405180830381600087803b15801561203c57600080fd5b505af1158015612050573d6000803e3d6000fd5b505050506040513d601f19601f8201168201806040525081019061207491906133c7565b9050612081838383612ff4565b84546001600160801b03918216600160801b02911617909355505050565b806120dd5760405162461bcd60e51b815260206004820152600e60248201526d1253959053125117d05353d5539560921b604482015260640161073f565b6001840154600160401b900460ff1661212d5760405162461bcd60e51b81526020600482015260126024820152714558434845515545525f494e41435449564560701b604482015260640161073f565b60018401546901000000000000000000900460ff1661218e5760405162461bcd60e51b815260206004820152601560248201527f424f52524f57494e475f4e4f545f454e41424c45440000000000000000000000604482015260640161073f565b6001600160a01b0382166000908152602084905260409020546121fd5760405162461bcd60e51b815260206004820152602160248201527f555345525f444f45535f4e4f545f484156455f4c494e455f4f465f43524544496044820152601560fa1b606482015260840161073f565b6001600160a01b038216600090815260208490526040902060020154600160a81b900460ff16156122705760405162461bcd60e51b815260206004820152601760248201527f555345525f4841535f44454c495155454e545f44454254000000000000000000604482015260640161073f565b6001600160a01b038281166000818152602086905260409081902054600688015491516370a0823160e01b815260048101939093529284929116906370a082319060240160206040518083038186803b1580156122cc57600080fd5b505afa1580156122e0573d6000803e3d6000fd5b505050506040513d601f19601f8201168201806040525081019061230491906133c7565b61230e919061340d565b1115611e515760405162461bcd60e51b815260206004820152602160248201527f555345525f43414e4e4f545f424f52524f575f4f5645525f4d41585f4c494d496044820152601560fa1b606482015260840161073f565b6001600160a01b03811660009081526020839052604090206002015464ffffffffff1642116123d75760405162461bcd60e51b815260206004820152601e60248201527f4c494e455f4f465f4352454449545f4841535f4e4f545f455850495245440000604482015260640161073f565b60068301546040516370a0823160e01b81526001600160a01b03838116600483015260009216906370a082319060240160206040518083038186803b15801561241f57600080fd5b505afa158015612433573d6000803e3d6000fd5b505050506040513d601f19601f8201168201806040525081019061245791906133c7565b116124a45760405162461bcd60e51b815260206004820152601960248201527f555345525f444542545f42414c414e43455f49535f5a45524f00000000000000604482015260640161073f565b505050565b600054610100900460ff166125145760405162461bcd60e51b815260206004820152602b60248201527f496e697469616c697a61626c653a20636f6e7472616374206973206e6f74206960448201526a6e697469616c697a696e6760a81b606482015260840161073f565b610695336112b0565b6001600160a01b0381166125735760405162461bcd60e51b815260206004820152601660248201527f5a45524f5f414444524553535f4e4f545f56414c494400000000000000000000604482015260640161073f565b600182015465010000000000900461ffff161515806125ab57506000808052602084905260409020546001600160a01b038281169116145b6125f75760405162461bcd60e51b815260206004820152601060248201527f41535345545f4e4f545f4c495354454400000000000000000000000000000000604482015260640161073f565b8160050160009054906101000a90046001600160a01b03166001600160a01b03166318160ddd6040518163ffffffff1660e01b815260040160206040518083038186803b15801561264757600080fd5b505afa15801561265b573d6000803e3d6000fd5b505050506040513d601f19601f8201168201806040525081019061267f91906133c7565b156124a45760405162461bcd60e51b815260206004820152601660248201527f53544f4b454e5f535550504c595f4e4f545f5a45524f00000000000000000000604482015260640161073f565b6000806126e064ffffffffff841642613425565b6126ea908561343c565b6301e1338090049050612709816b033b2e3c9fd0803ce800000061340d565b949350505050565b600081156b019d971e4fe8401e74000000198390048411151761273357600080fd5b506b033b2e3c9fd0803ce800000091026b019d971e4fe8401e74000000010490565b6001600160a01b038216600090815260208590526040902060020154600160a81b900460ff16156127c85760405162461bcd60e51b815260206004820152601760248201527f555345525f4841535f44454c495155454e545f44454254000000000000000000604482015260640161073f565b806128155760405162461bcd60e51b815260206004820152601260248201527f494e56414c49445f424f52524f575f4d41580000000000000000000000000000604482015260640161073f565b6001850154600160401b900460ff166128655760405162461bcd60e51b81526020600482015260126024820152714558434845515545525f494e41435449564560701b604482015260640161073f565b60018501546901000000000000000000900460ff166128c65760405162461bcd60e51b815260206004820152601560248201527f424f52524f57494e475f4e4f545f454e41424c45440000000000000000000000604482015260640161073f565b60058501546040516370a0823160e01b81526001600160a01b03918216600482015282918516906370a082319060240160206040518083038186803b15801561290e57600080fd5b505afa158015612922573d6000803e3d6000fd5b505050506040513d601f19601f8201168201806040525081019061294691906133c7565b10156129ba5760405162461bcd60e51b815260206004820152602360248201527f4e4f545f454e4f5547485f554e4445524c59494e475f41535345545f42414c4160448201527f4e43450000000000000000000000000000000000000000000000000000000000606482015260840161073f565b84600301548186600201546129cf919061340d565b1115806129de57506003850154155b612a4f5760405162461bcd60e51b8152602060048201526024808201527f4558434845515545525f4d5553545f535441595f42454c4f575f424f52524f5760448201527f5f43415000000000000000000000000000000000000000000000000000000000606482015260840161073f565b6001600160a01b038281166000908152602086905260409020600101541615612aba5760405162461bcd60e51b815260206004820181905260248201527f555345525f414c52454144595f4841535f424f52524f575f504f534954494f4e604482015260640161073f565b5050505050565b600080612ad864ffffffffff84166201518061343c565b9050612b0d612aeb826301e13380613018565b600187015461148c9087906a0100000000000000000000900461ffff16612711565b95945050505050565b6001600160a01b038116600090815260208390526040902060020154600160a81b900460ff1615612b895760405162461bcd60e51b815260206004820152601660248201527f555345525f444542545f49535f44454c495155454e5400000000000000000000604482015260640161073f565b6001600160a01b03811660009081526020839052604090206002015464ffffffffff164211612bfa5760405162461bcd60e51b815260206004820152601e60248201527f4c494e455f4f465f4352454449545f4841535f4e4f545f455850495245440000604482015260640161073f565b60068301546040516370a0823160e01b81526001600160a01b038381166004830152909116906370a082319060240160206040518083038186803b158015612c4157600080fd5b505afa158015612c55573d6000803e3d6000fd5b505050506040513d601f19601f82011682018060405250810190612c7991906133c7565b156124a45760405162461bcd60e51b815260206004820152601d60248201527f555345525f444542545f42414c414e43455f49535f4e4f545f5a45524f000000604482015260640161073f565b80612d045760405162461bcd60e51b815260206004820152600e60248201526d1253959053125117d05353d5539560921b604482015260640161073f565b6001820154600160401b900460ff16612d545760405162461bcd60e51b81526020600482015260126024820152714558434845515545525f494e41435449564560701b604482015260640161073f565b60048201541580612de6575081546005830154604080517fb1bf962d00000000000000000000000000000000000000000000000000000000815290518493612dd4936001600160801b03909116926001600160a01b039091169163b1bf962d91600480820192602092909190829003018186803b158015611b0557600080fd5b612dde919061340d565b826004015410155b6105d05760405162461bcd60e51b815260206004820152601360248201527f535550504c595f4341505f455843454544454400000000000000000000000000604482015260640161073f565b80612e705760405162461bcd60e51b815260206004820152600e60248201526d1253959053125117d05353d5539560921b604482015260640161073f565b80831015612ec05760405162461bcd60e51b815260206004820152601460248201527f555345525f42414c414e43455f544f4f5f4c4f57000000000000000000000000604482015260640161073f565b6001840154600160401b900460ff16612f105760405162461bcd60e51b81526020600482015260126024820152714558434845515545525f494e41435449564560701b604482015260640161073f565b818111156106395760405162461bcd60e51b815260206004820152601c60248201527f574954484452415741424c455f42414c414e43455f544f4f5f4c4f5700000000604482015260640161073f565b80546001600160801b0380821691600160801b90041615612fd95781546001830154600091612fa791600160801b9091046001600160801b03169064ffffffffff166126cc565b9050612fb38183612711565b83546fffffffffffffffffffffffffffffffff19166001600160801b0391909116178355505b50600101805464ffffffffff19164264ffffffffff16179055565b600080806130028686613018565b905061300e8482612711565b9695505050505050565b600081156b033b2e3c9fd0803ce80000006002840419048411171561303c57600080fd5b506b033b2e3c9fd0803ce80000009190910260028204010490565b80356001600160a01b038116811461306e57600080fd5b919050565b60006020828403121561308557600080fd5b61149282613057565b600080604083850312156130a157600080fd5b6130aa83613057565b946020939093013593505050565b600080600080608085870312156130ce57600080fd5b6130d785613057565b93506130e560208601613057565b92506130f360408601613057565b9150606085013560ff8116811461310957600080fd5b939692955090935050565b6000806040838503121561312757600080fd5b61313083613057565b915061313e60208401613057565b90509250929050565b80151581146107cb57600080fd5b6000806040838503121561316857600080fd5b61317183613057565b9150602083013561318181613147565b809150509250929050565b6001600160801b03811681146107cb57600080fd5b600080600080600060a086880312156131b957600080fd5b6131c286613057565b94506131d060208701613057565b93506040860135925060608601356131e78161318c565b9150608086013564ffffffffff8116811461320157600080fd5b809150509295509295909350565b81516001600160801b031681526101c08101602083015161323b60208401826001600160801b03169052565b506040830151613254604084018264ffffffffff169052565b50606083015161326a606084018261ffff169052565b50608083015161327f608084018260ff169052565b5060a083015161329360a084018215159052565b5060c08301516132a760c084018215159052565b5060e08301516132bd60e084018261ffff169052565b50610100838101519083015261012080840151908301526101408084015190830152610160808401516001600160a01b039081169184019190915261018080850151909116908301526101a0928301516001600160801b0316929091019190915290565b7f4e487b7100000000000000000000000000000000000000000000000000000000600052601160045260246000fd5b600061ffff8083168181141561336857613368613321565b6001019392505050565b600060001982141561338657613386613321565b5060010190565b60006020828403121561339f57600080fd5b815161149281613147565b6000602082840312156133bc57600080fd5b81516114928161318c565b6000602082840312156133d957600080fd5b5051919050565b600064ffffffffff8083168185168183048111821515161561340457613404613321565b02949350505050565b6000821982111561342057613420613321565b500190565b60008282101561343757613437613321565b500390565b600081600019048311821515161561345657613456613321565b50029056fea26469706673582212201e58001e25ec2c9846a10ee17c3b433cc4021dde587257645f2ed89b547a0be464736f6c63430008080033",
  "linkReferences": {},
  "deployedLinkReferences": {}
}