{
  "_format": "hh-sol-artifact-1",
  "contractName": "SToken",
  "sourceName": "contracts/protocol/tokenization/SToken.sol",
  "abi": [
    {
      "anonymous": false,
      "inputs": [
        {
          "indexed": true,
          "internalType": "address",
          "name": "owner",
          "type": "address"
        },
        {
          "indexed": true,
          "internalType": "address",
          "name": "spender",
          "type": "address"
        },
        {
          "indexed": false,
          "internalType": "uint256",
          "name": "value",
          "type": "uint256"
        }
      ],
      "name": "Approval",
      "type": "event"
    },
    {
      "anonymous": false,
      "inputs": [
        {
          "indexed": true,
          "internalType": "address",
          "name": "from",
          "type": "address"
        },
        {
          "indexed": false,
          "internalType": "uint256",
          "name": "value",
          "type": "uint256"
        },
        {
          "indexed": false,
          "internalType": "uint256",
          "name": "balanceIncrease",
          "type": "uint256"
        },
        {
          "indexed": false,
          "internalType": "uint256",
          "name": "index",
          "type": "uint256"
        }
      ],
      "name": "Burn",
      "type": "event"
    },
    {
      "anonymous": false,
      "inputs": [
        {
          "indexed": true,
          "internalType": "address",
          "name": "underlyingAsset",
          "type": "address"
        },
        {
          "indexed": false,
          "internalType": "uint8",
          "name": "sTokenDecimals",
          "type": "uint8"
        }
      ],
      "name": "Initialized",
      "type": "event"
    },
    {
      "anonymous": false,
      "inputs": [
        {
          "indexed": false,
          "internalType": "uint8",
          "name": "version",
          "type": "uint8"
        }
      ],
      "name": "Initialized",
      "type": "event"
    },
    {
      "anonymous": false,
      "inputs": [
        {
          "indexed": true,
          "internalType": "address",
          "name": "caller",
          "type": "address"
        },
        {
          "indexed": false,
          "internalType": "uint256",
          "name": "value",
          "type": "uint256"
        },
        {
          "indexed": false,
          "internalType": "uint256",
          "name": "balanceIncrease",
          "type": "uint256"
        },
        {
          "indexed": false,
          "internalType": "uint256",
          "name": "index",
          "type": "uint256"
        }
      ],
      "name": "Mint",
      "type": "event"
    },
    {
      "anonymous": false,
      "inputs": [
        {
          "indexed": true,
          "internalType": "address",
          "name": "from",
          "type": "address"
        },
        {
          "indexed": true,
          "internalType": "address",
          "name": "to",
          "type": "address"
        },
        {
          "indexed": false,
          "internalType": "uint256",
          "name": "value",
          "type": "uint256"
        }
      ],
      "name": "Transfer",
      "type": "event"
    },
    {
      "inputs": [],
      "name": "POLEMARCH",
      "outputs": [
        {
          "internalType": "contract IPolemarch",
          "name": "",
          "type": "address"
        }
      ],
      "stateMutability": "view",
      "type": "function"
    },
    {
      "inputs": [
        {
          "internalType": "address",
          "name": "owner",
          "type": "address"
        },
        {
          "internalType": "address",
          "name": "spender",
          "type": "address"
        }
      ],
      "name": "allowance",
      "outputs": [
        {
          "internalType": "uint256",
          "name": "",
          "type": "uint256"
        }
      ],
      "stateMutability": "view",
      "type": "function"
    },
    {
      "inputs": [
        {
          "internalType": "address",
          "name": "spender",
          "type": "address"
        },
        {
          "internalType": "uint256",
          "name": "amount",
          "type": "uint256"
        }
      ],
      "name": "approve",
      "outputs": [
        {
          "internalType": "bool",
          "name": "",
          "type": "bool"
        }
      ],
      "stateMutability": "nonpayable",
      "type": "function"
    },
    {
      "inputs": [],
      "name": "availableUnderlyingSupply",
      "outputs": [
        {
          "internalType": "uint256",
          "name": "",
          "type": "uint256"
        }
      ],
      "stateMutability": "view",
      "type": "function"
    },
    {
      "inputs": [
        {
          "internalType": "address",
          "name": "user",
          "type": "address"
        }
      ],
      "name": "balanceOf",
      "outputs": [
        {
          "internalType": "uint256",
          "name": "",
          "type": "uint256"
        }
      ],
      "stateMutability": "view",
      "type": "function"
    },
    {
      "inputs": [
        {
          "internalType": "address",
          "name": "account",
          "type": "address"
        },
        {
          "internalType": "uint256",
          "name": "amount",
          "type": "uint256"
        },
        {
          "internalType": "uint256",
          "name": "index",
          "type": "uint256"
        }
      ],
      "name": "burn",
      "outputs": [],
      "stateMutability": "nonpayable",
      "type": "function"
    },
    {
      "inputs": [],
      "name": "decimals",
      "outputs": [
        {
          "internalType": "uint8",
          "name": "",
          "type": "uint8"
        }
      ],
      "stateMutability": "view",
      "type": "function"
    },
    {
      "inputs": [
        {
          "internalType": "address",
          "name": "spender",
          "type": "address"
        },
        {
          "internalType": "uint256",
          "name": "subtractedValue",
          "type": "uint256"
        }
      ],
      "name": "decreaseAllowance",
      "outputs": [
        {
          "internalType": "bool",
          "name": "",
          "type": "bool"
        }
      ],
      "stateMutability": "nonpayable",
      "type": "function"
    },
    {
      "inputs": [],
      "name": "getExchequerSafe",
      "outputs": [
        {
          "internalType": "address",
          "name": "",
          "type": "address"
        }
      ],
      "stateMutability": "view",
      "type": "function"
    },
    {
      "inputs": [
        {
          "internalType": "address",
          "name": "user",
          "type": "address"
        }
      ],
      "name": "getPreviousIndex",
      "outputs": [
        {
          "internalType": "uint256",
          "name": "",
          "type": "uint256"
        }
      ],
      "stateMutability": "view",
      "type": "function"
    },
    {
      "inputs": [
        {
          "internalType": "address",
          "name": "spender",
          "type": "address"
        },
        {
          "internalType": "uint256",
          "name": "addedValue",
          "type": "uint256"
        }
      ],
      "name": "increaseAllowance",
      "outputs": [
        {
          "internalType": "bool",
          "name": "",
          "type": "bool"
        }
      ],
      "stateMutability": "nonpayable",
      "type": "function"
    },
    {
      "inputs": [
        {
          "internalType": "contract IPolemarch",
          "name": "polemarch",
          "type": "address"
        },
        {
          "internalType": "contract IThurmanToken",
          "name": "thurmanToken",
          "type": "address"
        },
        {
          "internalType": "string",
          "name": "name",
          "type": "string"
        },
        {
          "internalType": "string",
          "name": "symbol",
          "type": "string"
        },
        {
          "internalType": "uint8",
          "name": "decimals",
          "type": "uint8"
        },
        {
          "internalType": "address",
          "name": "exchequerSafe",
          "type": "address"
        },
        {
          "internalType": "address",
          "name": "underlyingAsset",
          "type": "address"
        }
      ],
      "name": "initialize",
      "outputs": [],
      "stateMutability": "nonpayable",
      "type": "function"
    },
    {
      "inputs": [
        {
          "internalType": "address",
          "name": "account",
          "type": "address"
        },
        {
          "internalType": "uint256",
          "name": "amount",
          "type": "uint256"
        },
        {
          "internalType": "uint256",
          "name": "index",
          "type": "uint256"
        }
      ],
      "name": "mint",
      "outputs": [],
      "stateMutability": "nonpayable",
      "type": "function"
    },
    {
      "inputs": [
        {
          "internalType": "uint256",
          "name": "amount",
          "type": "uint256"
        },
        {
          "internalType": "uint256",
          "name": "index",
          "type": "uint256"
        }
      ],
      "name": "mintToExchequerSafe",
      "outputs": [],
      "stateMutability": "nonpayable",
      "type": "function"
    },
    {
      "inputs": [],
      "name": "name",
      "outputs": [
        {
          "internalType": "string",
          "name": "",
          "type": "string"
        }
      ],
      "stateMutability": "view",
      "type": "function"
    },
    {
      "inputs": [
        {
          "internalType": "address",
          "name": "user",
          "type": "address"
        }
      ],
      "name": "scaledBalanceOf",
      "outputs": [
        {
          "internalType": "uint256",
          "name": "",
          "type": "uint256"
        }
      ],
      "stateMutability": "view",
      "type": "function"
    },
    {
      "inputs": [],
      "name": "scaledTotalSupply",
      "outputs": [
        {
          "internalType": "uint256",
          "name": "",
          "type": "uint256"
        }
      ],
      "stateMutability": "view",
      "type": "function"
    },
    {
      "inputs": [],
      "name": "symbol",
      "outputs": [
        {
          "internalType": "string",
          "name": "",
          "type": "string"
        }
      ],
      "stateMutability": "view",
      "type": "function"
    },
    {
      "inputs": [],
      "name": "totalSupply",
      "outputs": [
        {
          "internalType": "uint256",
          "name": "",
          "type": "uint256"
        }
      ],
      "stateMutability": "view",
      "type": "function"
    },
    {
      "inputs": [
        {
          "internalType": "address",
          "name": "to",
          "type": "address"
        },
        {
          "internalType": "uint256",
          "name": "amount",
          "type": "uint256"
        }
      ],
      "name": "transfer",
      "outputs": [
        {
          "internalType": "bool",
          "name": "",
          "type": "bool"
        }
      ],
      "stateMutability": "nonpayable",
      "type": "function"
    },
    {
      "inputs": [
        {
          "internalType": "address",
          "name": "from",
          "type": "address"
        },
        {
          "internalType": "address",
          "name": "to",
          "type": "address"
        },
        {
          "internalType": "uint256",
          "name": "amount",
          "type": "uint256"
        }
      ],
      "name": "transferFrom",
      "outputs": [
        {
          "internalType": "bool",
          "name": "",
          "type": "bool"
        }
      ],
      "stateMutability": "nonpayable",
      "type": "function"
    },
    {
      "inputs": [
        {
          "internalType": "address",
          "name": "to",
          "type": "address"
        },
        {
          "internalType": "uint256",
          "name": "amount",
          "type": "uint256"
        }
      ],
      "name": "transferUnderlying",
      "outputs": [],
      "stateMutability": "nonpayable",
      "type": "function"
    },
    {
      "inputs": [
        {
          "internalType": "uint256",
          "name": "amount",
          "type": "uint256"
        }
      ],
      "name": "transferUnderlyingToExchequerSafe",
      "outputs": [],
      "stateMutability": "nonpayable",
      "type": "function"
    },
    {
      "inputs": [
        {
          "internalType": "address",
          "name": "user",
          "type": "address"
        },
        {
          "internalType": "uint256",
          "name": "totalDebt",
          "type": "uint256"
        }
      ],
      "name": "withdrawableBalance",
      "outputs": [
        {
          "internalType": "uint256",
          "name": "",
          "type": "uint256"
        }
      ],
      "stateMutability": "view",
      "type": "function"
    },
    {
      "inputs": [
        {
          "internalType": "uint256",
          "name": "totalDebt",
          "type": "uint256"
        }
      ],
      "name": "withdrawableTotalSupply",
      "outputs": [
        {
          "internalType": "uint256",
          "name": "",
          "type": "uint256"
        }
      ],
      "stateMutability": "view",
      "type": "function"
    }
  ],
  "bytecode": "0x608060405234801561001057600080fd5b50612061806100206000396000f3fe608060405234801561001057600080fd5b50600436106101a35760003560e01c806339509351116100ee578063a457c2d711610097578063d49608df11610071578063d49608df1461034a578063dd62ed3e14610362578063e07539861461039b578063f5298aca146103cd57600080fd5b8063a457c2d71461031c578063a9059cbb1461032f578063b1bf962d1461034257600080fd5b806370a08231116100c857806370a08231146102f957806395d89b411461030c5780639664e8fe1461031457600080fd5b806339509351146102ae578063504863cd146102c15780636ae5d4a0146102d457600080fd5b80631d765695116101505780632ece99361161012a5780632ece993614610273578063313ce56714610286578063336d26921461029b57600080fd5b80631d7656951461023a5780631da24f3e1461024d57806323b872dd1461026057600080fd5b8063156e29f611610181578063156e29f6146101fe5780631639151b1461021157806318160ddd1461022457600080fd5b806306fdde03146101a8578063095ea7b3146101c65780630cf39ef8146101e9575b600080fd5b6101b06103e0565b6040516101bd9190611c5a565b60405180910390f35b6101d96101d4366004611cd7565b610472565b60405190151581526020016101bd565b6101fc6101f7366004611da6565b61048a565b005b6101fc61020c366004611e69565b6106a9565b6101fc61021f366004611e9e565b6107a0565b61022c61082c565b6040519081526020016101bd565b61022c610248366004611ec0565b6108dd565b61022c61025b366004611ed9565b6108fb565b6101d961026e366004611ef6565b61091b565b61022c610281366004611cd7565b61093f565b60675460405160ff90911681526020016101bd565b6101fc6102a9366004611cd7565b61097e565b6101d96102bc366004611cd7565b610a71565b6101fc6102cf366004611ec0565b610ab0565b6068546001600160a01b03165b6040516001600160a01b0390911681526020016101bd565b61022c610307366004611ed9565b610ba0565b6101b0610c49565b61022c610c58565b6101d961032a366004611cd7565b610cf2565b6101d961033d366004611cd7565b610d9c565b61022c610daa565b6067546102e19061010090046001600160a01b031681565b61022c610370366004611f37565b6001600160a01b03918216600090815260346020908152604080832093909416825291909152205490565b61022c6103a9366004611ed9565b6001600160a01b03166000908152606560205260409020546001600160801b031690565b6101fc6103db366004611e69565b610db5565b6060603680546103ef90611f70565b80601f016020809104026020016040519081016040528092919081815260200182805461041b90611f70565b80156104685780601f1061043d57610100808354040283529160200191610468565b820191906000526020600020905b81548152906001019060200180831161044b57829003601f168201915b5050505050905090565b600033610480818585610f43565b5060019392505050565b600054610100900460ff16158080156104aa5750600054600160ff909116105b806104c45750303b1580156104c4575060005460ff166001145b61053b5760405162461bcd60e51b815260206004820152602e60248201527f496e697469616c697a61626c653a20636f6e747261637420697320616c72656160448201527f647920696e697469616c697a656400000000000000000000000000000000000060648201526084015b60405180910390fd5b6000805460ff19166001179055801561055e576000805461ff0019166101001790555b61056a8887878761109b565b6067546001600160a01b0389811661010090920416146105cc5760405162461bcd60e51b815260206004820181905260248201527f504f4c454d415243485f4144445245535345535f444f5f4e4f545f4d415443486044820152606401610532565b606880546001600160a01b038581167fffffffffffffffffffffffff000000000000000000000000000000000000000092831617909255606980548584169083168117909155606a8054938b169390921692909217905560405160ff861681527f91d493a38a37c26f1d48ee98b1ec0af796b36f960ef63328655fb91b1541f50d9060200160405180910390a2801561069f576000805461ff0019169055604051600181527f7f26b83ff96e1f2b6a682f133852f6798a09c465da95921460cefb38474024989060200160405180910390a15b5050505050505050565b60675461010090046001600160a01b0316336001600160a01b0316146107115760405162461bcd60e51b815260206004820152601860248201527f43414c4c45525f4d5553545f42455f504f4c454d4152434800000000000000006044820152606401610532565b61071c838383611112565b606a546040517f40c10f190000000000000000000000000000000000000000000000000000000081526001600160a01b03858116600483015260248201859052909116906340c10f1990604401600060405180830381600087803b15801561078357600080fd5b505af1158015610797573d6000803e3d6000fd5b50505050505050565b60675461010090046001600160a01b0316336001600160a01b0316146108085760405162461bcd60e51b815260206004820152601860248201527f43414c4c45525f4d5553545f42455f504f4c454d4152434800000000000000006044820152606401610532565b81610811575050565b606854610828906001600160a01b03168383611112565b5050565b60008061083860355490565b90508061084757600091505090565b60675460695460405163acaef67960e01b81526001600160a01b0391821660048201526108d79261010090049091169063acaef6799060240160206040518083038186803b15801561089857600080fd5b505afa1580156108ac573d6000803e3d6000fd5b505050506040513d601f19601f820116820180604052508101906108d09190611fab565b8290611286565b91505090565b6000806108e8610c58565b90506108f48382611fda565b9392505050565b6001600160a01b0381166000908152603360205260408120545b92915050565b6000336109298582856112ca565b610934858585611356565b506001949350505050565b60008061094b836108dd565b9050600061095761082c565b9050610975610966838361154a565b61096f87610ba0565b90611286565b95945050505050565b60675461010090046001600160a01b0316336001600160a01b0316146109e65760405162461bcd60e51b815260206004820152601860248201527f43414c4c45525f4d5553545f42455f504f4c454d4152434800000000000000006044820152606401610532565b60695460405163a9059cbb60e01b81526001600160a01b038481166004830152602482018490529091169063a9059cbb90604401602060405180830381600087803b158015610a3457600080fd5b505af1158015610a48573d6000803e3d6000fd5b505050506040513d601f19601f82011682018060405250810190610a6c9190611ff1565b505050565b3360008181526034602090815260408083206001600160a01b03871684529091528120549091906104809082908690610aab908790612013565b610f43565b60675461010090046001600160a01b0316336001600160a01b031614610b185760405162461bcd60e51b815260206004820152601860248201527f43414c4c45525f4d5553545f42455f504f4c454d4152434800000000000000006044820152606401610532565b60695460685460405163a9059cbb60e01b81526001600160a01b0391821660048201526024810184905291169063a9059cbb90604401602060405180830381600087803b158015610b6857600080fd5b505af1158015610b7c573d6000803e3d6000fd5b505050506040513d601f19601f820116820180604052508101906108289190611ff1565b60675460695460405163acaef67960e01b81526001600160a01b03918216600482015260009261091592610100909104169063acaef6799060240160206040518083038186803b158015610bf357600080fd5b505afa158015610c07573d6000803e3d6000fd5b505050506040513d601f19601f82011682018060405250810190610c2b9190611fab565b6001600160a01b03841660009081526033602052604090205461096f565b6060603780546103ef90611f70565b6069546040517f70a082310000000000000000000000000000000000000000000000000000000081523060048201526000916001600160a01b0316906370a082319060240160206040518083038186803b158015610cb557600080fd5b505afa158015610cc9573d6000803e3d6000fd5b505050506040513d601f19601f82011682018060405250810190610ced9190611fab565b905090565b3360008181526034602090815260408083206001600160a01b038716845290915281205490919083811015610d8f5760405162461bcd60e51b815260206004820152602560248201527f45524332303a2064656372656173656420616c6c6f77616e63652062656c6f7760448201527f207a65726f0000000000000000000000000000000000000000000000000000006064820152608401610532565b6109348286868403610f43565b600033610480818585611356565b6000610ced60355490565b60675461010090046001600160a01b0316336001600160a01b031614610e1d5760405162461bcd60e51b815260206004820152601860248201527f43414c4c45525f4d5553545f42455f504f4c454d4152434800000000000000006044820152606401610532565b610e28838383611589565b606a546040517f9dc29fac0000000000000000000000000000000000000000000000000000000081526001600160a01b0385811660048301526024820185905290911690639dc29fac90604401600060405180830381600087803b158015610e8f57600080fd5b505af1158015610ea3573d6000803e3d6000fd5b505050506001600160a01b0383163014610a6c5760695460405163a9059cbb60e01b81526001600160a01b038581166004830152602482018590529091169063a9059cbb90604401602060405180830381600087803b158015610f0557600080fd5b505af1158015610f19573d6000803e3d6000fd5b505050506040513d601f19601f82011682018060405250810190610f3d9190611ff1565b50505050565b6001600160a01b038316610fbe5760405162461bcd60e51b8152602060048201526024808201527f45524332303a20617070726f76652066726f6d20746865207a65726f2061646460448201527f72657373000000000000000000000000000000000000000000000000000000006064820152608401610532565b6001600160a01b03821661103a5760405162461bcd60e51b815260206004820152602260248201527f45524332303a20617070726f766520746f20746865207a65726f20616464726560448201527f73730000000000000000000000000000000000000000000000000000000000006064820152608401610532565b6001600160a01b0383811660008181526034602090815260408083209487168084529482529182902085905590518481527f8c5be1e5ebec7d5bd14f71427d1e84f3dd0314c0f7b2291e5b200ac8c7c3b925910160405180910390a3505050565b600054610100900460ff166111065760405162461bcd60e51b815260206004820152602b60248201527f496e697469616c697a61626c653a20636f6e7472616374206973206e6f74206960448201526a6e697469616c697a696e6760a81b6064820152608401610532565b610f3d84848484611761565b600061111e838361154a565b90508061116d5760405162461bcd60e51b815260206004820152601360248201527f494e56414c49445f4d494e545f414d4f554e54000000000000000000000000006044820152606401610532565b6001600160a01b03841660009081526033602090815260408083205460659092528220549091906111a89083906001600160801b0316611286565b6111b28386611286565b6111bc9190611fda565b90506111c78461181d565b6001600160a01b038716600090815260656020526040902080546fffffffffffffffffffffffffffffffff19166001600160801b0392909216919091179055611221866112138561181d565b6001600160801b03166118a0565b600061122d8287612013565b60408051828152602081018590529081018790529091506001600160a01b038816907fb4c03061fb5b7fed76389d5af8f2e0ddb09f8c70d1333abbb62582835e10accb906060015b60405180910390a250505050505050565b600081156b019d971e4fe8401e7400000019839004841115176112a857600080fd5b506b033b2e3c9fd0803ce800000091026b019d971e4fe8401e74000000010490565b6001600160a01b038381166000908152603460209081526040808320938616835292905220546000198114610f3d57818110156113495760405162461bcd60e51b815260206004820152601d60248201527f45524332303a20696e73756666696369656e7420616c6c6f77616e63650000006044820152606401610532565b610f3d8484848403610f43565b6001600160a01b0383166113d25760405162461bcd60e51b815260206004820152602560248201527f45524332303a207472616e736665722066726f6d20746865207a65726f20616460448201527f64726573730000000000000000000000000000000000000000000000000000006064820152608401610532565b6001600160a01b03821661144e5760405162461bcd60e51b815260206004820152602360248201527f45524332303a207472616e7366657220746f20746865207a65726f206164647260448201527f65737300000000000000000000000000000000000000000000000000000000006064820152608401610532565b6001600160a01b038316600090815260336020526040902054818110156114dd5760405162461bcd60e51b815260206004820152602660248201527f45524332303a207472616e7366657220616d6f756e742065786365656473206260448201527f616c616e636500000000000000000000000000000000000000000000000000006064820152608401610532565b6001600160a01b0380851660008181526033602052604080822086860390559286168082529083902080548601905591517fddf252ad1be2c89b69c2b068fc378daa952ba7f163c4a11628f55a4df523b3ef9061153d9086815260200190565b60405180910390a3610f3d565b600081156b033b2e3c9fd0803ce80000006002840419048411171561156e57600080fd5b506b033b2e3c9fd0803ce80000009190910260028204010490565b6000611595838361154a565b9050806115e45760405162461bcd60e51b815260206004820152601360248201527f494e56414c49445f4255524e5f414d4f554e54000000000000000000000000006044820152606401610532565b6001600160a01b038416600090815260336020908152604080832054606590925282205490919061161f9083906001600160801b0316611286565b6116298386611286565b6116339190611fda565b905061163e8461181d565b6001600160a01b038716600090815260656020526040902080546fffffffffffffffffffffffffffffffff19166001600160801b03929092169190911790556116988661168a8561181d565b6001600160801b0316611961565b808510156117015760006116ac8683611fda565b60408051828152602081018590529081018790529091506001600160a01b038816907fb4c03061fb5b7fed76389d5af8f2e0ddb09f8c70d1333abbb62582835e10accb9060600160405180910390a250611759565b600061170d8287611fda565b60408051828152602081018590529081018790529091506001600160a01b038816907f743033787f4738ff4d6a7225ce2bd0977ee5f86b91a902a58f5e4d0b297b464490606001611275565b505050505050565b600054610100900460ff166117cc5760405162461bcd60e51b815260206004820152602b60248201527f496e697469616c697a61626c653a20636f6e7472616374206973206e6f74206960448201526a6e697469616c697a696e6760a81b6064820152608401610532565b6117d68383611acc565b6067805460ff196101006001600160a01b03881602167fffffffffffffffffffffff0000000000000000000000000000000000000000009091161760ff8316179055610f3d565b60006001600160801b0382111561189c5760405162461bcd60e51b815260206004820152602760248201527f53616665436173743a2076616c756520646f65736e27742066697420696e203160448201527f32382062697473000000000000000000000000000000000000000000000000006064820152608401610532565b5090565b6001600160a01b0382166118f65760405162461bcd60e51b815260206004820152601f60248201527f45524332303a206d696e7420746f20746865207a65726f2061646472657373006044820152606401610532565b80603560008282546119089190612013565b90915550506001600160a01b0382166000818152603360209081526040808320805486019055518481527fddf252ad1be2c89b69c2b068fc378daa952ba7f163c4a11628f55a4df523b3ef910160405180910390a35050565b6001600160a01b0382166119dd5760405162461bcd60e51b815260206004820152602160248201527f45524332303a206275726e2066726f6d20746865207a65726f2061646472657360448201527f73000000000000000000000000000000000000000000000000000000000000006064820152608401610532565b6001600160a01b03821660009081526033602052604090205481811015611a6c5760405162461bcd60e51b815260206004820152602260248201527f45524332303a206275726e20616d6f756e7420657863656564732062616c616e60448201527f63650000000000000000000000000000000000000000000000000000000000006064820152608401610532565b6001600160a01b03831660008181526033602090815260408083208686039055603580548790039055518581529192917fddf252ad1be2c89b69c2b068fc378daa952ba7f163c4a11628f55a4df523b3ef910160405180910390a3505050565b600054610100900460ff16611b375760405162461bcd60e51b815260206004820152602b60248201527f496e697469616c697a61626c653a20636f6e7472616374206973206e6f74206960448201526a6e697469616c697a696e6760a81b6064820152608401610532565b6108288282600054610100900460ff16611ba75760405162461bcd60e51b815260206004820152602b60248201527f496e697469616c697a61626c653a20636f6e7472616374206973206e6f74206960448201526a6e697469616c697a696e6760a81b6064820152608401610532565b8151611bba906036906020850190611bca565b508051610a6c9060379060208401905b828054611bd690611f70565b90600052602060002090601f016020900481019282611bf85760008555611c3e565b82601f10611c1157805160ff1916838001178555611c3e565b82800160010185558215611c3e579182015b82811115611c3e578251825591602001919060010190611c23565b5061189c9291505b8082111561189c5760008155600101611c46565b600060208083528351808285015260005b81811015611c8757858101830151858201604001528201611c6b565b81811115611c99576000604083870101525b50601f01601f1916929092016040019392505050565b6001600160a01b0381168114611cc457600080fd5b50565b8035611cd281611caf565b919050565b60008060408385031215611cea57600080fd5b8235611cf581611caf565b946020939093013593505050565b634e487b7160e01b600052604160045260246000fd5b600082601f830112611d2a57600080fd5b813567ffffffffffffffff80821115611d4557611d45611d03565b604051601f8301601f19908116603f01168101908282118183101715611d6d57611d6d611d03565b81604052838152866020858801011115611d8657600080fd5b836020870160208301376000602085830101528094505050505092915050565b600080600080600080600060e0888a031215611dc157600080fd5b8735611dcc81611caf565b96506020880135611ddc81611caf565b9550604088013567ffffffffffffffff80821115611df957600080fd5b611e058b838c01611d19565b965060608a0135915080821115611e1b57600080fd5b50611e288a828b01611d19565b945050608088013560ff81168114611e3f57600080fd5b9250611e4d60a08901611cc7565b9150611e5b60c08901611cc7565b905092959891949750929550565b600080600060608486031215611e7e57600080fd5b8335611e8981611caf565b95602085013595506040909401359392505050565b60008060408385031215611eb157600080fd5b50508035926020909101359150565b600060208284031215611ed257600080fd5b5035919050565b600060208284031215611eeb57600080fd5b81356108f481611caf565b600080600060608486031215611f0b57600080fd5b8335611f1681611caf565b92506020840135611f2681611caf565b929592945050506040919091013590565b60008060408385031215611f4a57600080fd5b8235611f5581611caf565b91506020830135611f6581611caf565b809150509250929050565b600181811c90821680611f8457607f821691505b60208210811415611fa557634e487b7160e01b600052602260045260246000fd5b50919050565b600060208284031215611fbd57600080fd5b5051919050565b634e487b7160e01b600052601160045260246000fd5b600082821015611fec57611fec611fc4565b500390565b60006020828403121561200357600080fd5b815180151581146108f457600080fd5b6000821982111561202657612026611fc4565b50019056fea2646970667358221220c32a95ec1446977a28c97ed416ae47db9c017ce09df66dca8f8c451a1d878c5f64736f6c63430008080033",
  "linkReferences": {},
  "deployedLinkReferences": {}
}