{
  "_format": "hh-sol-artifact-1",
  "contractName": "ThurmanGovernor2",
  "sourceName": "contracts/governance/ThurmanGovernor2.sol",
  "abi": [
    {
      "inputs": [],
      "stateMutability": "nonpayable",
      "type": "constructor"
    },
    {
      "inputs": [],
      "name": "Empty",
      "type": "error"
    },
    {
      "anonymous": false,
      "inputs": [
        {
          "indexed": false,
          "internalType": "uint8",
          "name": "version",
          "type": "uint8"
        }
      ],
      "name": "Initialized",
      "type": "event"
    },
    {
      "anonymous": false,
      "inputs": [
        {
          "indexed": false,
          "internalType": "uint256",
          "name": "proposalId",
          "type": "uint256"
        }
      ],
      "name": "ProposalCanceled",
      "type": "event"
    },
    {
      "anonymous": false,
      "inputs": [
        {
          "indexed": false,
          "internalType": "uint256",
          "name": "proposalId",
          "type": "uint256"
        },
        {
          "indexed": false,
          "internalType": "address",
          "name": "proposer",
          "type": "address"
        },
        {
          "indexed": false,
          "internalType": "address[]",
          "name": "targets",
          "type": "address[]"
        },
        {
          "indexed": false,
          "internalType": "uint256[]",
          "name": "values",
          "type": "uint256[]"
        },
        {
          "indexed": false,
          "internalType": "string[]",
          "name": "signatures",
          "type": "string[]"
        },
        {
          "indexed": false,
          "internalType": "bytes[]",
          "name": "calldatas",
          "type": "bytes[]"
        },
        {
          "indexed": false,
          "internalType": "uint256",
          "name": "startBlock",
          "type": "uint256"
        },
        {
          "indexed": false,
          "internalType": "uint256",
          "name": "endBlock",
          "type": "uint256"
        },
        {
          "indexed": false,
          "internalType": "string",
          "name": "description",
          "type": "string"
        }
      ],
      "name": "ProposalCreated",
      "type": "event"
    },
    {
      "anonymous": false,
      "inputs": [
        {
          "indexed": false,
          "internalType": "uint256",
          "name": "proposalId",
          "type": "uint256"
        }
      ],
      "name": "ProposalExecuted",
      "type": "event"
    },
    {
      "anonymous": false,
      "inputs": [
        {
          "indexed": false,
          "internalType": "uint256",
          "name": "proposalId",
          "type": "uint256"
        },
        {
          "indexed": false,
          "internalType": "uint256",
          "name": "eta",
          "type": "uint256"
        }
      ],
      "name": "ProposalQueued",
      "type": "event"
    },
    {
      "anonymous": false,
      "inputs": [
        {
          "indexed": false,
          "internalType": "uint256",
          "name": "oldProposalThreshold",
          "type": "uint256"
        },
        {
          "indexed": false,
          "internalType": "uint256",
          "name": "newProposalThreshold",
          "type": "uint256"
        }
      ],
      "name": "ProposalThresholdSet",
      "type": "event"
    },
    {
      "anonymous": false,
      "inputs": [
        {
          "indexed": false,
          "internalType": "uint256",
          "name": "oldQuorumNumerator",
          "type": "uint256"
        },
        {
          "indexed": false,
          "internalType": "uint256",
          "name": "newQuorumNumerator",
          "type": "uint256"
        }
      ],
      "name": "QuorumNumeratorUpdated",
      "type": "event"
    },
    {
      "anonymous": false,
      "inputs": [
        {
          "indexed": false,
          "internalType": "address",
          "name": "oldTimelock",
          "type": "address"
        },
        {
          "indexed": false,
          "internalType": "address",
          "name": "newTimelock",
          "type": "address"
        }
      ],
      "name": "TimelockChange",
      "type": "event"
    },
    {
      "anonymous": false,
      "inputs": [
        {
          "indexed": true,
          "internalType": "address",
          "name": "voter",
          "type": "address"
        },
        {
          "indexed": false,
          "internalType": "uint256",
          "name": "proposalId",
          "type": "uint256"
        },
        {
          "indexed": false,
          "internalType": "uint8",
          "name": "support",
          "type": "uint8"
        },
        {
          "indexed": false,
          "internalType": "uint256",
          "name": "weight",
          "type": "uint256"
        },
        {
          "indexed": false,
          "internalType": "string",
          "name": "reason",
          "type": "string"
        }
      ],
      "name": "VoteCast",
      "type": "event"
    },
    {
      "anonymous": false,
      "inputs": [
        {
          "indexed": true,
          "internalType": "address",
          "name": "voter",
          "type": "address"
        },
        {
          "indexed": false,
          "internalType": "uint256",
          "name": "proposalId",
          "type": "uint256"
        },
        {
          "indexed": false,
          "internalType": "uint8",
          "name": "support",
          "type": "uint8"
        },
        {
          "indexed": false,
          "internalType": "uint256",
          "name": "weight",
          "type": "uint256"
        },
        {
          "indexed": false,
          "internalType": "string",
          "name": "reason",
          "type": "string"
        },
        {
          "indexed": false,
          "internalType": "bytes",
          "name": "params",
          "type": "bytes"
        }
      ],
      "name": "VoteCastWithParams",
      "type": "event"
    },
    {
      "anonymous": false,
      "inputs": [
        {
          "indexed": false,
          "internalType": "uint256",
          "name": "oldVotingDelay",
          "type": "uint256"
        },
        {
          "indexed": false,
          "internalType": "uint256",
          "name": "newVotingDelay",
          "type": "uint256"
        }
      ],
      "name": "VotingDelaySet",
      "type": "event"
    },
    {
      "anonymous": false,
      "inputs": [
        {
          "indexed": false,
          "internalType": "uint256",
          "name": "oldVotingPeriod",
          "type": "uint256"
        },
        {
          "indexed": false,
          "internalType": "uint256",
          "name": "newVotingPeriod",
          "type": "uint256"
        }
      ],
      "name": "VotingPeriodSet",
      "type": "event"
    },
    {
      "inputs": [],
      "name": "BALLOT_TYPEHASH",
      "outputs": [
        {
          "internalType": "bytes32",
          "name": "",
          "type": "bytes32"
        }
      ],
      "stateMutability": "view",
      "type": "function"
    },
    {
      "inputs": [],
      "name": "COUNTING_MODE",
      "outputs": [
        {
          "internalType": "string",
          "name": "",
          "type": "string"
        }
      ],
      "stateMutability": "pure",
      "type": "function"
    },
    {
      "inputs": [],
      "name": "EXTENDED_BALLOT_TYPEHASH",
      "outputs": [
        {
          "internalType": "bytes32",
          "name": "",
          "type": "bytes32"
        }
      ],
      "stateMutability": "view",
      "type": "function"
    },
    {
      "inputs": [],
      "name": "_proposalThreshold",
      "outputs": [
        {
          "internalType": "uint256",
          "name": "",
          "type": "uint256"
        }
      ],
      "stateMutability": "view",
      "type": "function"
    },
    {
      "inputs": [],
      "name": "_votingDelay",
      "outputs": [
        {
          "internalType": "uint256",
          "name": "",
          "type": "uint256"
        }
      ],
      "stateMutability": "view",
      "type": "function"
    },
    {
      "inputs": [],
      "name": "_votingPeriod",
      "outputs": [
        {
          "internalType": "uint256",
          "name": "",
          "type": "uint256"
        }
      ],
      "stateMutability": "view",
      "type": "function"
    },
    {
      "inputs": [
        {
          "internalType": "uint256",
          "name": "proposalId",
          "type": "uint256"
        }
      ],
      "name": "cancel",
      "outputs": [],
      "stateMutability": "nonpayable",
      "type": "function"
    },
    {
      "inputs": [
        {
          "internalType": "uint256",
          "name": "proposalId",
          "type": "uint256"
        },
        {
          "internalType": "uint8",
          "name": "support",
          "type": "uint8"
        }
      ],
      "name": "castVote",
      "outputs": [
        {
          "internalType": "uint256",
          "name": "",
          "type": "uint256"
        }
      ],
      "stateMutability": "nonpayable",
      "type": "function"
    },
    {
      "inputs": [
        {
          "internalType": "uint256",
          "name": "proposalId",
          "type": "uint256"
        },
        {
          "internalType": "uint8",
          "name": "support",
          "type": "uint8"
        },
        {
          "internalType": "uint8",
          "name": "v",
          "type": "uint8"
        },
        {
          "internalType": "bytes32",
          "name": "r",
          "type": "bytes32"
        },
        {
          "internalType": "bytes32",
          "name": "s",
          "type": "bytes32"
        }
      ],
      "name": "castVoteBySig",
      "outputs": [
        {
          "internalType": "uint256",
          "name": "",
          "type": "uint256"
        }
      ],
      "stateMutability": "nonpayable",
      "type": "function"
    },
    {
      "inputs": [
        {
          "internalType": "uint256",
          "name": "proposalId",
          "type": "uint256"
        },
        {
          "internalType": "uint8",
          "name": "support",
          "type": "uint8"
        },
        {
          "internalType": "string",
          "name": "reason",
          "type": "string"
        }
      ],
      "name": "castVoteWithReason",
      "outputs": [
        {
          "internalType": "uint256",
          "name": "",
          "type": "uint256"
        }
      ],
      "stateMutability": "nonpayable",
      "type": "function"
    },
    {
      "inputs": [
        {
          "internalType": "uint256",
          "name": "proposalId",
          "type": "uint256"
        },
        {
          "internalType": "uint8",
          "name": "support",
          "type": "uint8"
        },
        {
          "internalType": "string",
          "name": "reason",
          "type": "string"
        },
        {
          "internalType": "bytes",
          "name": "params",
          "type": "bytes"
        }
      ],
      "name": "castVoteWithReasonAndParams",
      "outputs": [
        {
          "internalType": "uint256",
          "name": "",
          "type": "uint256"
        }
      ],
      "stateMutability": "nonpayable",
      "type": "function"
    },
    {
      "inputs": [
        {
          "internalType": "uint256",
          "name": "proposalId",
          "type": "uint256"
        },
        {
          "internalType": "uint8",
          "name": "support",
          "type": "uint8"
        },
        {
          "internalType": "string",
          "name": "reason",
          "type": "string"
        },
        {
          "internalType": "bytes",
          "name": "params",
          "type": "bytes"
        },
        {
          "internalType": "uint8",
          "name": "v",
          "type": "uint8"
        },
        {
          "internalType": "bytes32",
          "name": "r",
          "type": "bytes32"
        },
        {
          "internalType": "bytes32",
          "name": "s",
          "type": "bytes32"
        }
      ],
      "name": "castVoteWithReasonAndParamsBySig",
      "outputs": [
        {
          "internalType": "uint256",
          "name": "",
          "type": "uint256"
        }
      ],
      "stateMutability": "nonpayable",
      "type": "function"
    },
    {
      "inputs": [
        {
          "internalType": "address[]",
          "name": "targets",
          "type": "address[]"
        },
        {
          "internalType": "uint256[]",
          "name": "values",
          "type": "uint256[]"
        },
        {
          "internalType": "bytes[]",
          "name": "calldatas",
          "type": "bytes[]"
        },
        {
          "internalType": "bytes32",
          "name": "descriptionHash",
          "type": "bytes32"
        }
      ],
      "name": "execute",
      "outputs": [
        {
          "internalType": "uint256",
          "name": "",
          "type": "uint256"
        }
      ],
      "stateMutability": "payable",
      "type": "function"
    },
    {
      "inputs": [
        {
          "internalType": "uint256",
          "name": "proposalId",
          "type": "uint256"
        }
      ],
      "name": "execute",
      "outputs": [],
      "stateMutability": "payable",
      "type": "function"
    },
    {
      "inputs": [
        {
          "internalType": "uint256",
          "name": "proposalId",
          "type": "uint256"
        }
      ],
      "name": "getActions",
      "outputs": [
        {
          "internalType": "address[]",
          "name": "targets",
          "type": "address[]"
        },
        {
          "internalType": "uint256[]",
          "name": "values",
          "type": "uint256[]"
        },
        {
          "internalType": "string[]",
          "name": "signatures",
          "type": "string[]"
        },
        {
          "internalType": "bytes[]",
          "name": "calldatas",
          "type": "bytes[]"
        }
      ],
      "stateMutability": "view",
      "type": "function"
    },
    {
      "inputs": [
        {
          "internalType": "uint256",
          "name": "proposalId",
          "type": "uint256"
        },
        {
          "internalType": "address",
          "name": "voter",
          "type": "address"
        }
      ],
      "name": "getReceipt",
      "outputs": [
        {
          "components": [
            {
              "internalType": "bool",
              "name": "hasVoted",
              "type": "bool"
            },
            {
              "internalType": "uint8",
              "name": "support",
              "type": "uint8"
            },
            {
              "internalType": "uint96",
              "name": "votes",
              "type": "uint96"
            }
          ],
          "internalType": "struct IGovernorCompatibilityBravoUpgradeable.Receipt",
          "name": "",
          "type": "tuple"
        }
      ],
      "stateMutability": "view",
      "type": "function"
    },
    {
      "inputs": [
        {
          "internalType": "address",
          "name": "account",
          "type": "address"
        },
        {
          "internalType": "uint256",
          "name": "blockNumber",
          "type": "uint256"
        }
      ],
      "name": "getVotes",
      "outputs": [
        {
          "internalType": "uint256",
          "name": "",
          "type": "uint256"
        }
      ],
      "stateMutability": "view",
      "type": "function"
    },
    {
      "inputs": [
        {
          "internalType": "address",
          "name": "account",
          "type": "address"
        },
        {
          "internalType": "uint256",
          "name": "blockNumber",
          "type": "uint256"
        },
        {
          "internalType": "bytes",
          "name": "params",
          "type": "bytes"
        }
      ],
      "name": "getVotesWithParams",
      "outputs": [
        {
          "internalType": "uint256",
          "name": "",
          "type": "uint256"
        }
      ],
      "stateMutability": "view",
      "type": "function"
    },
    {
      "inputs": [
        {
          "internalType": "uint256",
          "name": "proposalId",
          "type": "uint256"
        },
        {
          "internalType": "address",
          "name": "account",
          "type": "address"
        }
      ],
      "name": "hasVoted",
      "outputs": [
        {
          "internalType": "bool",
          "name": "",
          "type": "bool"
        }
      ],
      "stateMutability": "view",
      "type": "function"
    },
    {
      "inputs": [
        {
          "internalType": "address[]",
          "name": "targets",
          "type": "address[]"
        },
        {
          "internalType": "uint256[]",
          "name": "values",
          "type": "uint256[]"
        },
        {
          "internalType": "bytes[]",
          "name": "calldatas",
          "type": "bytes[]"
        },
        {
          "internalType": "bytes32",
          "name": "descriptionHash",
          "type": "bytes32"
        }
      ],
      "name": "hashProposal",
      "outputs": [
        {
          "internalType": "uint256",
          "name": "",
          "type": "uint256"
        }
      ],
      "stateMutability": "pure",
      "type": "function"
    },
    {
      "inputs": [
        {
          "internalType": "uint256",
          "name": "govVotingDelay",
          "type": "uint256"
        },
        {
          "internalType": "uint256",
          "name": "govVotingPeriod",
          "type": "uint256"
        },
        {
          "internalType": "uint256",
          "name": "govProposalThreshold",
          "type": "uint256"
        }
      ],
      "name": "initializeV2",
      "outputs": [],
      "stateMutability": "nonpayable",
      "type": "function"
    },
    {
      "inputs": [],
      "name": "name",
      "outputs": [
        {
          "internalType": "string",
          "name": "",
          "type": "string"
        }
      ],
      "stateMutability": "view",
      "type": "function"
    },
    {
      "inputs": [
        {
          "internalType": "address",
          "name": "",
          "type": "address"
        },
        {
          "internalType": "address",
          "name": "",
          "type": "address"
        },
        {
          "internalType": "uint256[]",
          "name": "",
          "type": "uint256[]"
        },
        {
          "internalType": "uint256[]",
          "name": "",
          "type": "uint256[]"
        },
        {
          "internalType": "bytes",
          "name": "",
          "type": "bytes"
        }
      ],
      "name": "onERC1155BatchReceived",
      "outputs": [
        {
          "internalType": "bytes4",
          "name": "",
          "type": "bytes4"
        }
      ],
      "stateMutability": "nonpayable",
      "type": "function"
    },
    {
      "inputs": [
        {
          "internalType": "address",
          "name": "",
          "type": "address"
        },
        {
          "internalType": "address",
          "name": "",
          "type": "address"
        },
        {
          "internalType": "uint256",
          "name": "",
          "type": "uint256"
        },
        {
          "internalType": "uint256",
          "name": "",
          "type": "uint256"
        },
        {
          "internalType": "bytes",
          "name": "",
          "type": "bytes"
        }
      ],
      "name": "onERC1155Received",
      "outputs": [
        {
          "internalType": "bytes4",
          "name": "",
          "type": "bytes4"
        }
      ],
      "stateMutability": "nonpayable",
      "type": "function"
    },
    {
      "inputs": [
        {
          "internalType": "address",
          "name": "",
          "type": "address"
        },
        {
          "internalType": "address",
          "name": "",
          "type": "address"
        },
        {
          "internalType": "uint256",
          "name": "",
          "type": "uint256"
        },
        {
          "internalType": "bytes",
          "name": "",
          "type": "bytes"
        }
      ],
      "name": "onERC721Received",
      "outputs": [
        {
          "internalType": "bytes4",
          "name": "",
          "type": "bytes4"
        }
      ],
      "stateMutability": "nonpayable",
      "type": "function"
    },
    {
      "inputs": [
        {
          "internalType": "uint256",
          "name": "proposalId",
          "type": "uint256"
        }
      ],
      "name": "proposalDeadline",
      "outputs": [
        {
          "internalType": "uint256",
          "name": "",
          "type": "uint256"
        }
      ],
      "stateMutability": "view",
      "type": "function"
    },
    {
      "inputs": [
        {
          "internalType": "uint256",
          "name": "proposalId",
          "type": "uint256"
        }
      ],
      "name": "proposalEta",
      "outputs": [
        {
          "internalType": "uint256",
          "name": "",
          "type": "uint256"
        }
      ],
      "stateMutability": "view",
      "type": "function"
    },
    {
      "inputs": [
        {
          "internalType": "uint256",
          "name": "proposalId",
          "type": "uint256"
        }
      ],
      "name": "proposalSnapshot",
      "outputs": [
        {
          "internalType": "uint256",
          "name": "",
          "type": "uint256"
        }
      ],
      "stateMutability": "view",
      "type": "function"
    },
    {
      "inputs": [],
      "name": "proposalThreshold",
      "outputs": [
        {
          "internalType": "uint256",
          "name": "",
          "type": "uint256"
        }
      ],
      "stateMutability": "view",
      "type": "function"
    },
    {
      "inputs": [
        {
          "internalType": "uint256",
          "name": "proposalId",
          "type": "uint256"
        }
      ],
      "name": "proposals",
      "outputs": [
        {
          "internalType": "uint256",
          "name": "id",
          "type": "uint256"
        },
        {
          "internalType": "address",
          "name": "proposer",
          "type": "address"
        },
        {
          "internalType": "uint256",
          "name": "eta",
          "type": "uint256"
        },
        {
          "internalType": "uint256",
          "name": "startBlock",
          "type": "uint256"
        },
        {
          "internalType": "uint256",
          "name": "endBlock",
          "type": "uint256"
        },
        {
          "internalType": "uint256",
          "name": "forVotes",
          "type": "uint256"
        },
        {
          "internalType": "uint256",
          "name": "againstVotes",
          "type": "uint256"
        },
        {
          "internalType": "uint256",
          "name": "abstainVotes",
          "type": "uint256"
        },
        {
          "internalType": "bool",
          "name": "canceled",
          "type": "bool"
        },
        {
          "internalType": "bool",
          "name": "executed",
          "type": "bool"
        }
      ],
      "stateMutability": "view",
      "type": "function"
    },
    {
      "inputs": [
        {
          "internalType": "address[]",
          "name": "targets",
          "type": "address[]"
        },
        {
          "internalType": "uint256[]",
          "name": "values",
          "type": "uint256[]"
        },
        {
          "internalType": "bytes[]",
          "name": "calldatas",
          "type": "bytes[]"
        },
        {
          "internalType": "string",
          "name": "description",
          "type": "string"
        }
      ],
      "name": "propose",
      "outputs": [
        {
          "internalType": "uint256",
          "name": "",
          "type": "uint256"
        }
      ],
      "stateMutability": "nonpayable",
      "type": "function"
    },
    {
      "inputs": [
        {
          "internalType": "address[]",
          "name": "targets",
          "type": "address[]"
        },
        {
          "internalType": "uint256[]",
          "name": "values",
          "type": "uint256[]"
        },
        {
          "internalType": "string[]",
          "name": "signatures",
          "type": "string[]"
        },
        {
          "internalType": "bytes[]",
          "name": "calldatas",
          "type": "bytes[]"
        },
        {
          "internalType": "string",
          "name": "description",
          "type": "string"
        }
      ],
      "name": "propose",
      "outputs": [
        {
          "internalType": "uint256",
          "name": "",
          "type": "uint256"
        }
      ],
      "stateMutability": "nonpayable",
      "type": "function"
    },
    {
      "inputs": [
        {
          "internalType": "address[]",
          "name": "targets",
          "type": "address[]"
        },
        {
          "internalType": "uint256[]",
          "name": "values",
          "type": "uint256[]"
        },
        {
          "internalType": "bytes[]",
          "name": "calldatas",
          "type": "bytes[]"
        },
        {
          "internalType": "bytes32",
          "name": "descriptionHash",
          "type": "bytes32"
        }
      ],
      "name": "queue",
      "outputs": [
        {
          "internalType": "uint256",
          "name": "",
          "type": "uint256"
        }
      ],
      "stateMutability": "nonpayable",
      "type": "function"
    },
    {
      "inputs": [
        {
          "internalType": "uint256",
          "name": "proposalId",
          "type": "uint256"
        }
      ],
      "name": "queue",
      "outputs": [],
      "stateMutability": "nonpayable",
      "type": "function"
    },
    {
      "inputs": [
        {
          "internalType": "uint256",
          "name": "blockNumber",
          "type": "uint256"
        }
      ],
      "name": "quorum",
      "outputs": [
        {
          "internalType": "uint256",
          "name": "",
          "type": "uint256"
        }
      ],
      "stateMutability": "view",
      "type": "function"
    },
    {
      "inputs": [],
      "name": "quorumDenominator",
      "outputs": [
        {
          "internalType": "uint256",
          "name": "",
          "type": "uint256"
        }
      ],
      "stateMutability": "view",
      "type": "function"
    },
    {
      "inputs": [
        {
          "internalType": "uint256",
          "name": "blockNumber",
          "type": "uint256"
        }
      ],
      "name": "quorumNumerator",
      "outputs": [
        {
          "internalType": "uint256",
          "name": "",
          "type": "uint256"
        }
      ],
      "stateMutability": "view",
      "type": "function"
    },
    {
      "inputs": [],
      "name": "quorumNumerator",
      "outputs": [
        {
          "internalType": "uint256",
          "name": "",
          "type": "uint256"
        }
      ],
      "stateMutability": "view",
      "type": "function"
    },
    {
      "inputs": [],
      "name": "quorumVotes",
      "outputs": [
        {
          "internalType": "uint256",
          "name": "",
          "type": "uint256"
        }
      ],
      "stateMutability": "view",
      "type": "function"
    },
    {
      "inputs": [
        {
          "internalType": "address",
          "name": "target",
          "type": "address"
        },
        {
          "internalType": "uint256",
          "name": "value",
          "type": "uint256"
        },
        {
          "internalType": "bytes",
          "name": "data",
          "type": "bytes"
        }
      ],
      "name": "relay",
      "outputs": [],
      "stateMutability": "payable",
      "type": "function"
    },
    {
      "inputs": [
        {
          "internalType": "uint256",
          "name": "newProposalThreshold",
          "type": "uint256"
        }
      ],
      "name": "setProposalThreshold",
      "outputs": [],
      "stateMutability": "nonpayable",
      "type": "function"
    },
    {
      "inputs": [
        {
          "internalType": "uint256",
          "name": "newVotingDelay",
          "type": "uint256"
        }
      ],
      "name": "setVotingDelay",
      "outputs": [],
      "stateMutability": "nonpayable",
      "type": "function"
    },
    {
      "inputs": [
        {
          "internalType": "uint256",
          "name": "newVotingPeriod",
          "type": "uint256"
        }
      ],
      "name": "setVotingPeriod",
      "outputs": [],
      "stateMutability": "nonpayable",
      "type": "function"
    },
    {
      "inputs": [
        {
          "internalType": "uint256",
          "name": "proposalId",
          "type": "uint256"
        }
      ],
      "name": "state",
      "outputs": [
        {
          "internalType": "enum IGovernorUpgradeable.ProposalState",
          "name": "",
          "type": "uint8"
        }
      ],
      "stateMutability": "view",
      "type": "function"
    },
    {
      "inputs": [
        {
          "internalType": "bytes4",
          "name": "interfaceId",
          "type": "bytes4"
        }
      ],
      "name": "supportsInterface",
      "outputs": [
        {
          "internalType": "bool",
          "name": "",
          "type": "bool"
        }
      ],
      "stateMutability": "view",
      "type": "function"
    },
    {
      "inputs": [],
      "name": "timelock",
      "outputs": [
        {
          "internalType": "address",
          "name": "",
          "type": "address"
        }
      ],
      "stateMutability": "view",
      "type": "function"
    },
    {
      "inputs": [],
      "name": "token",
      "outputs": [
        {
          "internalType": "contract IVotesUpgradeable",
          "name": "",
          "type": "address"
        }
      ],
      "stateMutability": "view",
      "type": "function"
    },
    {
      "inputs": [
        {
          "internalType": "uint256",
          "name": "newQuorumNumerator",
          "type": "uint256"
        }
      ],
      "name": "updateQuorumNumerator",
      "outputs": [],
      "stateMutability": "nonpayable",
      "type": "function"
    },
    {
      "inputs": [
        {
          "internalType": "contract TimelockControllerUpgradeable",
          "name": "newTimelock",
          "type": "address"
        }
      ],
      "name": "updateTimelock",
      "outputs": [],
      "stateMutability": "nonpayable",
      "type": "function"
    },
    {
      "inputs": [],
      "name": "version",
      "outputs": [
        {
          "internalType": "string",
          "name": "",
          "type": "string"
        }
      ],
      "stateMutability": "view",
      "type": "function"
    },
    {
      "inputs": [],
      "name": "votingDelay",
      "outputs": [
        {
          "internalType": "uint256",
          "name": "",
          "type": "uint256"
        }
      ],
      "stateMutability": "view",
      "type": "function"
    },
    {
      "inputs": [],
      "name": "votingPeriod",
      "outputs": [
        {
          "internalType": "uint256",
          "name": "",
          "type": "uint256"
        }
      ],
      "stateMutability": "view",
      "type": "function"
    },
    {
      "stateMutability": "payable",
      "type": "receive"
    }
  ],
  "bytecode": "0x60806040523480156200001157600080fd5b506200001c62000022565b620000e4565b600054610100900460ff16156200008f5760405162461bcd60e51b815260206004820152602760248201527f496e697469616c697a61626c653a20636f6e747261637420697320696e697469604482015266616c697a696e6760c81b606482015260840160405180910390fd5b60005460ff9081161015620000e2576000805460ff191660ff9081179091556040519081527f7f26b83ff96e1f2b6a682f133852f6798a09c465da95921460cefb38474024989060200160405180910390a15b565b61572280620000f46000396000f3fe6080604052600436106103435760003560e01c80637d5e81e2116101b0578063da95691a116100ec578063ea0217cf11610095578063f23a6e611161006f578063f23a6e6114610b53578063f8ce560a14610b98578063fc0c546a14610bb8578063fe0d94c114610bd957600080fd5b8063ea0217cf14610af3578063eb9019d414610b13578063ece40cc114610b3357600080fd5b8063deaaa7cc116100c6578063deaaa7cc146109d3578063e23a9a5214610a07578063e4cdd80e14610adc57600080fd5b8063da95691a1461094d578063dd4e2ba51461096d578063ddf0b009146109b357600080fd5b8063ab58fb8e11610159578063c01f9e3711610133578063c01f9e37146108c7578063c28bc2fa146108e7578063c59057e4146108fa578063d33219b41461091a57600080fd5b8063ab58fb8e1461084c578063b58131b01461086c578063bc197c811461088257600080fd5b80639a802a6d1161018a5780639a802a6d146107f7578063a7713a7014610817578063a890c9101461082c57600080fd5b80637d5e81e2146107ac5780639199907a146107cc57806397c3d334146107e357600080fd5b80633932abb11161027f578063567813881161022857806360c4247f1161020257806360c4247f146107355780636e3827b71461075557806370b0f6601461076c5780637b3c71d31461078c57600080fd5b806356781388146106d557806356af9efa146106f55780635f398a141461071557600080fd5b806340e58ee51161025957806340e58ee514610624578063438596321461064457806354fd4d501461068f57600080fd5b80633932abb1146105c15780633bccf4fd146105d75780633e4f49e6146105f757600080fd5b8063150b7a02116102ec5780632656227d116102c65780632656227d1461052a5780632d63f6931461053d5780632fe3e2611461055d578063328dd9821461059157600080fd5b8063150b7a0214610498578063160cbed7146104f557806324bc1a641461051557600080fd5b8063034201811161031d578063034201811461043657806306f3f9e61461045657806306fdde031461047657600080fd5b8063013cf08b1461036b57806301ffc9a7146103e657806302a251a31461041657600080fd5b366103665730610351610bec565b6001600160a01b03161461036457600080fd5b005b600080fd5b34801561037757600080fd5b5061038b610386366004614790565b610c06565b604080519a8b526001600160a01b0390991660208b0152978901969096526060880194909452608087019290925260a086015260c085015260e084015215156101008301521515610120820152610140015b60405180910390f35b3480156103f257600080fd5b506104066104013660046147a9565b610cb0565b60405190151581526020016103dd565b34801561042257600080fd5b5061022b545b6040519081526020016103dd565b34801561044257600080fd5b506104286104513660046148e2565b610cc1565b34801561046257600080fd5b50610364610471366004614790565b610db9565b34801561048257600080fd5b5061048b610e7e565b6040516103dd91906149e5565b3480156104a457600080fd5b506104dc6104b3366004614a0d565b7f150b7a0200000000000000000000000000000000000000000000000000000000949350505050565b6040516001600160e01b031990911681526020016103dd565b34801561050157600080fd5b50610428610510366004614bec565b610f11565b34801561052157600080fd5b506104286111b9565b610428610538366004614bec565b6111c9565b34801561054957600080fd5b50610428610558366004614790565b6112f6565b34801561056957600080fd5b506104287fb3b3f3b703cd84ce352197dcff232b1b5d3cfb2025ce47cf04742d0651f1af8881565b34801561059d57600080fd5b506105b16105ac366004614790565b611330565b6040516103dd9493929190614d45565b3480156105cd57600080fd5b5061022a54610428565b3480156105e357600080fd5b506104286105f2366004614d92565b6115c2565b34801561060357600080fd5b50610617610612366004614790565b611638565b6040516103dd9190614df6565b34801561063057600080fd5b5061036461063f366004614790565b611643565b34801561065057600080fd5b5061040661065f366004614e1e565b6000828152610161602090815260408083206001600160a01b038516845260080190915290205460ff1692915050565b34801561069b57600080fd5b5060408051808201909152600181527f3100000000000000000000000000000000000000000000000000000000000000602082015261048b565b3480156106e157600080fd5b506104286106f0366004614e4e565b61196e565b34801561070157600080fd5b50610364610710366004614e7a565b611997565b34801561072157600080fd5b50610428610730366004614ea6565b611aa1565b34801561074157600080fd5b50610428610750366004614790565b611aeb565b34801561076157600080fd5b5061042861022c5481565b34801561077857600080fd5b50610364610787366004614790565b611b85565b34801561079857600080fd5b506104286107a7366004614f2a565b611c42565b3480156107b857600080fd5b506104286107c7366004614f84565b611c94565b3480156107d857600080fd5b5061042861022b5481565b3480156107ef57600080fd5b506064610428565b34801561080357600080fd5b50610428610812366004615025565b611cab565b34801561082357600080fd5b50610428611cc2565b34801561083857600080fd5b5061036461084736600461507e565b611cef565b34801561085857600080fd5b50610428610867366004614790565b611dac565b34801561087857600080fd5b5061022c54610428565b34801561088e57600080fd5b506104dc61089d36600461509b565b7fbc197c810000000000000000000000000000000000000000000000000000000095945050505050565b3480156108d357600080fd5b506104286108e2366004614790565b611e70565b6103646108f536600461512f565b611ea1565b34801561090657600080fd5b50610428610915366004614bec565b611fe6565b34801561092657600080fd5b506101f8546001600160a01b03165b6040516001600160a01b0390911681526020016103dd565b34801561095957600080fd5b506104286109683660046151f3565b612020565b34801561097957600080fd5b5060408051808201909152601a81527f737570706f72743d627261766f2671756f72756d3d627261766f000000000000602082015261048b565b3480156109bf57600080fd5b506103646109ce366004614790565b612045565b3480156109df57600080fd5b506104287f150214d74d59b7d1e90c73fc22ef3d991dd0a76b046543d4d80ab92d2a50328f81565b348015610a1357600080fd5b50610aa7610a22366004614e1e565b6040805160608101825260008082526020820181905291810191909152506000918252610161602090815260408084206001600160a01b0393909316845260089092018152918190208151606081018352905460ff8082161515835261010082041693820193909352620100009092046bffffffffffffffffffffffff169082015290565b6040805182511515815260208084015160ff1690820152918101516bffffffffffffffffffffffff16908201526060016103dd565b348015610ae857600080fd5b5061042861022a5481565b348015610aff57600080fd5b50610364610b0e366004614790565b6122b4565b348015610b1f57600080fd5b50610428610b2e366004615295565b612371565b348015610b3f57600080fd5b50610364610b4e366004614790565b612392565b348015610b5f57600080fd5b506104dc610b6e3660046152c1565b7ff23a6e610000000000000000000000000000000000000000000000000000000095945050505050565b348015610ba457600080fd5b50610428610bb3366004614790565b61244f565b348015610bc457600080fd5b5061019354610935906001600160a01b031681565b610364610be7366004614790565b612506565b6000610c016101f8546001600160a01b031690565b905090565b8060008080808080808080610c1a8a611dac565b9750610c258b6112f6565b9650610c308b611e70565b60008c81526101616020526040812080546005820154600683015460078401546001600160a01b039093169e50949a509850929650919450610c718d611638565b90506002816007811115610c8757610c87614de0565b1493506007816007811115610c9e57610c9e614de0565b14925050509193959799509193959799565b6000610cbb82612775565b92915050565b600080610d65610d5d7fb3b3f3b703cd84ce352197dcff232b1b5d3cfb2025ce47cf04742d0651f1af888c8c8c8c604051610cfd92919061532a565b60405180910390208b80519060200120604051602001610d42959493929190948552602085019390935260ff9190911660408401526060830152608082015260a00190565b604051602081830303815290604052805190602001206127b3565b86868661281c565b9050610dab8a828b8b8b8080601f0160208091040260200160405190810160405280939291908181526020018383808284376000920191909152508d925061283a915050565b9a9950505050505050505050565b610dc1610bec565b6001600160a01b0316336001600160a01b031614610e265760405162461bcd60e51b815260206004820152601860248201527f476f7665726e6f723a206f6e6c79476f7665726e616e6365000000000000000060448201526064015b60405180910390fd5b30610e2f610bec565b6001600160a01b031614610e725760008036604051610e4f92919061532a565b604051809103902090505b80610e666101316129b7565b14610e7057610e5a565b505b610e7b81612a67565b50565b606061012f8054610e8e9061533a565b80601f0160208091040260200160405190810160405280929190818152602001828054610eba9061533a565b8015610f075780601f10610edc57610100808354040283529160200191610f07565b820191906000526020600020905b815481529060010190602001808311610eea57829003601f168201915b5050505050905090565b600080610f2086868686611fe6565b90506004610f2d82611638565b6007811115610f3e57610f3e614de0565b14610f955760405162461bcd60e51b815260206004820152602160248201527f476f7665726e6f723a2070726f706f73616c206e6f74207375636365737366756044820152601b60fa1b6064820152608401610e1d565b6101f854604080517ff27a0c9200000000000000000000000000000000000000000000000000000000815290516000926001600160a01b03169163f27a0c92916004808301926020929190829003018186803b158015610ff457600080fd5b505afa158015611008573d6000803e3d6000fd5b505050506040513d601f19601f8201168201806040525081019061102c9190615375565b6101f8546040517fb1c5f4270000000000000000000000000000000000000000000000000000000081529192506001600160a01b03169063b1c5f42790611080908a908a908a906000908b9060040161538e565b60206040518083038186803b15801561109857600080fd5b505afa1580156110ac573d6000803e3d6000fd5b505050506040513d601f19601f820116820180604052508101906110d09190615375565b60008381526101f96020526040808220929092556101f85491517f8f2a0bb00000000000000000000000000000000000000000000000000000000081526001600160a01b0390921691638f2a0bb091611136918b918b918b91908b9089906004016153dc565b600060405180830381600087803b15801561115057600080fd5b505af1158015611164573d6000803e3d6000fd5b505050507f9a2e42fd6722813d69113e7d0079d3d940171428df7373df9c7f7617cfda2892828242611196919061544a565b604080519283526020830191909152015b60405180910390a15095945050505050565b6000610c01610bb3600143615462565b6000806111d886868686611fe6565b905060006111e582611638565b905060048160078111156111fb576111fb614de0565b14806112185750600581600781111561121657611216614de0565b145b61126e5760405162461bcd60e51b815260206004820152602160248201527f476f7665726e6f723a2070726f706f73616c206e6f74207375636365737366756044820152601b60fa1b6064820152608401610e1d565b6000828152610130602052604090819020600201805460ff19166001179055517f712ae1383f79ac853f8d882153778e0260ef8f03b504e2866e0593e04d2b291f906112bd9084815260200190565b60405180910390a16112d28288888888612bd1565b6112df8288888888612c75565b6112ec8288888888612c82565b5095945050505050565b60008181526101306020908152604080832081519283019091525467ffffffffffffffff16908190525b67ffffffffffffffff1692915050565b60608060608060006101616000878152602001908152602001600020905080600101816002018260030183600401838054806020026020016040519081016040528092919081815260200182805480156113b357602002820191906000526020600020905b81546001600160a01b03168152600190910190602001808311611395575b505050505093508280548060200260200160405190810160405280929190818152602001828054801561140557602002820191906000526020600020905b8154815260200190600101908083116113f1575b5050505050925081805480602002602001604051908101604052809291908181526020016000905b828210156114d957838290600052602060002001805461144c9061533a565b80601f01602080910402602001604051908101604052809291908181526020018280546114789061533a565b80156114c55780601f1061149a576101008083540402835291602001916114c5565b820191906000526020600020905b8154815290600101906020018083116114a857829003601f168201915b50505050508152602001906001019061142d565b50505050915080805480602002602001604051908101604052809291908181526020016000905b828210156115ac57838290600052602060002001805461151f9061533a565b80601f016020809104026020016040519081016040528092919081815260200182805461154b9061533a565b80156115985780601f1061156d57610100808354040283529160200191611598565b820191906000526020600020905b81548152906001019060200180831161157b57829003601f168201915b505050505081526020019060010190611500565b5050505090509450945094509450509193509193565b604080517f150214d74d59b7d1e90c73fc22ef3d991dd0a76b046543d4d80ab92d2a50328f602082015290810186905260ff85166060820152600090819061161090610d5d90608001610d42565b905061162d87828860405180602001604052806000815250612cbd565b979650505050505050565b6000610cbb82612ce0565b60008181526101616020526040902080546001600160a01b0316336001600160a01b0316148061168e575061022c54815461168c906001600160a01b0316610b2e600143615462565b105b6117005760405162461bcd60e51b815260206004820152602760248201527f476f7665726e6f72427261766f3a2070726f706f7365722061626f766520746860448201527f726573686f6c64000000000000000000000000000000000000000000000000006064820152608401610e1d565b6119698160010180548060200260200160405190810160405280929190818152602001828054801561175b57602002820191906000526020600020905b81546001600160a01b0316815260019091019060200180831161173d575b5050505050826002018054806020026020016040519081016040528092919081815260200182805480156117ae57602002820191906000526020600020905b81548152602001906001019080831161179a575b505050505061195f84600301805480602002602001604051908101604052809291908181526020016000905b828210156118865783829060005260206000200180546117f99061533a565b80601f01602080910402602001604051908101604052809291908181526020018280546118259061533a565b80156118725780601f1061184757610100808354040283529160200191611872565b820191906000526020600020905b81548152906001019060200180831161185557829003601f168201915b5050505050815260200190600101906117da565b50505060048701805460408051602080840282018101909252828152935060009084015b828210156119565783829060005260206000200180546118c99061533a565b80601f01602080910402602001604051908101604052809291908181526020018280546118f59061533a565b80156119425780601f1061191757610100808354040283529160200191611942565b820191906000526020600020905b81548152906001019060200180831161192557829003601f168201915b5050505050815260200190600101906118aa565b50505050612e7d565b8460090154612fb0565b505050565b60008033905061198f84828560405180602001604052806000815250612cbd565b949350505050565b600054600290610100900460ff161580156119b9575060005460ff8083169116105b611a2b5760405162461bcd60e51b815260206004820152602e60248201527f496e697469616c697a61626c653a20636f6e747261637420697320616c72656160448201527f647920696e697469616c697a65640000000000000000000000000000000000006064820152608401610e1d565b6000805461ffff191660ff831617610100179055611a4884612fbe565b611a5183613001565b611a5a82613091565b6000805461ff001916905560405160ff821681527f7f26b83ff96e1f2b6a682f133852f6798a09c465da95921460cefb38474024989060200160405180910390a150505050565b60008033905061162d87828888888080601f0160208091040260200160405190810160405280939291908181526020018383808284376000920191909152508a925061283a915050565b6101c75460009080611b025750506101c654919050565b60006101c7611b12600184615462565b81548110611b2257611b22615479565b60009182526020918290206040805180820190915291015463ffffffff81168083526401000000009091046001600160e01b03169282019290925291508410611b7957602001516001600160e01b03169392505050565b61198f6101c7856130d4565b611b8d610bec565b6001600160a01b0316336001600160a01b031614611bed5760405162461bcd60e51b815260206004820152601860248201527f476f7665726e6f723a206f6e6c79476f7665726e616e636500000000000000006044820152606401610e1d565b30611bf6610bec565b6001600160a01b031614611c395760008036604051611c1692919061532a565b604051809103902090505b80611c2d6101316129b7565b14611c3757611c21565b505b610e7b81612fbe565b600080339050611c8a86828787878080601f016020809104026020016040519081016040528093929190818152602001838380828437600092019190915250612cbd92505050565b9695505050505050565b6000611ca285858585613195565b95945050505050565b6000611cb88484846131fe565b90505b9392505050565b6101c75460009015611ce757611cd96101c761329d565b6001600160e01b0316905090565b506101c65490565b611cf7610bec565b6001600160a01b0316336001600160a01b031614611d575760405162461bcd60e51b815260206004820152601860248201527f476f7665726e6f723a206f6e6c79476f7665726e616e636500000000000000006044820152606401610e1d565b30611d60610bec565b6001600160a01b031614611da35760008036604051611d8092919061532a565b604051809103902090505b80611d976101316129b7565b14611da157611d8b565b505b610e7b816132ce565b6101f85460008281526101f960205260408082205490517fd45c44350000000000000000000000000000000000000000000000000000000081526004810191909152909182916001600160a01b039091169063d45c44359060240160206040518083038186803b158015611e1f57600080fd5b505afa158015611e33573d6000803e3d6000fd5b505050506040513d601f19601f82011682018060405250810190611e579190615375565b905080600114611e675780611cbb565b60009392505050565b60008181526101306020908152604080832081519283019091526001015467ffffffffffffffff1690819052611320565b611ea9610bec565b6001600160a01b0316336001600160a01b031614611f095760405162461bcd60e51b815260206004820152601860248201527f476f7665726e6f723a206f6e6c79476f7665726e616e636500000000000000006044820152606401610e1d565b30611f12610bec565b6001600160a01b031614611f555760008036604051611f3292919061532a565b604051809103902090505b80611f496101316129b7565b14611f5357611f3d565b505b600080856001600160a01b0316858585604051611f7392919061532a565b60006040518083038185875af1925050503d8060008114611fb0576040519150601f19603f3d011682016040523d82523d6000602084013e611fb5565b606091505b5091509150611fdd82826040518060600160405280602881526020016156c560289139613346565b50505050505050565b600084848484604051602001611fff949392919061548f565b60408051601f19818403018152919052805160209091012095945050505050565b600061203033878787878761335f565b611c8a868661203f8787612e7d565b85611c94565b600081815261016160209081526040918290206001810180548451818502810185019095528085529193611969939092908301828280156120af57602002820191906000526020600020905b81546001600160a01b03168152600190910190602001808311612091575b50505050508260020180548060200260200160405190810160405280929190818152602001828054801561210257602002820191906000526020600020905b8154815260200190600101908083116120ee575b50505050506122aa84600301805480602002602001604051908101604052809291908181526020016000905b828210156121da57838290600052602060002001805461214d9061533a565b80601f01602080910402602001604051908101604052809291908181526020018280546121799061533a565b80156121c65780601f1061219b576101008083540402835291602001916121c6565b820191906000526020600020905b8154815290600101906020018083116121a957829003601f168201915b50505050508152602001906001019061212e565b50505060048701805460408051602080840282018101909252828152935060009084015b8282101561195657838290600052602060002001805461221d9061533a565b80601f01602080910402602001604051908101604052809291908181526020018280546122499061533a565b80156122965780601f1061226b57610100808354040283529160200191612296565b820191906000526020600020905b81548152906001019060200180831161227957829003601f168201915b5050505050815260200190600101906121fe565b8460090154610f11565b6122bc610bec565b6001600160a01b0316336001600160a01b03161461231c5760405162461bcd60e51b815260206004820152601860248201527f476f7665726e6f723a206f6e6c79476f7665726e616e636500000000000000006044820152606401610e1d565b30612325610bec565b6001600160a01b031614612368576000803660405161234592919061532a565b604051809103902090505b8061235c6101316129b7565b1461236657612350565b505b610e7b81613001565b6000611cbb838361238d60408051602081019091526000815290565b6131fe565b61239a610bec565b6001600160a01b0316336001600160a01b0316146123fa5760405162461bcd60e51b815260206004820152601860248201527f476f7665726e6f723a206f6e6c79476f7665726e616e636500000000000000006044820152606401610e1d565b30612403610bec565b6001600160a01b031614612446576000803660405161242392919061532a565b604051809103902090505b8061243a6101316129b7565b146124445761242e565b505b610e7b81613091565b6000606461245c83611aeb565b610193546040517f8e539e8c000000000000000000000000000000000000000000000000000000008152600481018690526001600160a01b0390911690638e539e8c9060240160206040518083038186803b1580156124ba57600080fd5b505afa1580156124ce573d6000803e3d6000fd5b505050506040513d601f19601f820116820180604052508101906124f29190615375565b6124fc91906154da565b610cbb91906154f9565b6000818152610161602090815260409182902060018101805484518185028101850190955280855291936119699390929083018282801561257057602002820191906000526020600020905b81546001600160a01b03168152600190910190602001808311612552575b5050505050826002018054806020026020016040519081016040528092919081815260200182805480156125c357602002820191906000526020600020905b8154815260200190600101908083116125af575b505050505061276b84600301805480602002602001604051908101604052809291908181526020016000905b8282101561269b57838290600052602060002001805461260e9061533a565b80601f016020809104026020016040519081016040528092919081815260200182805461263a9061533a565b80156126875780601f1061265c57610100808354040283529160200191612687565b820191906000526020600020905b81548152906001019060200180831161266a57829003601f168201915b5050505050815260200190600101906125ef565b50505060048701805460408051602080840282018101909252828152935060009084015b828210156119565783829060005260206000200180546126de9061533a565b80601f016020809104026020016040519081016040528092919081815260200182805461270a9061533a565b80156127575780601f1061272c57610100808354040283529160200191612757565b820191906000526020600020905b81548152906001019060200180831161273a57829003601f168201915b5050505050815260200190600101906126bf565b84600901546111c9565b60006001600160e01b031982167f6e665ced000000000000000000000000000000000000000000000000000000001480610cbb5750610cbb8261342a565b6000610cbb6127c06134f9565b836040517f19010000000000000000000000000000000000000000000000000000000000006020820152602281018390526042810182905260009060620160405160208183030381529060405280519060200120905092915050565b600080600061282d87878787613574565b915091506112ec81613638565b600085815261013060205260408120600161285488611638565b600781111561286557612865614de0565b146128d85760405162461bcd60e51b815260206004820152602360248201527f476f7665726e6f723a20766f7465206e6f742063757272656e746c792061637460448201527f69766500000000000000000000000000000000000000000000000000000000006064820152608401610e1d565b6040805160208101909152815467ffffffffffffffff1690819052600090612902908890866131fe565b905061291188888884886137a1565b835161296357866001600160a01b03167fb8e138887d0aa13bab447e82de9d5c1777041ecd21ca36ba824ff1e6c07ddda489888489604051612956949392919061551b565b60405180910390a261162d565b866001600160a01b03167fe2babfbac5889a709b63bb7f598b324e08bc5a4fb9ec647fb3cbc9ec07eb871289888489896040516129a4959493929190615543565b60405180910390a2979650505050505050565b60006129d28254600f81810b600160801b909204900b131590565b15612a09576040517f3db2a12a00000000000000000000000000000000000000000000000000000000815260040160405180910390fd5b508054600f0b6000818152600180840160205260408220805492905583547fffffffffffffffffffffffffffffffff000000000000000000000000000000001692016fffffffffffffffffffffffffffffffff169190911790915590565b6064811115612b045760405162461bcd60e51b815260206004820152604360248201527f476f7665726e6f72566f74657351756f72756d4672616374696f6e3a2071756f60448201527f72756d4e756d657261746f72206f7665722071756f72756d44656e6f6d696e6160648201527f746f720000000000000000000000000000000000000000000000000000000000608482015260a401610e1d565b6000612b0e611cc2565b90508015801590612b2057506101c754155b15612b865760408051808201909152600081526101c79060208101612b4484613964565b6001600160e01b0390811690915282546001810184556000938452602093849020835194909301519091166401000000000263ffffffff909316929092179101555b612b926101c7836139e7565b505060408051828152602081018490527f0553476bf02ef2726e8ce5ced78d63e26e602e4a2257b1f559418e24b4633997910160405180910390a15050565b30612bda610bec565b6001600160a01b031614612c6e5760005b8451811015612c6c57306001600160a01b0316858281518110612c1057612c10615479565b60200260200101516001600160a01b03161415612c5c57612c5c838281518110612c3c57612c3c615479565b602002602001015180519060200120610131613a1d90919063ffffffff16565b612c6581615589565b9050612beb565b505b5050505050565b612c6e8585858585613a62565b30612c8b610bec565b6001600160a01b031614612c6e5761013154600f81810b600160801b909204900b1315612c6e57600061013155612c6e565b6000611ca285858585612cdb60408051602081019091526000815290565b61283a565b600080612cec83613af0565b90506004816007811115612d0257612d02614de0565b14612d0d5792915050565b60008381526101f9602052604090205480612d29575092915050565b6101f8546040517f2ab0f529000000000000000000000000000000000000000000000000000000008152600481018390526001600160a01b0390911690632ab0f5299060240160206040518083038186803b158015612d8757600080fd5b505afa158015612d9b573d6000803e3d6000fd5b505050506040513d601f19601f82011682018060405250810190612dbf91906155a4565b15612dce575060079392505050565b6101f8546040517f584b153e000000000000000000000000000000000000000000000000000000008152600481018390526001600160a01b039091169063584b153e9060240160206040518083038186803b158015612e2c57600080fd5b505afa158015612e40573d6000803e3d6000fd5b505050506040513d601f19601f82011682018060405250810190612e6491906155a4565b15612e73575060059392505050565b5060029392505050565b60606000825167ffffffffffffffff811115612e9b57612e9b61482b565b604051908082528060200260200182016040528015612ece57816020015b6060815260200190600190039081612eb95790505b50905060005b8451811015612fa857848181518110612eef57612eef615479565b602002602001015151600014612f5f57848181518110612f1157612f11615479565b602002602001015180519060200120848281518110612f3257612f32615479565b6020026020010151604051602001612f4b9291906155c6565b604051602081830303815290604052612f7a565b838181518110612f7157612f71615479565b60200260200101515b828281518110612f8c57612f8c615479565b602002602001018190525080612fa190615589565b9050612ed4565b509392505050565b6000611ca285858585613c01565b61022a5460408051918252602082018390527fc565b045403dc03c2eea82b81a0465edad9e2e7fc4d97e11421c209da93d7a93910160405180910390a161022a55565b8061304e5760405162461bcd60e51b815260206004820152601e60248201527f474f5645524e4f525f494e56414c49445f564f54494e475f504552494f4400006044820152606401610e1d565b61022b5460408051918252602082018390527f7e3f7f0708a84de9203036abaa450dccc85ad5ff52f78c170f3edb55cf5e8828910160405180910390a161022b55565b61022c5460408051918252602082018390527fccb45da8d5717e6c4544694297c4ba5cf151d455c9bb0ed4fc7a38411bc05461910160405180910390a161022c55565b60004382106131255760405162461bcd60e51b815260206004820181905260248201527f436865636b706f696e74733a20626c6f636b206e6f7420796574206d696e65646044820152606401610e1d565b600061313083613cd0565b8454909150600061314386848385613d4c565b9050801561317f576131688661315a600184615462565b600091825260209091200190565b5464010000000090046001600160e01b0316613182565b60005b6001600160e01b03169695505050505050565b60006131f2338686865167ffffffffffffffff8111156131b7576131b761482b565b6040519080825280602002602001820160405280156131ea57816020015b60608152602001906001900390816131d55790505b50878761335f565b611ca285858585613da2565b610193546040517f3a46b1a80000000000000000000000000000000000000000000000000000000081526001600160a01b038581166004830152602482018590526000921690633a46b1a89060440160206040518083038186803b15801561326557600080fd5b505afa158015613279573d6000803e3d6000fd5b505050506040513d601f19601f82011682018060405250810190611cb89190615375565b80546000908015611e67576132b78361315a600184615462565b5464010000000090046001600160e01b0316611cbb565b6101f854604080516001600160a01b03928316815291831660208301527f08f74ea46ef7894f65eabfb5e6e695de773a000b47c529ab559178069b226401910160405180910390a16101f8805473ffffffffffffffffffffffffffffffffffffffff19166001600160a01b0392909216919091179055565b60608315613355575081611cbb565b611cbb838361410c565b80516020820120600061337d87876133778888612e7d565b85611fe6565b60008181526101616020526040902060098101549192509061341f57805473ffffffffffffffffffffffffffffffffffffffff19166001600160a01b038a1617815587516133d490600183019060208b0190614539565b5086516133ea90600283019060208a01906145a7565b50855161340090600383019060208901906145e2565b508451613416906004830190602088019061463b565b50600981018390555b505050505050505050565b60006001600160e01b031982167fbf26d89700000000000000000000000000000000000000000000000000000000148061348d57506001600160e01b031982167f79dd796f00000000000000000000000000000000000000000000000000000000145b806134c157506001600160e01b031982167f4e2312e000000000000000000000000000000000000000000000000000000000145b80610cbb57507f01ffc9a7000000000000000000000000000000000000000000000000000000006001600160e01b0319831614610cbb565b6000610c017f8b73c3c69bb8fe3d512ecc4cf759cc79239f7b179b0ffacaa9a75d522b39400f61352860655490565b6066546040805160208101859052908101839052606081018290524660808201523060a082015260009060c0016040516020818303038152906040528051906020012090509392505050565b6000807f7fffffffffffffffffffffffffffffff5d576e7357a4501ddfe92f46681b20a08311156135ab575060009050600361362f565b6040805160008082526020820180845289905260ff881692820192909252606081018690526080810185905260019060a0016020604051602081039080840390855afa1580156135ff573d6000803e3d6000fd5b5050604051601f1901519150506001600160a01b0381166136285760006001925092505061362f565b9150600090505b94509492505050565b600081600481111561364c5761364c614de0565b14156136555750565b600181600481111561366957613669614de0565b14156136b75760405162461bcd60e51b815260206004820152601860248201527f45434453413a20696e76616c6964207369676e617475726500000000000000006044820152606401610e1d565b60028160048111156136cb576136cb614de0565b14156137195760405162461bcd60e51b815260206004820152601f60248201527f45434453413a20696e76616c6964207369676e6174757265206c656e677468006044820152606401610e1d565b600381600481111561372d5761372d614de0565b1415610e7b5760405162461bcd60e51b815260206004820152602260248201527f45434453413a20696e76616c6964207369676e6174757265202773272076616c60448201527f75650000000000000000000000000000000000000000000000000000000000006064820152608401610e1d565b6000858152610161602090815260408083206001600160a01b038816845260088101909252909120805460ff16156138415760405162461bcd60e51b815260206004820152602d60248201527f476f7665726e6f72436f6d7061746962696c697479427261766f3a20766f746560448201527f20616c72656164792063617374000000000000000000000000000000000000006064820152608401610e1d565b805460ff86166101000261ffff1990911617600117815561386184614136565b81546bffffffffffffffffffffffff9190911662010000026dffffffffffffffffffffffff00001990911617815560ff85166138b657838260060160008282546138ab919061544a565b90915550611fdd9050565b60ff8516600114156138d657838260050160008282546138ab919061544a565b60ff8516600214156138f657838260070160008282546138ab919061544a565b60405162461bcd60e51b815260206004820152602d60248201527f476f7665726e6f72436f6d7061746962696c697479427261766f3a20696e766160448201527f6c696420766f74652074797065000000000000000000000000000000000000006064820152608401610e1d565b60006001600160e01b038211156139e35760405162461bcd60e51b815260206004820152602760248201527f53616665436173743a2076616c756520646f65736e27742066697420696e203260448201527f32342062697473000000000000000000000000000000000000000000000000006064820152608401610e1d565b5090565b600080613a05846139f743613cd0565b613a0086613964565b6141ba565b6001600160e01b0391821693501690505b9250929050565b8154600160801b90819004600f0b6000818152600180860160205260409091209390935583546fffffffffffffffffffffffffffffffff908116939091011602179055565b6101f8546040517fe38335e50000000000000000000000000000000000000000000000000000000081526001600160a01b039091169063e38335e5903490613ab790889088908890600090899060040161538e565b6000604051808303818588803b158015613ad057600080fd5b505af1158015613ae4573d6000803e3d6000fd5b50505050505050505050565b600081815261013060205260408120600281015460ff1615613b155750600792915050565b6002810154610100900460ff1615613b305750600292915050565b6000613b3b846112f6565b905080613b8a5760405162461bcd60e51b815260206004820152601d60248201527f476f7665726e6f723a20756e6b6e6f776e2070726f706f73616c2069640000006044820152606401610e1d565b438110613b9b575060009392505050565b6000613ba685611e70565b9050438110613bba57506001949350505050565b613bc385614368565b8015613be657506000858152610161602052604090206006810154600590910154115b15613bf657506004949350505050565b506003949350505050565b600080613c1086868686614391565b60008181526101f9602052604090205490915015611ca2576101f85460008281526101f96020526040908190205490517fc4d252f50000000000000000000000000000000000000000000000000000000081526001600160a01b039092169163c4d252f591613c859160040190815260200190565b600060405180830381600087803b158015613c9f57600080fd5b505af1158015613cb3573d6000803e3d6000fd5b50505060008281526101f960205260408120555095945050505050565b600063ffffffff8211156139e35760405162461bcd60e51b815260206004820152602660248201527f53616665436173743a2076616c756520646f65736e27742066697420696e203360448201527f32206269747300000000000000000000000000000000000000000000000000006064820152608401610e1d565b60005b81831015612fa8576000613d63848461449e565b60008781526020902090915063ffffffff86169082015463ffffffff161115613d8e57809250613d9c565b613d9981600161544a565b93505b50613d4f565b6000613dae61022c5490565b613dbd33610b2e600143615462565b1015613e315760405162461bcd60e51b815260206004820152603160248201527f476f7665726e6f723a2070726f706f73657220766f7465732062656c6f77207060448201527f726f706f73616c207468726573686f6c640000000000000000000000000000006064820152608401610e1d565b6000613e468686868680519060200120611fe6565b90508451865114613ea35760405162461bcd60e51b815260206004820152602160248201527f476f7665726e6f723a20696e76616c69642070726f706f73616c206c656e67746044820152600d60fb1b6064820152608401610e1d565b8351865114613efe5760405162461bcd60e51b815260206004820152602160248201527f476f7665726e6f723a20696e76616c69642070726f706f73616c206c656e67746044820152600d60fb1b6064820152608401610e1d565b6000865111613f4f5760405162461bcd60e51b815260206004820152601860248201527f476f7665726e6f723a20656d7074792070726f706f73616c00000000000000006044820152606401610e1d565b600081815261013060209081526040918290208251918201909252815467ffffffffffffffff169081905215613fed5760405162461bcd60e51b815260206004820152602160248201527f476f7665726e6f723a2070726f706f73616c20616c726561647920657869737460448201527f73000000000000000000000000000000000000000000000000000000000000006064820152608401610e1d565b6000614001613ffc61022a5490565b6144b9565b61400a436144b9565b61401491906155f6565b90506000614025613ffc61022b5490565b61402f90836155f6565b835467ffffffffffffffff191667ffffffffffffffff8416178455905060018301805467ffffffffffffffff191667ffffffffffffffff83161790557f7d84a6263ae0d98d3329bd7b46bb4e8d6f98cd35a7adb45c274c8b7fd5ebd5e084338b8b8d5167ffffffffffffffff8111156140aa576140aa61482b565b6040519080825280602002602001820160405280156140dd57816020015b60608152602001906001900390816140c85790505b508c88888e6040516140f799989796959493929190615622565b60405180910390a15091979650505050505050565b81511561411c5781518083602001fd5b8060405162461bcd60e51b8152600401610e1d91906149e5565b60006bffffffffffffffffffffffff8211156139e35760405162461bcd60e51b815260206004820152602660248201527f53616665436173743a2076616c756520646f65736e27742066697420696e203960448201527f36206269747300000000000000000000000000000000000000000000000000006064820152608401610e1d565b82546000908190801561430a5760006141d88761315a600185615462565b60408051808201909152905463ffffffff8082168084526401000000009092046001600160e01b03166020840152919250908716101561425a5760405162461bcd60e51b815260206004820152601760248201527f436865636b706f696e743a20696e76616c6964206b65790000000000000000006044820152606401610e1d565b8563ffffffff16816000015163ffffffff1614156142aa57846142828861315a600186615462565b80546001600160e01b03929092166401000000000263ffffffff9092169190911790556142fa565b6040805180820190915263ffffffff80881682526001600160e01b0380881660208085019182528b54600181018d5560008d81529190912094519151909216640100000000029216919091179101555b6020015192508391506143609050565b50506040805180820190915263ffffffff80851682526001600160e01b0380851660208085019182528854600181018a5560008a8152918220955192519093166401000000000291909316179201919091559050815b935093915050565b6000818152610161602052604081206005810154614388610bb3856112f6565b11159392505050565b6000806143a086868686611fe6565b905060006143ad82611638565b905060028160078111156143c3576143c3614de0565b141580156143e3575060068160078111156143e0576143e0614de0565b14155b8015614401575060078160078111156143fe576143fe614de0565b14155b61444d5760405162461bcd60e51b815260206004820152601d60248201527f476f7665726e6f723a2070726f706f73616c206e6f74206163746976650000006044820152606401610e1d565b6000828152610130602052604090819020600201805461ff001916610100179055517f789cf55be980739dad1d0699b93b58e806b51c9d96619bfa8fe0a28abaa7b30c906111a79084815260200190565b60006144ad60028484186154f9565b611cbb9084841661544a565b600067ffffffffffffffff8211156139e35760405162461bcd60e51b815260206004820152602660248201527f53616665436173743a2076616c756520646f65736e27742066697420696e203660448201527f34206269747300000000000000000000000000000000000000000000000000006064820152608401610e1d565b82805482825590600052602060002090810192821561459b579160200282015b8281111561459b578251825473ffffffffffffffffffffffffffffffffffffffff19166001600160a01b03909116178255602090920191600190910190614559565b506139e3929150614694565b82805482825590600052602060002090810192821561459b579160200282015b8281111561459b5782518255916020019190600101906145c7565b82805482825590600052602060002090810192821561462f579160200282015b8281111561462f578251805161461f9184916020909101906146a9565b5091602001919060010190614602565b506139e392915061471c565b828054828255906000526020600020908101928215614688579160200282015b8281111561468857825180516146789184916020909101906146a9565b509160200191906001019061465b565b506139e3929150614739565b5b808211156139e35760008155600101614695565b8280546146b59061533a565b90600052602060002090601f0160209004810192826146d7576000855561459b565b82601f106146f057805160ff191683800117855561459b565b8280016001018555821561459b579182018281111561459b5782518255916020019190600101906145c7565b808211156139e35760006147308282614756565b5060010161471c565b808211156139e357600061474d8282614756565b50600101614739565b5080546147629061533a565b6000825580601f10614772575050565b601f016020900490600052602060002090810190610e7b9190614694565b6000602082840312156147a257600080fd5b5035919050565b6000602082840312156147bb57600080fd5b81356001600160e01b031981168114611cbb57600080fd5b803560ff811681146147e457600080fd5b919050565b60008083601f8401126147fb57600080fd5b50813567ffffffffffffffff81111561481357600080fd5b602083019150836020828501011115613a1657600080fd5b634e487b7160e01b600052604160045260246000fd5b604051601f8201601f1916810167ffffffffffffffff8111828210171561486a5761486a61482b565b604052919050565b600082601f83011261488357600080fd5b813567ffffffffffffffff81111561489d5761489d61482b565b6148b0601f8201601f1916602001614841565b8181528460208386010111156148c557600080fd5b816020850160208301376000918101602001919091529392505050565b60008060008060008060008060e0898b0312156148fe57600080fd5b8835975061490e60208a016147d3565b9650604089013567ffffffffffffffff8082111561492b57600080fd5b6149378c838d016147e9565b909850965060608b013591508082111561495057600080fd5b5061495d8b828c01614872565b94505061496c60808a016147d3565b925060a0890135915060c089013590509295985092959890939650565b60005b838110156149a457818101518382015260200161498c565b838111156149b3576000848401525b50505050565b600081518084526149d1816020860160208601614989565b601f01601f19169290920160200192915050565b602081526000611cbb60208301846149b9565b6001600160a01b0381168114610e7b57600080fd5b60008060008060808587031215614a2357600080fd5b8435614a2e816149f8565b93506020850135614a3e816149f8565b925060408501359150606085013567ffffffffffffffff811115614a6157600080fd5b614a6d87828801614872565b91505092959194509250565b600067ffffffffffffffff821115614a9357614a9361482b565b5060051b60200190565b600082601f830112614aae57600080fd5b81356020614ac3614abe83614a79565b614841565b82815260059290921b84018101918181019086841115614ae257600080fd5b8286015b84811015614b06578035614af9816149f8565b8352918301918301614ae6565b509695505050505050565b600082601f830112614b2257600080fd5b81356020614b32614abe83614a79565b82815260059290921b84018101918181019086841115614b5157600080fd5b8286015b84811015614b065780358352918301918301614b55565b600082601f830112614b7d57600080fd5b81356020614b8d614abe83614a79565b82815260059290921b84018101918181019086841115614bac57600080fd5b8286015b84811015614b0657803567ffffffffffffffff811115614bd05760008081fd5b614bde8986838b0101614872565b845250918301918301614bb0565b60008060008060808587031215614c0257600080fd5b843567ffffffffffffffff80821115614c1a57600080fd5b614c2688838901614a9d565b95506020870135915080821115614c3c57600080fd5b614c4888838901614b11565b94506040870135915080821115614c5e57600080fd5b50614c6b87828801614b6c565b949793965093946060013593505050565b600081518084526020808501945080840160005b83811015614cb55781516001600160a01b031687529582019590820190600101614c90565b509495945050505050565b600081518084526020808501945080840160005b83811015614cb557815187529582019590820190600101614cd4565b600081518084526020808501808196508360051b8101915082860160005b85811015614d38578284038952614d268483516149b9565b98850198935090840190600101614d0e565b5091979650505050505050565b608081526000614d586080830187614c7c565b8281036020840152614d6a8187614cc0565b90508281036040840152614d7e8186614cf0565b9050828103606084015261162d8185614cf0565b600080600080600060a08688031215614daa57600080fd5b85359450614dba602087016147d3565b9350614dc8604087016147d3565b94979396509394606081013594506080013592915050565b634e487b7160e01b600052602160045260246000fd5b6020810160088310614e1857634e487b7160e01b600052602160045260246000fd5b91905290565b60008060408385031215614e3157600080fd5b823591506020830135614e43816149f8565b809150509250929050565b60008060408385031215614e6157600080fd5b82359150614e71602084016147d3565b90509250929050565b600080600060608486031215614e8f57600080fd5b505081359360208301359350604090920135919050565b600080600080600060808688031215614ebe57600080fd5b85359450614ece602087016147d3565b9350604086013567ffffffffffffffff80821115614eeb57600080fd5b614ef789838a016147e9565b90955093506060880135915080821115614f1057600080fd5b50614f1d88828901614872565b9150509295509295909350565b60008060008060608587031215614f4057600080fd5b84359350614f50602086016147d3565b9250604085013567ffffffffffffffff811115614f6c57600080fd5b614f78878288016147e9565b95989497509550505050565b60008060008060808587031215614f9a57600080fd5b843567ffffffffffffffff80821115614fb257600080fd5b614fbe88838901614a9d565b95506020870135915080821115614fd457600080fd5b614fe088838901614b11565b94506040870135915080821115614ff657600080fd5b61500288838901614b6c565b9350606087013591508082111561501857600080fd5b50614a6d87828801614872565b60008060006060848603121561503a57600080fd5b8335615045816149f8565b925060208401359150604084013567ffffffffffffffff81111561506857600080fd5b61507486828701614872565b9150509250925092565b60006020828403121561509057600080fd5b8135611cbb816149f8565b600080600080600060a086880312156150b357600080fd5b85356150be816149f8565b945060208601356150ce816149f8565b9350604086013567ffffffffffffffff808211156150eb57600080fd5b6150f789838a01614b11565b9450606088013591508082111561510d57600080fd5b61511989838a01614b11565b93506080880135915080821115614f1057600080fd5b6000806000806060858703121561514557600080fd5b8435615150816149f8565b935060208501359250604085013567ffffffffffffffff811115614f6c57600080fd5b600082601f83011261518457600080fd5b81356020615194614abe83614a79565b82815260059290921b840181019181810190868411156151b357600080fd5b8286015b84811015614b0657803567ffffffffffffffff8111156151d75760008081fd5b6151e58986838b0101614872565b8452509183019183016151b7565b600080600080600060a0868803121561520b57600080fd5b853567ffffffffffffffff8082111561522357600080fd5b61522f89838a01614a9d565b9650602088013591508082111561524557600080fd5b61525189838a01614b11565b9550604088013591508082111561526757600080fd5b61527389838a01615173565b9450606088013591508082111561528957600080fd5b61511989838a01614b6c565b600080604083850312156152a857600080fd5b82356152b3816149f8565b946020939093013593505050565b600080600080600060a086880312156152d957600080fd5b85356152e4816149f8565b945060208601356152f4816149f8565b93506040860135925060608601359150608086013567ffffffffffffffff81111561531e57600080fd5b614f1d88828901614872565b8183823760009101908152919050565b600181811c9082168061534e57607f821691505b6020821081141561536f57634e487b7160e01b600052602260045260246000fd5b50919050565b60006020828403121561538757600080fd5b5051919050565b60a0815260006153a160a0830188614c7c565b82810360208401526153b38188614cc0565b905082810360408401526153c78187614cf0565b60608401959095525050608001529392505050565b60c0815260006153ef60c0830189614c7c565b82810360208401526154018189614cc0565b905082810360408401526154158188614cf0565b60608401969096525050608081019290925260a0909101529392505050565b634e487b7160e01b600052601160045260246000fd5b6000821982111561545d5761545d615434565b500190565b60008282101561547457615474615434565b500390565b634e487b7160e01b600052603260045260246000fd5b6080815260006154a26080830187614c7c565b82810360208401526154b48187614cc0565b905082810360408401526154c88186614cf0565b91505082606083015295945050505050565b60008160001904831182151516156154f4576154f4615434565b500290565b60008261551657634e487b7160e01b600052601260045260246000fd5b500490565b84815260ff84166020820152826040820152608060608201526000611c8a60808301846149b9565b85815260ff8516602082015283604082015260a06060820152600061556b60a08301856149b9565b828103608084015261557d81856149b9565b98975050505050505050565b600060001982141561559d5761559d615434565b5060010190565b6000602082840312156155b657600080fd5b81518015158114611cbb57600080fd5b6001600160e01b031983168152600082516155e8816004850160208701614989565b919091016004019392505050565b600067ffffffffffffffff80831681851680830382111561561957615619615434565b01949350505050565b60006101208b83526001600160a01b038b16602084015280604084015261564b8184018b614c7c565b9050828103606084015261565f818a614cc0565b905082810360808401526156738189614cf0565b905082810360a08401526156878188614cf0565b67ffffffffffffffff87811660c0860152861660e085015283810361010085015290506156b481856149b9565b9c9b50505050505050505050505056fe476f7665726e6f723a2072656c617920726576657274656420776974686f7574206d657373616765a2646970667358221220a9bb4876c56c4777b492827d28033ddd71f0964faeec42d66db6014446ee1dee64736f6c63430008080033",
  "linkReferences": {},
  "deployedLinkReferences": {}
}