{
  "_format": "hh-sol-artifact-1",
  "contractName": "ThurmanToken",
  "sourceName": "contracts/governance/ThurmanToken.sol",
  "abi": [
    {
      "anonymous": false,
      "inputs": [
        {
          "indexed": true,
          "internalType": "address",
          "name": "owner",
          "type": "address"
        },
        {
          "indexed": true,
          "internalType": "address",
          "name": "spender",
          "type": "address"
        },
        {
          "indexed": false,
          "internalType": "uint256",
          "name": "value",
          "type": "uint256"
        }
      ],
      "name": "Approval",
      "type": "event"
    },
    {
      "anonymous": false,
      "inputs": [
        {
          "indexed": true,
          "internalType": "address",
          "name": "delegator",
          "type": "address"
        },
        {
          "indexed": true,
          "internalType": "address",
          "name": "fromDelegate",
          "type": "address"
        },
        {
          "indexed": true,
          "internalType": "address",
          "name": "toDelegate",
          "type": "address"
        }
      ],
      "name": "DelegateChanged",
      "type": "event"
    },
    {
      "anonymous": false,
      "inputs": [
        {
          "indexed": true,
          "internalType": "address",
          "name": "delegate",
          "type": "address"
        },
        {
          "indexed": false,
          "internalType": "uint256",
          "name": "previousBalance",
          "type": "uint256"
        },
        {
          "indexed": false,
          "internalType": "uint256",
          "name": "newBalance",
          "type": "uint256"
        }
      ],
      "name": "DelegateVotesChanged",
      "type": "event"
    },
    {
      "anonymous": false,
      "inputs": [
        {
          "indexed": false,
          "internalType": "uint8",
          "name": "version",
          "type": "uint8"
        }
      ],
      "name": "Initialized",
      "type": "event"
    },
    {
      "anonymous": false,
      "inputs": [
        {
          "indexed": true,
          "internalType": "address",
          "name": "from",
          "type": "address"
        },
        {
          "indexed": true,
          "internalType": "address",
          "name": "to",
          "type": "address"
        },
        {
          "indexed": false,
          "internalType": "uint256",
          "name": "value",
          "type": "uint256"
        }
      ],
      "name": "Transfer",
      "type": "event"
    },
    {
      "inputs": [],
      "name": "DOMAIN_SEPARATOR",
      "outputs": [
        {
          "internalType": "bytes32",
          "name": "",
          "type": "bytes32"
        }
      ],
      "stateMutability": "view",
      "type": "function"
    },
    {
      "inputs": [],
      "name": "POLEMARCH",
      "outputs": [
        {
          "internalType": "contract IPolemarch",
          "name": "",
          "type": "address"
        }
      ],
      "stateMutability": "view",
      "type": "function"
    },
    {
      "inputs": [
        {
          "internalType": "address",
          "name": "owner",
          "type": "address"
        },
        {
          "internalType": "address",
          "name": "spender",
          "type": "address"
        }
      ],
      "name": "allowance",
      "outputs": [
        {
          "internalType": "uint256",
          "name": "",
          "type": "uint256"
        }
      ],
      "stateMutability": "view",
      "type": "function"
    },
    {
      "inputs": [
        {
          "internalType": "address",
          "name": "spender",
          "type": "address"
        },
        {
          "internalType": "uint256",
          "name": "amount",
          "type": "uint256"
        }
      ],
      "name": "approve",
      "outputs": [
        {
          "internalType": "bool",
          "name": "",
          "type": "bool"
        }
      ],
      "stateMutability": "nonpayable",
      "type": "function"
    },
    {
      "inputs": [
        {
          "internalType": "address",
          "name": "account",
          "type": "address"
        }
      ],
      "name": "balanceOf",
      "outputs": [
        {
          "internalType": "uint256",
          "name": "",
          "type": "uint256"
        }
      ],
      "stateMutability": "view",
      "type": "function"
    },
    {
      "inputs": [
        {
          "internalType": "address",
          "name": "account",
          "type": "address"
        },
        {
          "internalType": "uint256",
          "name": "amount",
          "type": "uint256"
        }
      ],
      "name": "burn",
      "outputs": [],
      "stateMutability": "nonpayable",
      "type": "function"
    },
    {
      "inputs": [
        {
          "internalType": "address",
          "name": "account",
          "type": "address"
        },
        {
          "internalType": "uint32",
          "name": "pos",
          "type": "uint32"
        }
      ],
      "name": "checkpoints",
      "outputs": [
        {
          "components": [
            {
              "internalType": "uint32",
              "name": "fromBlock",
              "type": "uint32"
            },
            {
              "internalType": "uint224",
              "name": "votes",
              "type": "uint224"
            }
          ],
          "internalType": "struct ERC20VotesUpgradeable.Checkpoint",
          "name": "",
          "type": "tuple"
        }
      ],
      "stateMutability": "view",
      "type": "function"
    },
    {
      "inputs": [],
      "name": "decimals",
      "outputs": [
        {
          "internalType": "uint8",
          "name": "",
          "type": "uint8"
        }
      ],
      "stateMutability": "view",
      "type": "function"
    },
    {
      "inputs": [
        {
          "internalType": "address",
          "name": "spender",
          "type": "address"
        },
        {
          "internalType": "uint256",
          "name": "subtractedValue",
          "type": "uint256"
        }
      ],
      "name": "decreaseAllowance",
      "outputs": [
        {
          "internalType": "bool",
          "name": "",
          "type": "bool"
        }
      ],
      "stateMutability": "nonpayable",
      "type": "function"
    },
    {
      "inputs": [
        {
          "internalType": "address",
          "name": "delegatee",
          "type": "address"
        }
      ],
      "name": "delegate",
      "outputs": [],
      "stateMutability": "nonpayable",
      "type": "function"
    },
    {
      "inputs": [
        {
          "internalType": "address",
          "name": "delegatee",
          "type": "address"
        },
        {
          "internalType": "uint256",
          "name": "nonce",
          "type": "uint256"
        },
        {
          "internalType": "uint256",
          "name": "expiry",
          "type": "uint256"
        },
        {
          "internalType": "uint8",
          "name": "v",
          "type": "uint8"
        },
        {
          "internalType": "bytes32",
          "name": "r",
          "type": "bytes32"
        },
        {
          "internalType": "bytes32",
          "name": "s",
          "type": "bytes32"
        }
      ],
      "name": "delegateBySig",
      "outputs": [],
      "stateMutability": "nonpayable",
      "type": "function"
    },
    {
      "inputs": [
        {
          "internalType": "address",
          "name": "account",
          "type": "address"
        }
      ],
      "name": "delegates",
      "outputs": [
        {
          "internalType": "address",
          "name": "",
          "type": "address"
        }
      ],
      "stateMutability": "view",
      "type": "function"
    },
    {
      "inputs": [
        {
          "internalType": "uint256",
          "name": "blockNumber",
          "type": "uint256"
        }
      ],
      "name": "getPastTotalSupply",
      "outputs": [
        {
          "internalType": "uint256",
          "name": "",
          "type": "uint256"
        }
      ],
      "stateMutability": "view",
      "type": "function"
    },
    {
      "inputs": [
        {
          "internalType": "address",
          "name": "account",
          "type": "address"
        },
        {
          "internalType": "uint256",
          "name": "blockNumber",
          "type": "uint256"
        }
      ],
      "name": "getPastVotes",
      "outputs": [
        {
          "internalType": "uint256",
          "name": "",
          "type": "uint256"
        }
      ],
      "stateMutability": "view",
      "type": "function"
    },
    {
      "inputs": [
        {
          "internalType": "address",
          "name": "account",
          "type": "address"
        }
      ],
      "name": "getVotes",
      "outputs": [
        {
          "internalType": "uint256",
          "name": "",
          "type": "uint256"
        }
      ],
      "stateMutability": "view",
      "type": "function"
    },
    {
      "inputs": [
        {
          "internalType": "address",
          "name": "spender",
          "type": "address"
        },
        {
          "internalType": "uint256",
          "name": "addedValue",
          "type": "uint256"
        }
      ],
      "name": "increaseAllowance",
      "outputs": [
        {
          "internalType": "bool",
          "name": "",
          "type": "bool"
        }
      ],
      "stateMutability": "nonpayable",
      "type": "function"
    },
    {
      "inputs": [
        {
          "internalType": "contract IPolemarch",
          "name": "polemarch",
          "type": "address"
        },
        {
          "internalType": "string",
          "name": "name",
          "type": "string"
        },
        {
          "internalType": "string",
          "name": "symbol",
          "type": "string"
        },
        {
          "internalType": "uint8",
          "name": "thurmanDecimals",
          "type": "uint8"
        }
      ],
      "name": "initialize",
      "outputs": [],
      "stateMutability": "nonpayable",
      "type": "function"
    },
    {
      "inputs": [
        {
          "internalType": "address",
          "name": "to",
          "type": "address"
        },
        {
          "internalType": "uint256",
          "name": "amount",
          "type": "uint256"
        }
      ],
      "name": "mint",
      "outputs": [],
      "stateMutability": "nonpayable",
      "type": "function"
    },
    {
      "inputs": [],
      "name": "name",
      "outputs": [
        {
          "internalType": "string",
          "name": "",
          "type": "string"
        }
      ],
      "stateMutability": "view",
      "type": "function"
    },
    {
      "inputs": [
        {
          "internalType": "address",
          "name": "owner",
          "type": "address"
        }
      ],
      "name": "nonces",
      "outputs": [
        {
          "internalType": "uint256",
          "name": "",
          "type": "uint256"
        }
      ],
      "stateMutability": "view",
      "type": "function"
    },
    {
      "inputs": [
        {
          "internalType": "address",
          "name": "account",
          "type": "address"
        }
      ],
      "name": "numCheckpoints",
      "outputs": [
        {
          "internalType": "uint32",
          "name": "",
          "type": "uint32"
        }
      ],
      "stateMutability": "view",
      "type": "function"
    },
    {
      "inputs": [
        {
          "internalType": "address",
          "name": "owner",
          "type": "address"
        },
        {
          "internalType": "address",
          "name": "spender",
          "type": "address"
        },
        {
          "internalType": "uint256",
          "name": "value",
          "type": "uint256"
        },
        {
          "internalType": "uint256",
          "name": "deadline",
          "type": "uint256"
        },
        {
          "internalType": "uint8",
          "name": "v",
          "type": "uint8"
        },
        {
          "internalType": "bytes32",
          "name": "r",
          "type": "bytes32"
        },
        {
          "internalType": "bytes32",
          "name": "s",
          "type": "bytes32"
        }
      ],
      "name": "permit",
      "outputs": [],
      "stateMutability": "nonpayable",
      "type": "function"
    },
    {
      "inputs": [],
      "name": "symbol",
      "outputs": [
        {
          "internalType": "string",
          "name": "",
          "type": "string"
        }
      ],
      "stateMutability": "view",
      "type": "function"
    },
    {
      "inputs": [],
      "name": "totalSupply",
      "outputs": [
        {
          "internalType": "uint256",
          "name": "",
          "type": "uint256"
        }
      ],
      "stateMutability": "view",
      "type": "function"
    },
    {
      "inputs": [
        {
          "internalType": "address",
          "name": "to",
          "type": "address"
        },
        {
          "internalType": "uint256",
          "name": "amount",
          "type": "uint256"
        }
      ],
      "name": "transfer",
      "outputs": [
        {
          "internalType": "bool",
          "name": "",
          "type": "bool"
        }
      ],
      "stateMutability": "nonpayable",
      "type": "function"
    },
    {
      "inputs": [
        {
          "internalType": "address",
          "name": "from",
          "type": "address"
        },
        {
          "internalType": "address",
          "name": "to",
          "type": "address"
        },
        {
          "internalType": "uint256",
          "name": "amount",
          "type": "uint256"
        }
      ],
      "name": "transferFrom",
      "outputs": [
        {
          "internalType": "bool",
          "name": "",
          "type": "bool"
        }
      ],
      "stateMutability": "nonpayable",
      "type": "function"
    }
  ],
  "bytecode": "0x608060405234801561001057600080fd5b50612565806100206000396000f3fe608060405234801561001057600080fd5b50600436106101ae5760003560e01c80637ecebe00116100ee578063a9059cbb11610097578063d505accf11610071578063d505accf146103be578063dd62ed3e146103d1578063f1127ed81461040a578063f6d2ee861461044757600080fd5b8063a9059cbb14610380578063c3cda52014610393578063d49608df146103a657600080fd5b80639ab24eb0116100c85780639ab24eb0146103475780639dc29fac1461035a578063a457c2d71461036d57600080fd5b80637ecebe00146103195780638e539e8c1461032c57806395d89b411461033f57600080fd5b8063395093511161015b578063587cde1e11610135578063587cde1e146102715780635c19a95c146102b55780636fcfff45146102c857806370a08231146102f057600080fd5b806339509351146102365780633a46b1a81461024957806340c10f191461025c57600080fd5b806323b872dd1161018c57806323b872dd14610206578063313ce567146102195780633644e5151461022e57600080fd5b806306fdde03146101b3578063095ea7b3146101d157806318160ddd146101f4575b600080fd5b6101bb61045a565b6040516101c891906120cc565b60405180910390f35b6101e46101df366004612136565b6104ec565b60405190151581526020016101c8565b6035545b6040519081526020016101c8565b6101e4610214366004612162565b610504565b60fe5460405160ff90911681526020016101c8565b6101f8610528565b6101e4610244366004612136565b610537565b6101f8610257366004612136565b610576565b61026f61026a366004612136565b6105f5565b005b61029d61027f3660046121a3565b6001600160a01b03908116600090815260cc60205260409020541690565b6040516001600160a01b0390911681526020016101c8565b61026f6102c33660046121a3565b61066b565b6102db6102d63660046121a3565b610678565b60405163ffffffff90911681526020016101c8565b6101f86102fe3660046121a3565b6001600160a01b031660009081526033602052604090205490565b6101f86103273660046121a3565b6106a0565b6101f861033a3660046121c0565b6106be565b6101bb61071a565b6101f86103553660046121a3565b610729565b61026f610368366004612136565b6107b0565b6101e461037b366004612136565b610822565b6101e461038e366004612136565b6108cc565b61026f6103a13660046121ef565b6108da565b60fe5461029d9061010090046001600160a01b031681565b61026f6103cc366004612249565b610a10565b6101f86103df3660046122b7565b6001600160a01b03918216600090815260346020908152604080832093909416825291909152205490565b61041d6104183660046122f0565b610b74565b60408051825163ffffffff1681526020928301516001600160e01b031692810192909252016101c8565b61026f6104553660046123ca565b610bf8565b60606036805461046990612451565b80601f016020809104026020016040519081016040528092919081815260200182805461049590612451565b80156104e25780601f106104b7576101008083540402835291602001916104e2565b820191906000526020600020905b8154815290600101906020018083116104c557829003601f168201915b5050505050905090565b6000336104fa818585610d68565b5060019392505050565b600033610512858285610ec0565b61051d858585610f52565b506001949350505050565b600061053261114c565b905090565b3360008181526034602090815260408083206001600160a01b03871684529091528120549091906104fa908290869061057190879061249c565b610d68565b60004382106105cc5760405162461bcd60e51b815260206004820152601f60248201527f4552433230566f7465733a20626c6f636b206e6f7420796574206d696e65640060448201526064015b60405180910390fd5b6001600160a01b038316600090815260cd602052604090206105ee90836111c7565b9392505050565b60fe5461010090046001600160a01b0316336001600160a01b03161461065d5760405162461bcd60e51b815260206004820152601860248201527f43414c4c45525f4d5553545f42455f504f4c454d41524348000000000000000060448201526064016105c3565b61066782826112be565b5050565b61067533826112c8565b50565b6001600160a01b038116600090815260cd602052604081205461069a9061135a565b92915050565b6001600160a01b03811660009081526099602052604081205461069a565b600043821061070f5760405162461bcd60e51b815260206004820152601f60248201527f4552433230566f7465733a20626c6f636b206e6f7420796574206d696e65640060448201526064016105c3565b61069a60ce836111c7565b60606037805461046990612451565b6001600160a01b038116600090815260cd6020526040812054801561079d576001600160a01b038316600090815260cd6020526040902061076b6001836124b4565b8154811061077b5761077b6124cb565b60009182526020909120015464010000000090046001600160e01b03166107a0565b60005b6001600160e01b03169392505050565b60fe5461010090046001600160a01b0316336001600160a01b0316146108185760405162461bcd60e51b815260206004820152601860248201527f43414c4c45525f4d5553545f42455f504f4c454d41524348000000000000000060448201526064016105c3565b61066782826113da565b3360008181526034602090815260408083206001600160a01b0387168452909152812054909190838110156108bf5760405162461bcd60e51b815260206004820152602560248201527f45524332303a2064656372656173656420616c6c6f77616e63652062656c6f7760448201527f207a65726f00000000000000000000000000000000000000000000000000000060648201526084016105c3565b61051d8286868403610d68565b6000336104fa818585610f52565b8342111561092a5760405162461bcd60e51b815260206004820152601d60248201527f4552433230566f7465733a207369676e6174757265206578706972656400000060448201526064016105c3565b604080517fe48329057bfd03d55e49b547132e39cffd9c1820ad7b9d4c5307691425d15adf60208201526001600160a01b0388169181019190915260608101869052608081018590526000906109a49061099c9060a001604051602081830303815290604052805190602001206113e4565b85858561144d565b90506109af81611475565b86146109fd5760405162461bcd60e51b815260206004820152601960248201527f4552433230566f7465733a20696e76616c6964206e6f6e63650000000000000060448201526064016105c3565b610a0781886112c8565b50505050505050565b83421115610a605760405162461bcd60e51b815260206004820152601d60248201527f45524332305065726d69743a206578706972656420646561646c696e6500000060448201526064016105c3565b60007f6e71edae12b1b97f4d1f60370fef10105fa2faae0126114a169c64845d6126c9888888610a8f8c611475565b6040805160208101969096526001600160a01b0394851690860152929091166060840152608083015260a082015260c0810186905260e0016040516020818303038152906040528051906020012090506000610aea826113e4565b90506000610afa8287878761144d565b9050896001600160a01b0316816001600160a01b031614610b5d5760405162461bcd60e51b815260206004820152601e60248201527f45524332305065726d69743a20696e76616c6964207369676e6174757265000060448201526064016105c3565b610b688a8a8a610d68565b50505050505050505050565b60408051808201909152600080825260208201526001600160a01b038316600090815260cd60205260409020805463ffffffff8416908110610bb857610bb86124cb565b60009182526020918290206040805180820190915291015463ffffffff8116825264010000000090046001600160e01b0316918101919091529392505050565b600054610100900460ff1615808015610c185750600054600160ff909116105b80610c325750303b158015610c32575060005460ff166001145b610ca45760405162461bcd60e51b815260206004820152602e60248201527f496e697469616c697a61626c653a20636f6e747261637420697320616c72656160448201527f647920696e697469616c697a656400000000000000000000000000000000000060648201526084016105c3565b6000805460ff191660011790558015610cc7576000805461ff0019166101001790555b610cd1848461149d565b60fe805460ff196101006001600160a01b03891602167fffffffffffffffffffffff0000000000000000000000000000000000000000009091161760ff8416179055610d1b611512565b8015610d61576000805461ff0019169055604051600181527f7f26b83ff96e1f2b6a682f133852f6798a09c465da95921460cefb38474024989060200160405180910390a15b5050505050565b6001600160a01b038316610de35760405162461bcd60e51b8152602060048201526024808201527f45524332303a20617070726f76652066726f6d20746865207a65726f2061646460448201527f726573730000000000000000000000000000000000000000000000000000000060648201526084016105c3565b6001600160a01b038216610e5f5760405162461bcd60e51b815260206004820152602260248201527f45524332303a20617070726f766520746f20746865207a65726f20616464726560448201527f737300000000000000000000000000000000000000000000000000000000000060648201526084016105c3565b6001600160a01b0383811660008181526034602090815260408083209487168084529482529182902085905590518481527f8c5be1e5ebec7d5bd14f71427d1e84f3dd0314c0f7b2291e5b200ac8c7c3b925910160405180910390a3505050565b6001600160a01b038381166000908152603460209081526040808320938616835292905220546000198114610f4c5781811015610f3f5760405162461bcd60e51b815260206004820152601d60248201527f45524332303a20696e73756666696369656e7420616c6c6f77616e636500000060448201526064016105c3565b610f4c8484848403610d68565b50505050565b6001600160a01b038316610fce5760405162461bcd60e51b815260206004820152602560248201527f45524332303a207472616e736665722066726f6d20746865207a65726f20616460448201527f647265737300000000000000000000000000000000000000000000000000000060648201526084016105c3565b6001600160a01b03821661104a5760405162461bcd60e51b815260206004820152602360248201527f45524332303a207472616e7366657220746f20746865207a65726f206164647260448201527f657373000000000000000000000000000000000000000000000000000000000060648201526084016105c3565b6001600160a01b038316600090815260336020526040902054818110156110d95760405162461bcd60e51b815260206004820152602660248201527f45524332303a207472616e7366657220616d6f756e742065786365656473206260448201527f616c616e6365000000000000000000000000000000000000000000000000000060648201526084016105c3565b6001600160a01b0380851660008181526033602052604080822086860390559286168082529083902080548601905591517fddf252ad1be2c89b69c2b068fc378daa952ba7f163c4a11628f55a4df523b3ef906111399086815260200190565b60405180910390a3610f4c848484611584565b60006105327f8b73c3c69bb8fe3d512ecc4cf759cc79239f7b179b0ffacaa9a75d522b39400f61117b60655490565b6066546040805160208101859052908101839052606081018290524660808201523060a082015260009060c0016040516020818303038152906040528051906020012090509392505050565b8154600090818160058111156112215760006111e28461158f565b6111ec90856124b4565b600088815260209020909150869082015463ffffffff1611156112115780915061121f565b61121c81600161249c565b92505b505b8082101561126e5760006112358383611674565b600088815260209020909150869082015463ffffffff16111561125a57809150611268565b61126581600161249c565b92505b50611221565b80156112a857611291866112836001846124b4565b600091825260209091200190565b5464010000000090046001600160e01b03166112ab565b60005b6001600160e01b03169695505050505050565b610667828261168f565b6001600160a01b03828116600081815260cc6020818152604080842080546033845282862054949093528787167fffffffffffffffffffffffff00000000000000000000000000000000000000008416811790915590519190951694919391928592917f3134e8a2e6d97e929a7e54011ea5485d7d196dd5f0ba4d4ef95803e8e3fc257f9190a4610f4c828483611726565b600063ffffffff8211156113d65760405162461bcd60e51b815260206004820152602660248201527f53616665436173743a2076616c756520646f65736e27742066697420696e203360448201527f322062697473000000000000000000000000000000000000000000000000000060648201526084016105c3565b5090565b6106678282611863565b600061069a6113f161114c565b836040517f19010000000000000000000000000000000000000000000000000000000000006020820152602281018390526042810182905260009060620160405160208183030381529060405280519060200120905092915050565b600080600061145e8787878761187b565b9150915061146b8161193f565b5095945050505050565b6001600160a01b03811660009081526099602052604090208054600181018255905b50919050565b600054610100900460ff166115085760405162461bcd60e51b815260206004820152602b60248201527f496e697469616c697a61626c653a20636f6e7472616374206973206e6f74206960448201526a6e697469616c697a696e6760a81b60648201526084016105c3565b6106678282611aa8565b600054610100900460ff1661157d5760405162461bcd60e51b815260206004820152602b60248201527f496e697469616c697a61626c653a20636f6e7472616374206973206e6f74206960448201526a6e697469616c697a696e6760a81b60648201526084016105c3565b565b505050565b61157f838383611b3a565b60008161159e57506000919050565b600060016115ab84611b6c565b901c6001901b905060018184816115c4576115c46124e1565b048201901c905060018184816115dc576115dc6124e1565b048201901c905060018184816115f4576115f46124e1565b048201901c9050600181848161160c5761160c6124e1565b048201901c90506001818481611624576116246124e1565b048201901c9050600181848161163c5761163c6124e1565b048201901c90506001818481611654576116546124e1565b048201901c90506105ee8182858161166e5761166e6124e1565b04611c00565b600061168360028484186124f7565b6105ee9084841661249c565b6116998282611c16565b6035546001600160e01b0310156117185760405162461bcd60e51b815260206004820152603060248201527f4552433230566f7465733a20746f74616c20737570706c79207269736b73206f60448201527f766572666c6f77696e6720766f7465730000000000000000000000000000000060648201526084016105c3565b610f4c60ce611cdf83611ceb565b816001600160a01b0316836001600160a01b0316141580156117485750600081115b1561157f576001600160a01b038316156117d6576001600160a01b038316600090815260cd60205260408120819061178390611e3f85611ceb565b91509150846001600160a01b03167fdec2bacdd2f05b59de34da9b523dff8be42e5e38e818c82fdb0bae774387a72483836040516117cb929190918252602082015260400190565b60405180910390a250505b6001600160a01b0382161561157f576001600160a01b038216600090815260cd60205260408120819061180c90611cdf85611ceb565b91509150836001600160a01b03167fdec2bacdd2f05b59de34da9b523dff8be42e5e38e818c82fdb0bae774387a7248383604051611854929190918252602082015260400190565b60405180910390a25050505050565b61186d8282611e4b565b610f4c60ce611e3f83611ceb565b6000807f7fffffffffffffffffffffffffffffff5d576e7357a4501ddfe92f46681b20a08311156118b25750600090506003611936565b6040805160008082526020820180845289905260ff881692820192909252606081018690526080810185905260019060a0016020604051602081039080840390855afa158015611906573d6000803e3d6000fd5b5050604051601f1901519150506001600160a01b03811661192f57600060019250925050611936565b9150600090505b94509492505050565b600081600481111561195357611953612519565b141561195c5750565b600181600481111561197057611970612519565b14156119be5760405162461bcd60e51b815260206004820152601860248201527f45434453413a20696e76616c6964207369676e6174757265000000000000000060448201526064016105c3565b60028160048111156119d2576119d2612519565b1415611a205760405162461bcd60e51b815260206004820152601f60248201527f45434453413a20696e76616c6964207369676e6174757265206c656e6774680060448201526064016105c3565b6003816004811115611a3457611a34612519565b14156106755760405162461bcd60e51b815260206004820152602260248201527f45434453413a20696e76616c6964207369676e6174757265202773272076616c60448201527f756500000000000000000000000000000000000000000000000000000000000060648201526084016105c3565b600054610100900460ff16611b135760405162461bcd60e51b815260206004820152602b60248201527f496e697469616c697a61626c653a20636f6e7472616374206973206e6f74206960448201526a6e697469616c697a696e6760a81b60648201526084016105c3565b8151611b2690603690602085019061203c565b50805161157f90603790602084019061203c565b6001600160a01b03838116600090815260cc602052604080822054858416835291205461157f92918216911683611726565b600080608083901c15611b8157608092831c92015b604083901c15611b9357604092831c92015b602083901c15611ba557602092831c92015b601083901c15611bb757601092831c92015b600883901c15611bc957600892831c92015b600483901c15611bdb57600492831c92015b600283901c15611bed57600292831c92015b600183901c1561069a5760010192915050565b6000818310611c0f57816105ee565b5090919050565b6001600160a01b038216611c6c5760405162461bcd60e51b815260206004820152601f60248201527f45524332303a206d696e7420746f20746865207a65726f20616464726573730060448201526064016105c3565b8060356000828254611c7e919061249c565b90915550506001600160a01b0382166000818152603360209081526040808320805486019055518481527fddf252ad1be2c89b69c2b068fc378daa952ba7f163c4a11628f55a4df523b3ef910160405180910390a361066760008383611584565b60006105ee828461249c565b82546000908190818115611d3857611d08876112836001856124b4565b60408051808201909152905463ffffffff8116825264010000000090046001600160e01b03166020820152611d4d565b60408051808201909152600080825260208201525b905080602001516001600160e01b03169350611d6d84868863ffffffff16565b9250600082118015611d855750805163ffffffff1643145b15611dca57611d9383611fbd565b611da2886112836001866124b4565b80546001600160e01b03929092166401000000000263ffffffff909216919091179055611e35565b866040518060400160405280611ddf4361135a565b63ffffffff168152602001611df386611fbd565b6001600160e01b0390811690915282546001810184556000938452602093849020835194909301519091166401000000000263ffffffff909316929092179101555b5050935093915050565b60006105ee82846124b4565b6001600160a01b038216611ec75760405162461bcd60e51b815260206004820152602160248201527f45524332303a206275726e2066726f6d20746865207a65726f2061646472657360448201527f730000000000000000000000000000000000000000000000000000000000000060648201526084016105c3565b6001600160a01b03821660009081526033602052604090205481811015611f565760405162461bcd60e51b815260206004820152602260248201527f45524332303a206275726e20616d6f756e7420657863656564732062616c616e60448201527f636500000000000000000000000000000000000000000000000000000000000060648201526084016105c3565b6001600160a01b03831660008181526033602090815260408083208686039055603580548790039055518581529192917fddf252ad1be2c89b69c2b068fc378daa952ba7f163c4a11628f55a4df523b3ef910160405180910390a361157f83600084611584565b60006001600160e01b038211156113d65760405162461bcd60e51b815260206004820152602760248201527f53616665436173743a2076616c756520646f65736e27742066697420696e203260448201527f323420626974730000000000000000000000000000000000000000000000000060648201526084016105c3565b82805461204890612451565b90600052602060002090601f01602090048101928261206a57600085556120b0565b82601f1061208357805160ff19168380011785556120b0565b828001600101855582156120b0579182015b828111156120b0578251825591602001919060010190612095565b506113d69291505b808211156113d657600081556001016120b8565b600060208083528351808285015260005b818110156120f9578581018301518582016040015282016120dd565b8181111561210b576000604083870101525b50601f01601f1916929092016040019392505050565b6001600160a01b038116811461067557600080fd5b6000806040838503121561214957600080fd5b823561215481612121565b946020939093013593505050565b60008060006060848603121561217757600080fd5b833561218281612121565b9250602084013561219281612121565b929592945050506040919091013590565b6000602082840312156121b557600080fd5b81356105ee81612121565b6000602082840312156121d257600080fd5b5035919050565b803560ff811681146121ea57600080fd5b919050565b60008060008060008060c0878903121561220857600080fd5b863561221381612121565b9550602087013594506040870135935061222f606088016121d9565b92506080870135915060a087013590509295509295509295565b600080600080600080600060e0888a03121561226457600080fd5b873561226f81612121565b9650602088013561227f81612121565b9550604088013594506060880135935061229b608089016121d9565b925060a0880135915060c0880135905092959891949750929550565b600080604083850312156122ca57600080fd5b82356122d581612121565b915060208301356122e581612121565b809150509250929050565b6000806040838503121561230357600080fd5b823561230e81612121565b9150602083013563ffffffff811681146122e557600080fd5b634e487b7160e01b600052604160045260246000fd5b600082601f83011261234e57600080fd5b813567ffffffffffffffff8082111561236957612369612327565b604051601f8301601f19908116603f0116810190828211818310171561239157612391612327565b816040528381528660208588010111156123aa57600080fd5b836020870160208301376000602085830101528094505050505092915050565b600080600080608085870312156123e057600080fd5b84356123eb81612121565b9350602085013567ffffffffffffffff8082111561240857600080fd5b6124148883890161233d565b9450604087013591508082111561242a57600080fd5b506124378782880161233d565b925050612446606086016121d9565b905092959194509250565b600181811c9082168061246557607f821691505b6020821081141561149757634e487b7160e01b600052602260045260246000fd5b634e487b7160e01b600052601160045260246000fd5b600082198211156124af576124af612486565b500190565b6000828210156124c6576124c6612486565b500390565b634e487b7160e01b600052603260045260246000fd5b634e487b7160e01b600052601260045260246000fd5b60008261251457634e487b7160e01b600052601260045260246000fd5b500490565b634e487b7160e01b600052602160045260246000fdfea2646970667358221220527c26529d23e2ad46e366b2639f7832203119fafb1847c93ff1cb033e35925164736f6c63430008080033",
  "linkReferences": {},
  "deployedLinkReferences": {}
}